{"abi":[{"inputs":[{"internalType":"string","name":"_title","type":"string"},{"internalType":"uint256","name":"minimum","type":"uint256"},{"internalType":"address","name":"creator","type":"address"},{"internalType":"string","name":"_url","type":"string"}],"stateMutability":"nonpayable","type":"constructor"},{"inputs":[{"internalType":"uint256","name":"index","type":"uint256"}],"name":"approveRequest","outputs":[],"stateMutability":"nonpayable","type":"function"},{"inputs":[{"internalType":"address","name":"","type":"address"}],"name":"approvers","outputs":[{"internalType":"bool","name":"","type":"bool"}],"stateMutability":"view","type":"function"},{"inputs":[],"name":"approversCount","outputs":[{"internalType":"uint256","name":"","type":"uint256"}],"stateMutability":"view","type":"function"},{"inputs":[],"name":"contribute","outputs":[],"stateMutability":"payable","type":"function"},{"inputs":[{"internalType":"string","name":"description","type":"string"},{"internalType":"uint256","name":"value","type":"uint256"},{"internalType":"address","name":"recipient","type":"address"}],"name":"createRequest","outputs":[],"stateMutability":"nonpayable","type":"function"},{"inputs":[{"internalType":"uint256","name":"index","type":"uint256"}],"name":"finalizeRequest","outputs":[],"stateMutability":"nonpayable","type":"function"},{"inputs":[],"name":"getRequestsCount","outputs":[{"internalType":"uint256","name":"","type":"uint256"}],"stateMutability":"view","type":"function"},{"inputs":[],"name":"getSummary","outputs":[{"internalType":"uint256","name":"","type":"uint256"},{"internalType":"uint256","name":"","type":"uint256"},{"internalType":"uint256","name":"","type":"uint256"},{"internalType":"uint256","name":"","type":"uint256"},{"internalType":"address","name":"","type":"address"},{"internalType":"string","name":"","type":"string"},{"internalType":"string","name":"","type":"string"}],"stateMutability":"view","type":"function"},{"inputs":[],"name":"manager","outputs":[{"internalType":"address","name":"","type":"address"}],"stateMutability":"view","type":"function"},{"inputs":[],"name":"minimumContribution","outputs":[{"internalType":"uint256","name":"","type":"uint256"}],"stateMutability":"view","type":"function"},{"inputs":[{"internalType":"uint256","name":"","type":"uint256"}],"name":"requests","outputs":[{"internalType":"string","name":"description","type":"string"},{"internalType":"uint256","name":"value","type":"uint256"},{"internalType":"address","name":"recipient","type":"address"},{"internalType":"bool","name":"complete","type":"bool"},{"internalType":"uint256","name":"approvalCount","type":"uint256"}],"stateMutability":"view","type":"function"},{"inputs":[],"name":"title","outputs":[{"internalType":"string","name":"","type":"string"}],"stateMutability":"view","type":"function"},{"inputs":[],"name":"url","outputs":[{"internalType":"string","name":"","type":"string"}],"stateMutability":"view","type":"function"}],"devdoc":{"kind":"dev","methods":{},"version":1},"evm":{"assembly":"    /* \"Campaign.sol\":582:2960  contract Campaign {... */\n  mstore(0x40, 0x80)\n    /* \"Campaign.sol\":1114:1354  constructor(... */\n  callvalue\n  dup1\n  iszero\n  tag_1\n  jumpi\n  0x00\n  dup1\n  revert\ntag_1:\n  pop\n  mload(0x40)\n  sub(codesize, bytecodeSize)\n  dup1\n  bytecodeSize\n  dup4\n  codecopy\n  dup2\n  dup2\n  add\n  0x40\n  mstore\n  dup2\n  add\n  swap1\n  tag_2\n  swap2\n  swap1\n  tag_3\n  jump\t// in\ntag_2:\n    /* \"Campaign.sol\":1253:1257  _url */\n  dup1\n    /* \"Campaign.sol\":1247:1250  url */\n  0x03\n    /* \"Campaign.sol\":1247:1257  url = _url */\n  swap1\n  dup2\n  tag_6\n  swap2\n  swap1\n  tag_7\n  jump\t// in\ntag_6:\n  pop\n    /* \"Campaign.sol\":1277:1284  creator */\n  dup2\n    /* \"Campaign.sol\":1267:1274  manager */\n  0x01\n  0x00\n    /* \"Campaign.sol\":1267:1284  manager = creator */\n  0x0100\n  exp\n  dup2\n  sload\n  dup2\n  0xffffffffffffffffffffffffffffffffffffffff\n  mul\n  not\n  and\n  swap1\n  dup4\n  0xffffffffffffffffffffffffffffffffffffffff\n  and\n  mul\n  or\n  swap1\n  sstore\n  pop\n    /* \"Campaign.sol\":1302:1308  _title */\n  dup4\n    /* \"Campaign.sol\":1294:1299  title */\n  0x02\n    /* \"Campaign.sol\":1294:1308  title = _title */\n  swap1\n  dup2\n  tag_8\n  swap2\n  swap1\n  tag_7\n  jump\t// in\ntag_8:\n  pop\n    /* \"Campaign.sol\":1340:1347  minimum */\n  dup3\n    /* \"Campaign.sol\":1318:1337  minimumContribution */\n  0x04\n    /* \"Campaign.sol\":1318:1347  minimumContribution = minimum */\n  dup2\n  swap1\n  sstore\n  pop\n    /* \"Campaign.sol\":1114:1354  constructor(... */\n  pop\n  pop\n  pop\n  pop\n    /* \"Campaign.sol\":582:2960  contract Campaign {... */\n  jump(tag_9)\n    /* \"#utility.yul\":7:82   */\ntag_10:\n    /* \"#utility.yul\":40:46   */\n  0x00\n    /* \"#utility.yul\":73:75   */\n  0x40\n    /* \"#utility.yul\":67:76   */\n  mload\n    /* \"#utility.yul\":57:76   */\n  swap1\n  pop\n    /* \"#utility.yul\":7:82   */\n  swap1\n  jump\t// out\n    /* \"#utility.yul\":88:205   */\ntag_11:\n    /* \"#utility.yul\":197:198   */\n  0x00\n    /* \"#utility.yul\":194:195   */\n  dup1\n    /* \"#utility.yul\":187:199   */\n  revert\n    /* \"#utility.yul\":211:328   */\ntag_12:\n    /* \"#utility.yul\":320:321   */\n  0x00\n    /* \"#utility.yul\":317:318   */\n  dup1\n    /* \"#utility.yul\":310:322   */\n  revert\n    /* \"#utility.yul\":334:451   */\ntag_13:\n    /* \"#utility.yul\":443:444   */\n  0x00\n    /* \"#utility.yul\":440:441   */\n  dup1\n    /* \"#utility.yul\":433:445   */\n  revert\n    /* \"#utility.yul\":457:574   */\ntag_14:\n    /* \"#utility.yul\":566:567   */\n  0x00\n    /* \"#utility.yul\":563:564   */\n  dup1\n    /* \"#utility.yul\":556:568   */\n  revert\n    /* \"#utility.yul\":580:682   */\ntag_15:\n    /* \"#utility.yul\":621:627   */\n  0x00\n    /* \"#utility.yul\":672:674   */\n  0x1f\n    /* \"#utility.yul\":668:675   */\n  not\n    /* \"#utility.yul\":663:665   */\n  0x1f\n    /* \"#utility.yul\":656:661   */\n  dup4\n    /* \"#utility.yul\":652:666   */\n  add\n    /* \"#utility.yul\":648:676   */\n  and\n    /* \"#utility.yul\":638:676   */\n  swap1\n  pop\n    /* \"#utility.yul\":580:682   */\n  swap2\n  swap1\n  pop\n  jump\t// out\n    /* \"#utility.yul\":688:868   */\ntag_16:\n    /* \"#utility.yul\":736:813   */\n  0x4e487b7100000000000000000000000000000000000000000000000000000000\n    /* \"#utility.yul\":733:734   */\n  0x00\n    /* \"#utility.yul\":726:814   */\n  mstore\n    /* \"#utility.yul\":833:837   */\n  0x41\n    /* \"#utility.yul\":830:831   */\n  0x04\n    /* \"#utility.yul\":823:838   */\n  mstore\n    /* \"#utility.yul\":857:861   */\n  0x24\n    /* \"#utility.yul\":854:855   */\n  0x00\n    /* \"#utility.yul\":847:862   */\n  revert\n    /* \"#utility.yul\":874:1155   */\ntag_17:\n    /* \"#utility.yul\":957:984   */\n  tag_57\n    /* \"#utility.yul\":979:983   */\n  dup3\n    /* \"#utility.yul\":957:984   */\n  tag_15\n  jump\t// in\ntag_57:\n    /* \"#utility.yul\":949:955   */\n  dup2\n    /* \"#utility.yul\":945:985   */\n  add\n    /* \"#utility.yul\":1087:1093   */\n  dup2\n    /* \"#utility.yul\":1075:1085   */\n  dup2\n    /* \"#utility.yul\":1072:1094   */\n  lt\n    /* \"#utility.yul\":1051:1069   */\n  0xffffffffffffffff\n    /* \"#utility.yul\":1039:1049   */\n  dup3\n    /* \"#utility.yul\":1036:1070   */\n  gt\n    /* \"#utility.yul\":1033:1095   */\n  or\n    /* \"#utility.yul\":1030:1118   */\n  iszero\n  tag_58\n  jumpi\n    /* \"#utility.yul\":1098:1116   */\n  tag_59\n  tag_16\n  jump\t// in\ntag_59:\n    /* \"#utility.yul\":1030:1118   */\ntag_58:\n    /* \"#utility.yul\":1138:1148   */\n  dup1\n    /* \"#utility.yul\":1134:1136   */\n  0x40\n    /* \"#utility.yul\":1127:1149   */\n  mstore\n    /* \"#utility.yul\":917:1155   */\n  pop\n    /* \"#utility.yul\":874:1155   */\n  pop\n  pop\n  jump\t// out\n    /* \"#utility.yul\":1161:1290   */\ntag_18:\n    /* \"#utility.yul\":1195:1201   */\n  0x00\n    /* \"#utility.yul\":1222:1242   */\n  tag_61\n  tag_10\n  jump\t// in\ntag_61:\n    /* \"#utility.yul\":1212:1242   */\n  swap1\n  pop\n    /* \"#utility.yul\":1251:1284   */\n  tag_62\n    /* \"#utility.yul\":1279:1283   */\n  dup3\n    /* \"#utility.yul\":1271:1277   */\n  dup3\n    /* \"#utility.yul\":1251:1284   */\n  tag_17\n  jump\t// in\ntag_62:\n    /* \"#utility.yul\":1161:1290   */\n  swap2\n  swap1\n  pop\n  jump\t// out\n    /* \"#utility.yul\":1296:1604   */\ntag_19:\n    /* \"#utility.yul\":1358:1362   */\n  0x00\n    /* \"#utility.yul\":1448:1466   */\n  0xffffffffffffffff\n    /* \"#utility.yul\":1440:1446   */\n  dup3\n    /* \"#utility.yul\":1437:1467   */\n  gt\n    /* \"#utility.yul\":1434:1490   */\n  iszero\n  tag_64\n  jumpi\n    /* \"#utility.yul\":1470:1488   */\n  tag_65\n  tag_16\n  jump\t// in\ntag_65:\n    /* \"#utility.yul\":1434:1490   */\ntag_64:\n    /* \"#utility.yul\":1508:1537   */\n  tag_66\n    /* \"#utility.yul\":1530:1536   */\n  dup3\n    /* \"#utility.yul\":1508:1537   */\n  tag_15\n  jump\t// in\ntag_66:\n    /* \"#utility.yul\":1500:1537   */\n  swap1\n  pop\n    /* \"#utility.yul\":1592:1596   */\n  0x20\n    /* \"#utility.yul\":1586:1590   */\n  dup2\n    /* \"#utility.yul\":1582:1597   */\n  add\n    /* \"#utility.yul\":1574:1597   */\n  swap1\n  pop\n    /* \"#utility.yul\":1296:1604   */\n  swap2\n  swap1\n  pop\n  jump\t// out\n    /* \"#utility.yul\":1610:1917   */\ntag_20:\n    /* \"#utility.yul\":1678:1679   */\n  0x00\n    /* \"#utility.yul\":1688:1801   */\ntag_68:\n    /* \"#utility.yul\":1702:1708   */\n  dup4\n    /* \"#utility.yul\":1699:1700   */\n  dup2\n    /* \"#utility.yul\":1696:1709   */\n  lt\n    /* \"#utility.yul\":1688:1801   */\n  iszero\n  tag_70\n  jumpi\n    /* \"#utility.yul\":1787:1788   */\n  dup1\n    /* \"#utility.yul\":1782:1785   */\n  dup3\n    /* \"#utility.yul\":1778:1789   */\n  add\n    /* \"#utility.yul\":1772:1790   */\n  mload\n    /* \"#utility.yul\":1768:1769   */\n  dup2\n    /* \"#utility.yul\":1763:1766   */\n  dup5\n    /* \"#utility.yul\":1759:1770   */\n  add\n    /* \"#utility.yul\":1752:1791   */\n  mstore\n    /* \"#utility.yul\":1724:1726   */\n  0x20\n    /* \"#utility.yul\":1721:1722   */\n  dup2\n    /* \"#utility.yul\":1717:1727   */\n  add\n    /* \"#utility.yul\":1712:1727   */\n  swap1\n  pop\n    /* \"#utility.yul\":1688:1801   */\n  jump(tag_68)\ntag_70:\n    /* \"#utility.yul\":1819:1825   */\n  dup4\n    /* \"#utility.yul\":1816:1817   */\n  dup2\n    /* \"#utility.yul\":1813:1826   */\n  gt\n    /* \"#utility.yul\":1810:1911   */\n  iszero\n  tag_71\n  jumpi\n    /* \"#utility.yul\":1899:1900   */\n  0x00\n    /* \"#utility.yul\":1890:1896   */\n  dup5\n    /* \"#utility.yul\":1885:1888   */\n  dup5\n    /* \"#utility.yul\":1881:1897   */\n  add\n    /* \"#utility.yul\":1874:1901   */\n  mstore\n    /* \"#utility.yul\":1810:1911   */\ntag_71:\n    /* \"#utility.yul\":1659:1917   */\n  pop\n    /* \"#utility.yul\":1610:1917   */\n  pop\n  pop\n  pop\n  jump\t// out\n    /* \"#utility.yul\":1923:2344   */\ntag_21:\n    /* \"#utility.yul\":2012:2017   */\n  0x00\n    /* \"#utility.yul\":2037:2103   */\n  tag_73\n    /* \"#utility.yul\":2053:2102   */\n  tag_74\n    /* \"#utility.yul\":2095:2101   */\n  dup5\n    /* \"#utility.yul\":2053:2102   */\n  tag_19\n  jump\t// in\ntag_74:\n    /* \"#utility.yul\":2037:2103   */\n  tag_18\n  jump\t// in\ntag_73:\n    /* \"#utility.yul\":2028:2103   */\n  swap1\n  pop\n    /* \"#utility.yul\":2126:2132   */\n  dup3\n    /* \"#utility.yul\":2119:2124   */\n  dup2\n    /* \"#utility.yul\":2112:2133   */\n  mstore\n    /* \"#utility.yul\":2164:2168   */\n  0x20\n    /* \"#utility.yul\":2157:2162   */\n  dup2\n    /* \"#utility.yul\":2153:2169   */\n  add\n    /* \"#utility.yul\":2202:2205   */\n  dup5\n    /* \"#utility.yul\":2193:2199   */\n  dup5\n    /* \"#utility.yul\":2188:2191   */\n  dup5\n    /* \"#utility.yul\":2184:2200   */\n  add\n    /* \"#utility.yul\":2181:2206   */\n  gt\n    /* \"#utility.yul\":2178:2290   */\n  iszero\n  tag_75\n  jumpi\n    /* \"#utility.yul\":2209:2288   */\n  tag_76\n  tag_14\n  jump\t// in\ntag_76:\n    /* \"#utility.yul\":2178:2290   */\ntag_75:\n    /* \"#utility.yul\":2299:2338   */\n  tag_77\n    /* \"#utility.yul\":2331:2337   */\n  dup5\n    /* \"#utility.yul\":2326:2329   */\n  dup3\n    /* \"#utility.yul\":2321:2324   */\n  dup6\n    /* \"#utility.yul\":2299:2338   */\n  tag_20\n  jump\t// in\ntag_77:\n    /* \"#utility.yul\":2018:2344   */\n  pop\n    /* \"#utility.yul\":1923:2344   */\n  swap4\n  swap3\n  pop\n  pop\n  pop\n  jump\t// out\n    /* \"#utility.yul\":2364:2719   */\ntag_22:\n    /* \"#utility.yul\":2431:2436   */\n  0x00\n    /* \"#utility.yul\":2480:2483   */\n  dup3\n    /* \"#utility.yul\":2473:2477   */\n  0x1f\n    /* \"#utility.yul\":2465:2471   */\n  dup4\n    /* \"#utility.yul\":2461:2478   */\n  add\n    /* \"#utility.yul\":2457:2484   */\n  slt\n    /* \"#utility.yul\":2447:2569   */\n  tag_79\n  jumpi\n    /* \"#utility.yul\":2488:2567   */\n  tag_80\n  tag_13\n  jump\t// in\ntag_80:\n    /* \"#utility.yul\":2447:2569   */\ntag_79:\n    /* \"#utility.yul\":2598:2604   */\n  dup2\n    /* \"#utility.yul\":2592:2605   */\n  mload\n    /* \"#utility.yul\":2623:2713   */\n  tag_81\n    /* \"#utility.yul\":2709:2712   */\n  dup5\n    /* \"#utility.yul\":2701:2707   */\n  dup3\n    /* \"#utility.yul\":2694:2698   */\n  0x20\n    /* \"#utility.yul\":2686:2692   */\n  dup7\n    /* \"#utility.yul\":2682:2699   */\n  add\n    /* \"#utility.yul\":2623:2713   */\n  tag_21\n  jump\t// in\ntag_81:\n    /* \"#utility.yul\":2614:2713   */\n  swap2\n  pop\n    /* \"#utility.yul\":2437:2719   */\n  pop\n    /* \"#utility.yul\":2364:2719   */\n  swap3\n  swap2\n  pop\n  pop\n  jump\t// out\n    /* \"#utility.yul\":2725:2802   */\ntag_23:\n    /* \"#utility.yul\":2762:2769   */\n  0x00\n    /* \"#utility.yul\":2791:2796   */\n  dup2\n    /* \"#utility.yul\":2780:2796   */\n  swap1\n  pop\n    /* \"#utility.yul\":2725:2802   */\n  swap2\n  swap1\n  pop\n  jump\t// out\n    /* \"#utility.yul\":2808:2930   */\ntag_24:\n    /* \"#utility.yul\":2881:2905   */\n  tag_84\n    /* \"#utility.yul\":2899:2904   */\n  dup2\n    /* \"#utility.yul\":2881:2905   */\n  tag_23\n  jump\t// in\ntag_84:\n    /* \"#utility.yul\":2874:2879   */\n  dup2\n    /* \"#utility.yul\":2871:2906   */\n  eq\n    /* \"#utility.yul\":2861:2924   */\n  tag_85\n  jumpi\n    /* \"#utility.yul\":2920:2921   */\n  0x00\n    /* \"#utility.yul\":2917:2918   */\n  dup1\n    /* \"#utility.yul\":2910:2922   */\n  revert\n    /* \"#utility.yul\":2861:2924   */\ntag_85:\n    /* \"#utility.yul\":2808:2930   */\n  pop\n  jump\t// out\n    /* \"#utility.yul\":2936:3079   */\ntag_25:\n    /* \"#utility.yul\":2993:2998   */\n  0x00\n    /* \"#utility.yul\":3024:3030   */\n  dup2\n    /* \"#utility.yul\":3018:3031   */\n  mload\n    /* \"#utility.yul\":3009:3031   */\n  swap1\n  pop\n    /* \"#utility.yul\":3040:3073   */\n  tag_87\n    /* \"#utility.yul\":3067:3072   */\n  dup2\n    /* \"#utility.yul\":3040:3073   */\n  tag_24\n  jump\t// in\ntag_87:\n    /* \"#utility.yul\":2936:3079   */\n  swap3\n  swap2\n  pop\n  pop\n  jump\t// out\n    /* \"#utility.yul\":3085:3211   */\ntag_26:\n    /* \"#utility.yul\":3122:3129   */\n  0x00\n    /* \"#utility.yul\":3162:3204   */\n  0xffffffffffffffffffffffffffffffffffffffff\n    /* \"#utility.yul\":3155:3160   */\n  dup3\n    /* \"#utility.yul\":3151:3205   */\n  and\n    /* \"#utility.yul\":3140:3205   */\n  swap1\n  pop\n    /* \"#utility.yul\":3085:3211   */\n  swap2\n  swap1\n  pop\n  jump\t// out\n    /* \"#utility.yul\":3217:3313   */\ntag_27:\n    /* \"#utility.yul\":3254:3261   */\n  0x00\n    /* \"#utility.yul\":3283:3307   */\n  tag_90\n    /* \"#utility.yul\":3301:3306   */\n  dup3\n    /* \"#utility.yul\":3283:3307   */\n  tag_26\n  jump\t// in\ntag_90:\n    /* \"#utility.yul\":3272:3307   */\n  swap1\n  pop\n    /* \"#utility.yul\":3217:3313   */\n  swap2\n  swap1\n  pop\n  jump\t// out\n    /* \"#utility.yul\":3319:3441   */\ntag_28:\n    /* \"#utility.yul\":3392:3416   */\n  tag_92\n    /* \"#utility.yul\":3410:3415   */\n  dup2\n    /* \"#utility.yul\":3392:3416   */\n  tag_27\n  jump\t// in\ntag_92:\n    /* \"#utility.yul\":3385:3390   */\n  dup2\n    /* \"#utility.yul\":3382:3417   */\n  eq\n    /* \"#utility.yul\":3372:3435   */\n  tag_93\n  jumpi\n    /* \"#utility.yul\":3431:3432   */\n  0x00\n    /* \"#utility.yul\":3428:3429   */\n  dup1\n    /* \"#utility.yul\":3421:3433   */\n  revert\n    /* \"#utility.yul\":3372:3435   */\ntag_93:\n    /* \"#utility.yul\":3319:3441   */\n  pop\n  jump\t// out\n    /* \"#utility.yul\":3447:3590   */\ntag_29:\n    /* \"#utility.yul\":3504:3509   */\n  0x00\n    /* \"#utility.yul\":3535:3541   */\n  dup2\n    /* \"#utility.yul\":3529:3542   */\n  mload\n    /* \"#utility.yul\":3520:3542   */\n  swap1\n  pop\n    /* \"#utility.yul\":3551:3584   */\n  tag_95\n    /* \"#utility.yul\":3578:3583   */\n  dup2\n    /* \"#utility.yul\":3551:3584   */\n  tag_28\n  jump\t// in\ntag_95:\n    /* \"#utility.yul\":3447:3590   */\n  swap3\n  swap2\n  pop\n  pop\n  jump\t// out\n    /* \"#utility.yul\":3596:4762   */\ntag_3:\n    /* \"#utility.yul\":3713:3719   */\n  0x00\n    /* \"#utility.yul\":3721:3727   */\n  dup1\n    /* \"#utility.yul\":3729:3735   */\n  0x00\n    /* \"#utility.yul\":3737:3743   */\n  dup1\n    /* \"#utility.yul\":3786:3789   */\n  0x80\n    /* \"#utility.yul\":3774:3783   */\n  dup6\n    /* \"#utility.yul\":3765:3772   */\n  dup8\n    /* \"#utility.yul\":3761:3784   */\n  sub\n    /* \"#utility.yul\":3757:3790   */\n  slt\n    /* \"#utility.yul\":3754:3874   */\n  iszero\n  tag_97\n  jumpi\n    /* \"#utility.yul\":3793:3872   */\n  tag_98\n  tag_11\n  jump\t// in\ntag_98:\n    /* \"#utility.yul\":3754:3874   */\ntag_97:\n    /* \"#utility.yul\":3934:3935   */\n  0x00\n    /* \"#utility.yul\":3923:3932   */\n  dup6\n    /* \"#utility.yul\":3919:3936   */\n  add\n    /* \"#utility.yul\":3913:3937   */\n  mload\n    /* \"#utility.yul\":3964:3982   */\n  0xffffffffffffffff\n    /* \"#utility.yul\":3956:3962   */\n  dup2\n    /* \"#utility.yul\":3953:3983   */\n  gt\n    /* \"#utility.yul\":3950:4067   */\n  iszero\n  tag_99\n  jumpi\n    /* \"#utility.yul\":3986:4065   */\n  tag_100\n  tag_12\n  jump\t// in\ntag_100:\n    /* \"#utility.yul\":3950:4067   */\ntag_99:\n    /* \"#utility.yul\":4091:4165   */\n  tag_101\n    /* \"#utility.yul\":4157:4164   */\n  dup8\n    /* \"#utility.yul\":4148:4154   */\n  dup3\n    /* \"#utility.yul\":4137:4146   */\n  dup9\n    /* \"#utility.yul\":4133:4155   */\n  add\n    /* \"#utility.yul\":4091:4165   */\n  tag_22\n  jump\t// in\ntag_101:\n    /* \"#utility.yul\":4081:4165   */\n  swap5\n  pop\n    /* \"#utility.yul\":3884:4175   */\n  pop\n    /* \"#utility.yul\":4214:4216   */\n  0x20\n    /* \"#utility.yul\":4240:4304   */\n  tag_102\n    /* \"#utility.yul\":4296:4303   */\n  dup8\n    /* \"#utility.yul\":4287:4293   */\n  dup3\n    /* \"#utility.yul\":4276:4285   */\n  dup9\n    /* \"#utility.yul\":4272:4294   */\n  add\n    /* \"#utility.yul\":4240:4304   */\n  tag_25\n  jump\t// in\ntag_102:\n    /* \"#utility.yul\":4230:4304   */\n  swap4\n  pop\n    /* \"#utility.yul\":4185:4314   */\n  pop\n    /* \"#utility.yul\":4353:4355   */\n  0x40\n    /* \"#utility.yul\":4379:4443   */\n  tag_103\n    /* \"#utility.yul\":4435:4442   */\n  dup8\n    /* \"#utility.yul\":4426:4432   */\n  dup3\n    /* \"#utility.yul\":4415:4424   */\n  dup9\n    /* \"#utility.yul\":4411:4433   */\n  add\n    /* \"#utility.yul\":4379:4443   */\n  tag_29\n  jump\t// in\ntag_103:\n    /* \"#utility.yul\":4369:4443   */\n  swap3\n  pop\n    /* \"#utility.yul\":4324:4453   */\n  pop\n    /* \"#utility.yul\":4513:4515   */\n  0x60\n    /* \"#utility.yul\":4502:4511   */\n  dup6\n    /* \"#utility.yul\":4498:4516   */\n  add\n    /* \"#utility.yul\":4492:4517   */\n  mload\n    /* \"#utility.yul\":4544:4562   */\n  0xffffffffffffffff\n    /* \"#utility.yul\":4536:4542   */\n  dup2\n    /* \"#utility.yul\":4533:4563   */\n  gt\n    /* \"#utility.yul\":4530:4647   */\n  iszero\n  tag_104\n  jumpi\n    /* \"#utility.yul\":4566:4645   */\n  tag_105\n  tag_12\n  jump\t// in\ntag_105:\n    /* \"#utility.yul\":4530:4647   */\ntag_104:\n    /* \"#utility.yul\":4671:4745   */\n  tag_106\n    /* \"#utility.yul\":4737:4744   */\n  dup8\n    /* \"#utility.yul\":4728:4734   */\n  dup3\n    /* \"#utility.yul\":4717:4726   */\n  dup9\n    /* \"#utility.yul\":4713:4735   */\n  add\n    /* \"#utility.yul\":4671:4745   */\n  tag_22\n  jump\t// in\ntag_106:\n    /* \"#utility.yul\":4661:4745   */\n  swap2\n  pop\n    /* \"#utility.yul\":4463:4755   */\n  pop\n    /* \"#utility.yul\":3596:4762   */\n  swap3\n  swap6\n  swap2\n  swap5\n  pop\n  swap3\n  pop\n  jump\t// out\n    /* \"#utility.yul\":4768:4867   */\ntag_30:\n    /* \"#utility.yul\":4820:4826   */\n  0x00\n    /* \"#utility.yul\":4854:4859   */\n  dup2\n    /* \"#utility.yul\":4848:4860   */\n  mload\n    /* \"#utility.yul\":4838:4860   */\n  swap1\n  pop\n    /* \"#utility.yul\":4768:4867   */\n  swap2\n  swap1\n  pop\n  jump\t// out\n    /* \"#utility.yul\":4873:5053   */\ntag_31:\n    /* \"#utility.yul\":4921:4998   */\n  0x4e487b7100000000000000000000000000000000000000000000000000000000\n    /* \"#utility.yul\":4918:4919   */\n  0x00\n    /* \"#utility.yul\":4911:4999   */\n  mstore\n    /* \"#utility.yul\":5018:5022   */\n  0x22\n    /* \"#utility.yul\":5015:5016   */\n  0x04\n    /* \"#utility.yul\":5008:5023   */\n  mstore\n    /* \"#utility.yul\":5042:5046   */\n  0x24\n    /* \"#utility.yul\":5039:5040   */\n  0x00\n    /* \"#utility.yul\":5032:5047   */\n  revert\n    /* \"#utility.yul\":5059:5379   */\ntag_32:\n    /* \"#utility.yul\":5103:5109   */\n  0x00\n    /* \"#utility.yul\":5140:5141   */\n  0x02\n    /* \"#utility.yul\":5134:5138   */\n  dup3\n    /* \"#utility.yul\":5130:5142   */\n  div\n    /* \"#utility.yul\":5120:5142   */\n  swap1\n  pop\n    /* \"#utility.yul\":5187:5188   */\n  0x01\n    /* \"#utility.yul\":5181:5185   */\n  dup3\n    /* \"#utility.yul\":5177:5189   */\n  and\n    /* \"#utility.yul\":5208:5226   */\n  dup1\n    /* \"#utility.yul\":5198:5279   */\n  tag_110\n  jumpi\n    /* \"#utility.yul\":5264:5268   */\n  0x7f\n    /* \"#utility.yul\":5256:5262   */\n  dup3\n    /* \"#utility.yul\":5252:5269   */\n  and\n    /* \"#utility.yul\":5242:5269   */\n  swap2\n  pop\n    /* \"#utility.yul\":5198:5279   */\ntag_110:\n    /* \"#utility.yul\":5326:5328   */\n  0x20\n    /* \"#utility.yul\":5318:5324   */\n  dup3\n    /* \"#utility.yul\":5315:5329   */\n  lt\n    /* \"#utility.yul\":5295:5313   */\n  dup2\n    /* \"#utility.yul\":5292:5330   */\n  sub\n    /* \"#utility.yul\":5289:5373   */\n  tag_111\n  jumpi\n    /* \"#utility.yul\":5345:5363   */\n  tag_112\n  tag_31\n  jump\t// in\ntag_112:\n    /* \"#utility.yul\":5289:5373   */\ntag_111:\n    /* \"#utility.yul\":5110:5379   */\n  pop\n    /* \"#utility.yul\":5059:5379   */\n  swap2\n  swap1\n  pop\n  jump\t// out\n    /* \"#utility.yul\":5385:5526   */\ntag_33:\n    /* \"#utility.yul\":5434:5438   */\n  0x00\n    /* \"#utility.yul\":5457:5460   */\n  dup2\n    /* \"#utility.yul\":5449:5460   */\n  swap1\n  pop\n    /* \"#utility.yul\":5480:5483   */\n  dup2\n    /* \"#utility.yul\":5477:5478   */\n  0x00\n    /* \"#utility.yul\":5470:5484   */\n  mstore\n    /* \"#utility.yul\":5514:5518   */\n  0x20\n    /* \"#utility.yul\":5511:5512   */\n  0x00\n    /* \"#utility.yul\":5501:5519   */\n  keccak256\n    /* \"#utility.yul\":5493:5519   */\n  swap1\n  pop\n    /* \"#utility.yul\":5385:5526   */\n  swap2\n  swap1\n  pop\n  jump\t// out\n    /* \"#utility.yul\":5532:5625   */\ntag_34:\n    /* \"#utility.yul\":5569:5575   */\n  0x00\n    /* \"#utility.yul\":5616:5618   */\n  0x20\n    /* \"#utility.yul\":5611:5613   */\n  0x1f\n    /* \"#utility.yul\":5604:5609   */\n  dup4\n    /* \"#utility.yul\":5600:5614   */\n  add\n    /* \"#utility.yul\":5596:5619   */\n  div\n    /* \"#utility.yul\":5586:5619   */\n  swap1\n  pop\n    /* \"#utility.yul\":5532:5625   */\n  swap2\n  swap1\n  pop\n  jump\t// out\n    /* \"#utility.yul\":5631:5738   */\ntag_35:\n    /* \"#utility.yul\":5675:5683   */\n  0x00\n    /* \"#utility.yul\":5725:5730   */\n  dup3\n    /* \"#utility.yul\":5719:5723   */\n  dup3\n    /* \"#utility.yul\":5715:5731   */\n  shl\n    /* \"#utility.yul\":5694:5731   */\n  swap1\n  pop\n    /* \"#utility.yul\":5631:5738   */\n  swap3\n  swap2\n  pop\n  pop\n  jump\t// out\n    /* \"#utility.yul\":5744:6137   */\ntag_36:\n    /* \"#utility.yul\":5813:5819   */\n  0x00\n    /* \"#utility.yul\":5863:5864   */\n  0x08\n    /* \"#utility.yul\":5851:5861   */\n  dup4\n    /* \"#utility.yul\":5847:5865   */\n  mul\n    /* \"#utility.yul\":5886:5983   */\n  tag_117\n    /* \"#utility.yul\":5916:5982   */\n  0xffffffffffffffffffffffffffffffffffffffffffffffffffffffffffffffff\n    /* \"#utility.yul\":5905:5914   */\n  dup3\n    /* \"#utility.yul\":5886:5983   */\n  tag_35\n  jump\t// in\ntag_117:\n    /* \"#utility.yul\":6004:6043   */\n  tag_118\n    /* \"#utility.yul\":6034:6042   */\n  dup7\n    /* \"#utility.yul\":6023:6032   */\n  dup4\n    /* \"#utility.yul\":6004:6043   */\n  tag_35\n  jump\t// in\ntag_118:\n    /* \"#utility.yul\":5992:6043   */\n  swap6\n  pop\n    /* \"#utility.yul\":6076:6080   */\n  dup1\n    /* \"#utility.yul\":6072:6081   */\n  not\n    /* \"#utility.yul\":6065:6070   */\n  dup5\n    /* \"#utility.yul\":6061:6082   */\n  and\n    /* \"#utility.yul\":6052:6082   */\n  swap4\n  pop\n    /* \"#utility.yul\":6125:6129   */\n  dup1\n    /* \"#utility.yul\":6115:6123   */\n  dup7\n    /* \"#utility.yul\":6111:6130   */\n  and\n    /* \"#utility.yul\":6104:6109   */\n  dup5\n    /* \"#utility.yul\":6101:6131   */\n  or\n    /* \"#utility.yul\":6091:6131   */\n  swap3\n  pop\n    /* \"#utility.yul\":5820:6137   */\n  pop\n  pop\n    /* \"#utility.yul\":5744:6137   */\n  swap4\n  swap3\n  pop\n  pop\n  pop\n  jump\t// out\n    /* \"#utility.yul\":6143:6203   */\ntag_37:\n    /* \"#utility.yul\":6171:6174   */\n  0x00\n    /* \"#utility.yul\":6192:6197   */\n  dup2\n    /* \"#utility.yul\":6185:6197   */\n  swap1\n  pop\n    /* \"#utility.yul\":6143:6203   */\n  swap2\n  swap1\n  pop\n  jump\t// out\n    /* \"#utility.yul\":6209:6351   */\ntag_38:\n    /* \"#utility.yul\":6259:6268   */\n  0x00\n    /* \"#utility.yul\":6292:6345   */\n  tag_121\n    /* \"#utility.yul\":6310:6344   */\n  tag_122\n    /* \"#utility.yul\":6319:6343   */\n  tag_123\n    /* \"#utility.yul\":6337:6342   */\n  dup5\n    /* \"#utility.yul\":6319:6343   */\n  tag_23\n  jump\t// in\ntag_123:\n    /* \"#utility.yul\":6310:6344   */\n  tag_37\n  jump\t// in\ntag_122:\n    /* \"#utility.yul\":6292:6345   */\n  tag_23\n  jump\t// in\ntag_121:\n    /* \"#utility.yul\":6279:6345   */\n  swap1\n  pop\n    /* \"#utility.yul\":6209:6351   */\n  swap2\n  swap1\n  pop\n  jump\t// out\n    /* \"#utility.yul\":6357:6432   */\ntag_39:\n    /* \"#utility.yul\":6400:6403   */\n  0x00\n    /* \"#utility.yul\":6421:6426   */\n  dup2\n    /* \"#utility.yul\":6414:6426   */\n  swap1\n  pop\n    /* \"#utility.yul\":6357:6432   */\n  swap2\n  swap1\n  pop\n  jump\t// out\n    /* \"#utility.yul\":6438:6707   */\ntag_40:\n    /* \"#utility.yul\":6548:6587   */\n  tag_126\n    /* \"#utility.yul\":6579:6586   */\n  dup4\n    /* \"#utility.yul\":6548:6587   */\n  tag_38\n  jump\t// in\ntag_126:\n    /* \"#utility.yul\":6609:6700   */\n  tag_127\n    /* \"#utility.yul\":6658:6699   */\n  tag_128\n    /* \"#utility.yul\":6682:6698   */\n  dup3\n    /* \"#utility.yul\":6658:6699   */\n  tag_39\n  jump\t// in\ntag_128:\n    /* \"#utility.yul\":6650:6656   */\n  dup5\n    /* \"#utility.yul\":6643:6647   */\n  dup5\n    /* \"#utility.yul\":6637:6648   */\n  sload\n    /* \"#utility.yul\":6609:6700   */\n  tag_36\n  jump\t// in\ntag_127:\n    /* \"#utility.yul\":6603:6607   */\n  dup3\n    /* \"#utility.yul\":6596:6701   */\n  sstore\n    /* \"#utility.yul\":6514:6707   */\n  pop\n    /* \"#utility.yul\":6438:6707   */\n  pop\n  pop\n  pop\n  jump\t// out\n    /* \"#utility.yul\":6713:6786   */\ntag_41:\n    /* \"#utility.yul\":6758:6761   */\n  0x00\n    /* \"#utility.yul\":6713:6786   */\n  swap1\n  jump\t// out\n    /* \"#utility.yul\":6792:6981   */\ntag_42:\n    /* \"#utility.yul\":6869:6901   */\n  tag_131\n  tag_41\n  jump\t// in\ntag_131:\n    /* \"#utility.yul\":6910:6975   */\n  tag_132\n    /* \"#utility.yul\":6968:6974   */\n  dup2\n    /* \"#utility.yul\":6960:6966   */\n  dup5\n    /* \"#utility.yul\":6954:6958   */\n  dup5\n    /* \"#utility.yul\":6910:6975   */\n  tag_40\n  jump\t// in\ntag_132:\n    /* \"#utility.yul\":6845:6981   */\n  pop\n    /* \"#utility.yul\":6792:6981   */\n  pop\n  pop\n  jump\t// out\n    /* \"#utility.yul\":6987:7173   */\ntag_43:\n    /* \"#utility.yul\":7047:7167   */\ntag_134:\n    /* \"#utility.yul\":7064:7067   */\n  dup2\n    /* \"#utility.yul\":7057:7062   */\n  dup2\n    /* \"#utility.yul\":7054:7068   */\n  lt\n    /* \"#utility.yul\":7047:7167   */\n  iszero\n  tag_136\n  jumpi\n    /* \"#utility.yul\":7118:7157   */\n  tag_137\n    /* \"#utility.yul\":7155:7156   */\n  0x00\n    /* \"#utility.yul\":7148:7153   */\n  dup3\n    /* \"#utility.yul\":7118:7157   */\n  tag_42\n  jump\t// in\ntag_137:\n    /* \"#utility.yul\":7091:7092   */\n  0x01\n    /* \"#utility.yul\":7084:7089   */\n  dup2\n    /* \"#utility.yul\":7080:7093   */\n  add\n    /* \"#utility.yul\":7071:7093   */\n  swap1\n  pop\n    /* \"#utility.yul\":7047:7167   */\n  jump(tag_134)\ntag_136:\n    /* \"#utility.yul\":6987:7173   */\n  pop\n  pop\n  jump\t// out\n    /* \"#utility.yul\":7179:7722   */\ntag_44:\n    /* \"#utility.yul\":7280:7282   */\n  0x1f\n    /* \"#utility.yul\":7275:7278   */\n  dup3\n    /* \"#utility.yul\":7272:7283   */\n  gt\n    /* \"#utility.yul\":7269:7715   */\n  iszero\n  tag_139\n  jumpi\n    /* \"#utility.yul\":7314:7352   */\n  tag_140\n    /* \"#utility.yul\":7346:7351   */\n  dup2\n    /* \"#utility.yul\":7314:7352   */\n  tag_33\n  jump\t// in\ntag_140:\n    /* \"#utility.yul\":7398:7427   */\n  tag_141\n    /* \"#utility.yul\":7416:7426   */\n  dup5\n    /* \"#utility.yul\":7398:7427   */\n  tag_34\n  jump\t// in\ntag_141:\n    /* \"#utility.yul\":7388:7396   */\n  dup2\n    /* \"#utility.yul\":7384:7428   */\n  add\n    /* \"#utility.yul\":7581:7583   */\n  0x20\n    /* \"#utility.yul\":7569:7579   */\n  dup6\n    /* \"#utility.yul\":7566:7584   */\n  lt\n    /* \"#utility.yul\":7563:7612   */\n  iszero\n  tag_142\n  jumpi\n    /* \"#utility.yul\":7602:7610   */\n  dup2\n    /* \"#utility.yul\":7587:7610   */\n  swap1\n  pop\n    /* \"#utility.yul\":7563:7612   */\ntag_142:\n    /* \"#utility.yul\":7625:7705   */\n  tag_143\n    /* \"#utility.yul\":7681:7703   */\n  tag_144\n    /* \"#utility.yul\":7699:7702   */\n  dup6\n    /* \"#utility.yul\":7681:7703   */\n  tag_34\n  jump\t// in\ntag_144:\n    /* \"#utility.yul\":7671:7679   */\n  dup4\n    /* \"#utility.yul\":7667:7704   */\n  add\n    /* \"#utility.yul\":7654:7665   */\n  dup3\n    /* \"#utility.yul\":7625:7705   */\n  tag_43\n  jump\t// in\ntag_143:\n    /* \"#utility.yul\":7284:7715   */\n  pop\n  pop\n    /* \"#utility.yul\":7269:7715   */\ntag_139:\n    /* \"#utility.yul\":7179:7722   */\n  pop\n  pop\n  pop\n  jump\t// out\n    /* \"#utility.yul\":7728:7845   */\ntag_45:\n    /* \"#utility.yul\":7782:7790   */\n  0x00\n    /* \"#utility.yul\":7832:7837   */\n  dup3\n    /* \"#utility.yul\":7826:7830   */\n  dup3\n    /* \"#utility.yul\":7822:7838   */\n  shr\n    /* \"#utility.yul\":7801:7838   */\n  swap1\n  pop\n    /* \"#utility.yul\":7728:7845   */\n  swap3\n  swap2\n  pop\n  pop\n  jump\t// out\n    /* \"#utility.yul\":7851:8020   */\ntag_46:\n    /* \"#utility.yul\":7895:7901   */\n  0x00\n    /* \"#utility.yul\":7928:7979   */\n  tag_147\n    /* \"#utility.yul\":7976:7977   */\n  0x00\n    /* \"#utility.yul\":7972:7978   */\n  not\n    /* \"#utility.yul\":7964:7969   */\n  dup5\n    /* \"#utility.yul\":7961:7962   */\n  0x08\n    /* \"#utility.yul\":7957:7970   */\n  mul\n    /* \"#utility.yul\":7928:7979   */\n  tag_45\n  jump\t// in\ntag_147:\n    /* \"#utility.yul\":7924:7980   */\n  not\n    /* \"#utility.yul\":8009:8013   */\n  dup1\n    /* \"#utility.yul\":8003:8007   */\n  dup4\n    /* \"#utility.yul\":7999:8014   */\n  and\n    /* \"#utility.yul\":7989:8014   */\n  swap2\n  pop\n    /* \"#utility.yul\":7902:8020   */\n  pop\n    /* \"#utility.yul\":7851:8020   */\n  swap3\n  swap2\n  pop\n  pop\n  jump\t// out\n    /* \"#utility.yul\":8025:8320   */\ntag_47:\n    /* \"#utility.yul\":8101:8105   */\n  0x00\n    /* \"#utility.yul\":8247:8276   */\n  tag_149\n    /* \"#utility.yul\":8272:8275   */\n  dup4\n    /* \"#utility.yul\":8266:8270   */\n  dup4\n    /* \"#utility.yul\":8247:8276   */\n  tag_46\n  jump\t// in\ntag_149:\n    /* \"#utility.yul\":8239:8276   */\n  swap2\n  pop\n    /* \"#utility.yul\":8309:8312   */\n  dup3\n    /* \"#utility.yul\":8306:8307   */\n  0x02\n    /* \"#utility.yul\":8302:8313   */\n  mul\n    /* \"#utility.yul\":8296:8300   */\n  dup3\n    /* \"#utility.yul\":8293:8314   */\n  or\n    /* \"#utility.yul\":8285:8314   */\n  swap1\n  pop\n    /* \"#utility.yul\":8025:8320   */\n  swap3\n  swap2\n  pop\n  pop\n  jump\t// out\n    /* \"#utility.yul\":8325:9720   */\ntag_7:\n    /* \"#utility.yul\":8442:8479   */\n  tag_151\n    /* \"#utility.yul\":8475:8478   */\n  dup3\n    /* \"#utility.yul\":8442:8479   */\n  tag_30\n  jump\t// in\ntag_151:\n    /* \"#utility.yul\":8544:8562   */\n  0xffffffffffffffff\n    /* \"#utility.yul\":8536:8542   */\n  dup2\n    /* \"#utility.yul\":8533:8563   */\n  gt\n    /* \"#utility.yul\":8530:8586   */\n  iszero\n  tag_152\n  jumpi\n    /* \"#utility.yul\":8566:8584   */\n  tag_153\n  tag_16\n  jump\t// in\ntag_153:\n    /* \"#utility.yul\":8530:8586   */\ntag_152:\n    /* \"#utility.yul\":8610:8648   */\n  tag_154\n    /* \"#utility.yul\":8642:8646   */\n  dup3\n    /* \"#utility.yul\":8636:8647   */\n  sload\n    /* \"#utility.yul\":8610:8648   */\n  tag_32\n  jump\t// in\ntag_154:\n    /* \"#utility.yul\":8695:8762   */\n  tag_155\n    /* \"#utility.yul\":8755:8761   */\n  dup3\n    /* \"#utility.yul\":8747:8753   */\n  dup3\n    /* \"#utility.yul\":8741:8745   */\n  dup6\n    /* \"#utility.yul\":8695:8762   */\n  tag_44\n  jump\t// in\ntag_155:\n    /* \"#utility.yul\":8789:8790   */\n  0x00\n    /* \"#utility.yul\":8813:8817   */\n  0x20\n    /* \"#utility.yul\":8800:8817   */\n  swap1\n  pop\n    /* \"#utility.yul\":8845:8847   */\n  0x1f\n    /* \"#utility.yul\":8837:8843   */\n  dup4\n    /* \"#utility.yul\":8834:8848   */\n  gt\n    /* \"#utility.yul\":8862:8863   */\n  0x01\n    /* \"#utility.yul\":8857:9475   */\n  dup2\n  eq\n  tag_157\n  jumpi\n    /* \"#utility.yul\":9519:9520   */\n  0x00\n    /* \"#utility.yul\":9536:9542   */\n  dup5\n    /* \"#utility.yul\":9533:9610   */\n  iszero\n  tag_158\n  jumpi\n    /* \"#utility.yul\":9585:9594   */\n  dup3\n    /* \"#utility.yul\":9580:9583   */\n  dup8\n    /* \"#utility.yul\":9576:9595   */\n  add\n    /* \"#utility.yul\":9570:9596   */\n  mload\n    /* \"#utility.yul\":9561:9596   */\n  swap1\n  pop\n    /* \"#utility.yul\":9533:9610   */\ntag_158:\n    /* \"#utility.yul\":9636:9703   */\n  tag_159\n    /* \"#utility.yul\":9696:9702   */\n  dup6\n    /* \"#utility.yul\":9689:9694   */\n  dup3\n    /* \"#utility.yul\":9636:9703   */\n  tag_47\n  jump\t// in\ntag_159:\n    /* \"#utility.yul\":9630:9634   */\n  dup7\n    /* \"#utility.yul\":9623:9704   */\n  sstore\n    /* \"#utility.yul\":9492:9714   */\n  pop\n    /* \"#utility.yul\":8827:9714   */\n  jump(tag_156)\n    /* \"#utility.yul\":8857:9475   */\ntag_157:\n    /* \"#utility.yul\":8909:8913   */\n  0x1f\n    /* \"#utility.yul\":8905:8914   */\n  not\n    /* \"#utility.yul\":8897:8903   */\n  dup5\n    /* \"#utility.yul\":8893:8915   */\n  and\n    /* \"#utility.yul\":8943:8980   */\n  tag_160\n    /* \"#utility.yul\":8975:8979   */\n  dup7\n    /* \"#utility.yul\":8943:8980   */\n  tag_33\n  jump\t// in\ntag_160:\n    /* \"#utility.yul\":9002:9003   */\n  0x00\n    /* \"#utility.yul\":9016:9224   */\ntag_161:\n    /* \"#utility.yul\":9030:9037   */\n  dup3\n    /* \"#utility.yul\":9027:9028   */\n  dup2\n    /* \"#utility.yul\":9024:9038   */\n  lt\n    /* \"#utility.yul\":9016:9224   */\n  iszero\n  tag_163\n  jumpi\n    /* \"#utility.yul\":9109:9118   */\n  dup5\n    /* \"#utility.yul\":9104:9107   */\n  dup10\n    /* \"#utility.yul\":9100:9119   */\n  add\n    /* \"#utility.yul\":9094:9120   */\n  mload\n    /* \"#utility.yul\":9086:9092   */\n  dup3\n    /* \"#utility.yul\":9079:9121   */\n  sstore\n    /* \"#utility.yul\":9160:9161   */\n  0x01\n    /* \"#utility.yul\":9152:9158   */\n  dup3\n    /* \"#utility.yul\":9148:9162   */\n  add\n    /* \"#utility.yul\":9138:9162   */\n  swap2\n  pop\n    /* \"#utility.yul\":9207:9209   */\n  0x20\n    /* \"#utility.yul\":9196:9205   */\n  dup6\n    /* \"#utility.yul\":9192:9210   */\n  add\n    /* \"#utility.yul\":9179:9210   */\n  swap5\n  pop\n    /* \"#utility.yul\":9053:9057   */\n  0x20\n    /* \"#utility.yul\":9050:9051   */\n  dup2\n    /* \"#utility.yul\":9046:9058   */\n  add\n    /* \"#utility.yul\":9041:9058   */\n  swap1\n  pop\n    /* \"#utility.yul\":9016:9224   */\n  jump(tag_161)\ntag_163:\n    /* \"#utility.yul\":9252:9258   */\n  dup7\n    /* \"#utility.yul\":9243:9250   */\n  dup4\n    /* \"#utility.yul\":9240:9259   */\n  lt\n    /* \"#utility.yul\":9237:9416   */\n  iszero\n  tag_164\n  jumpi\n    /* \"#utility.yul\":9310:9319   */\n  dup5\n    /* \"#utility.yul\":9305:9308   */\n  dup10\n    /* \"#utility.yul\":9301:9320   */\n  add\n    /* \"#utility.yul\":9295:9321   */\n  mload\n    /* \"#utility.yul\":9353:9401   */\n  tag_165\n    /* \"#utility.yul\":9395:9399   */\n  0x1f\n    /* \"#utility.yul\":9387:9393   */\n  dup10\n    /* \"#utility.yul\":9383:9400   */\n  and\n    /* \"#utility.yul\":9372:9381   */\n  dup3\n    /* \"#utility.yul\":9353:9401   */\n  tag_46\n  jump\t// in\ntag_165:\n    /* \"#utility.yul\":9345:9351   */\n  dup4\n    /* \"#utility.yul\":9338:9402   */\n  sstore\n    /* \"#utility.yul\":9260:9416   */\n  pop\n    /* \"#utility.yul\":9237:9416   */\ntag_164:\n    /* \"#utility.yul\":9462:9463   */\n  0x01\n    /* \"#utility.yul\":9458:9459   */\n  0x02\n    /* \"#utility.yul\":9450:9456   */\n  dup9\n    /* \"#utility.yul\":9446:9460   */\n  mul\n    /* \"#utility.yul\":9442:9464   */\n  add\n    /* \"#utility.yul\":9436:9440   */\n  dup9\n    /* \"#utility.yul\":9429:9465   */\n  sstore\n    /* \"#utility.yul\":8864:9475   */\n  pop\n  pop\n  pop\n    /* \"#utility.yul\":8827:9714   */\ntag_156:\n  pop\n    /* \"#utility.yul\":8417:9720   */\n  pop\n  pop\n  pop\n    /* \"#utility.yul\":8325:9720   */\n  pop\n  pop\n  jump\t// out\n    /* \"Campaign.sol\":582:2960  contract Campaign {... */\ntag_9:\n  dataSize(sub_0)\n  dup1\n  dataOffset(sub_0)\n  0x00\n  codecopy\n  0x00\n  return\nstop\n\nsub_0: assembly {\n        /* \"Campaign.sol\":582:2960  contract Campaign {... */\n      mstore(0x40, 0x80)\n      jumpi(tag_1, lt(calldatasize, 0x04))\n      shr(0xe0, calldataload(0x00))\n      dup1\n      0x5600f04f\n      gt\n      tag_15\n      jumpi\n      dup1\n      0x8a9cfd55\n      gt\n      tag_16\n      jumpi\n      dup1\n      0x8a9cfd55\n      eq\n      tag_11\n      jumpi\n      dup1\n      0x937e09b1\n      eq\n      tag_12\n      jumpi\n      dup1\n      0xd7bb99ba\n      eq\n      tag_13\n      jumpi\n      dup1\n      0xd7d1bbdb\n      eq\n      tag_14\n      jumpi\n      jump(tag_1)\n    tag_16:\n      dup1\n      0x5600f04f\n      eq\n      tag_8\n      jumpi\n      dup1\n      0x81d12c58\n      eq\n      tag_9\n      jumpi\n      dup1\n      0x82fde093\n      eq\n      tag_10\n      jumpi\n      jump(tag_1)\n    tag_15:\n      dup1\n      0x03441006\n      eq\n      tag_2\n      jumpi\n      dup1\n      0x0a144391\n      eq\n      tag_3\n      jumpi\n      dup1\n      0x3410452a\n      eq\n      tag_4\n      jumpi\n      dup1\n      0x4051ddac\n      eq\n      tag_5\n      jumpi\n      dup1\n      0x481c6a75\n      eq\n      tag_6\n      jumpi\n      dup1\n      0x4a79d50c\n      eq\n      tag_7\n      jumpi\n    tag_1:\n      0x00\n      dup1\n      revert\n        /* \"Campaign.sol\":2195:2502  function finalizeRequest(uint index) public restricted {... */\n    tag_2:\n      callvalue\n      dup1\n      iszero\n      tag_17\n      jumpi\n      0x00\n      dup1\n      revert\n    tag_17:\n      pop\n      tag_18\n      0x04\n      dup1\n      calldatasize\n      sub\n      dup2\n      add\n      swap1\n      tag_19\n      swap2\n      swap1\n      tag_20\n      jump\t// in\n    tag_19:\n      tag_21\n      jump\t// in\n    tag_18:\n      stop\n        /* \"Campaign.sol\":948:989  mapping(address => bool) public approvers */\n    tag_3:\n      callvalue\n      dup1\n      iszero\n      tag_22\n      jumpi\n      0x00\n      dup1\n      revert\n    tag_22:\n      pop\n      tag_23\n      0x04\n      dup1\n      calldatasize\n      sub\n      dup2\n      add\n      swap1\n      tag_24\n      swap2\n      swap1\n      tag_25\n      jump\t// in\n    tag_24:\n      tag_26\n      jump\t// in\n    tag_23:\n      mload(0x40)\n      tag_27\n      swap2\n      swap1\n      tag_28\n      jump\t// in\n    tag_27:\n      mload(0x40)\n      dup1\n      swap2\n      sub\n      swap1\n      return\n        /* \"Campaign.sol\":2864:2958  function getRequestsCount() public view returns (uint) {... */\n    tag_4:\n      callvalue\n      dup1\n      iszero\n      tag_29\n      jumpi\n      0x00\n      dup1\n      revert\n    tag_29:\n      pop\n      tag_30\n      tag_31\n      jump\t// in\n    tag_30:\n      mload(0x40)\n      tag_32\n      swap2\n      swap1\n      tag_33\n      jump\t// in\n    tag_32:\n      mload(0x40)\n      dup1\n      swap2\n      sub\n      swap1\n      return\n        /* \"Campaign.sol\":2508:2858  function getSummary()... */\n    tag_5:\n      callvalue\n      dup1\n      iszero\n      tag_34\n      jumpi\n      0x00\n      dup1\n      revert\n    tag_34:\n      pop\n      tag_35\n      tag_36\n      jump\t// in\n    tag_35:\n      mload(0x40)\n      tag_37\n      swap8\n      swap7\n      swap6\n      swap5\n      swap4\n      swap3\n      swap2\n      swap1\n      tag_38\n      jump\t// in\n    tag_37:\n      mload(0x40)\n      dup1\n      swap2\n      sub\n      swap1\n      return\n        /* \"Campaign.sol\":835:857  address public manager */\n    tag_6:\n      callvalue\n      dup1\n      iszero\n      tag_39\n      jumpi\n      0x00\n      dup1\n      revert\n    tag_39:\n      pop\n      tag_40\n      tag_41\n      jump\t// in\n    tag_40:\n      mload(0x40)\n      tag_42\n      swap2\n      swap1\n      tag_43\n      jump\t// in\n    tag_42:\n      mload(0x40)\n      dup1\n      swap2\n      sub\n      swap1\n      return\n        /* \"Campaign.sol\":863:882  string public title */\n    tag_7:\n      callvalue\n      dup1\n      iszero\n      tag_44\n      jumpi\n      0x00\n      dup1\n      revert\n    tag_44:\n      pop\n      tag_45\n      tag_46\n      jump\t// in\n    tag_45:\n      mload(0x40)\n      tag_47\n      swap2\n      swap1\n      tag_48\n      jump\t// in\n    tag_47:\n      mload(0x40)\n      dup1\n      swap2\n      sub\n      swap1\n      return\n        /* \"Campaign.sol\":888:905  string public url */\n    tag_8:\n      callvalue\n      dup1\n      iszero\n      tag_49\n      jumpi\n      0x00\n      dup1\n      revert\n    tag_49:\n      pop\n      tag_50\n      tag_51\n      jump\t// in\n    tag_50:\n      mload(0x40)\n      tag_52\n      swap2\n      swap1\n      tag_48\n      jump\t// in\n    tag_52:\n      mload(0x40)\n      dup1\n      swap2\n      sub\n      swap1\n      return\n        /* \"Campaign.sol\":804:829  Request[] public requests */\n    tag_9:\n      callvalue\n      dup1\n      iszero\n      tag_53\n      jumpi\n      0x00\n      dup1\n      revert\n    tag_53:\n      pop\n      tag_54\n      0x04\n      dup1\n      calldatasize\n      sub\n      dup2\n      add\n      swap1\n      tag_55\n      swap2\n      swap1\n      tag_20\n      jump\t// in\n    tag_55:\n      tag_56\n      jump\t// in\n    tag_54:\n      mload(0x40)\n      tag_57\n      swap6\n      swap5\n      swap4\n      swap3\n      swap2\n      swap1\n      tag_58\n      jump\t// in\n    tag_57:\n      mload(0x40)\n      dup1\n      swap2\n      sub\n      swap1\n      return\n        /* \"Campaign.sol\":995:1021  uint public approversCount */\n    tag_10:\n      callvalue\n      dup1\n      iszero\n      tag_59\n      jumpi\n      0x00\n      dup1\n      revert\n    tag_59:\n      pop\n      tag_60\n      tag_61\n      jump\t// in\n    tag_60:\n      mload(0x40)\n      tag_62\n      swap2\n      swap1\n      tag_33\n      jump\t// in\n    tag_62:\n      mload(0x40)\n      dup1\n      swap2\n      sub\n      swap1\n      return\n        /* \"Campaign.sol\":1525:1912  function createRequest(... */\n    tag_11:\n      callvalue\n      dup1\n      iszero\n      tag_63\n      jumpi\n      0x00\n      dup1\n      revert\n    tag_63:\n      pop\n      tag_64\n      0x04\n      dup1\n      calldatasize\n      sub\n      dup2\n      add\n      swap1\n      tag_65\n      swap2\n      swap1\n      tag_66\n      jump\t// in\n    tag_65:\n      tag_67\n      jump\t// in\n    tag_64:\n      stop\n        /* \"Campaign.sol\":911:942  uint public minimumContribution */\n    tag_12:\n      callvalue\n      dup1\n      iszero\n      tag_68\n      jumpi\n      0x00\n      dup1\n      revert\n    tag_68:\n      pop\n      tag_69\n      tag_70\n      jump\t// in\n    tag_69:\n      mload(0x40)\n      tag_71\n      swap2\n      swap1\n      tag_33\n      jump\t// in\n    tag_71:\n      mload(0x40)\n      dup1\n      swap2\n      sub\n      swap1\n      return\n        /* \"Campaign.sol\":1360:1519  function contribute() public payable {... */\n    tag_13:\n      tag_72\n      tag_73\n      jump\t// in\n    tag_72:\n      stop\n        /* \"Campaign.sol\":1918:2189  function approveRequest(uint index) public {... */\n    tag_14:\n      callvalue\n      dup1\n      iszero\n      tag_74\n      jumpi\n      0x00\n      dup1\n      revert\n    tag_74:\n      pop\n      tag_75\n      0x04\n      dup1\n      calldatasize\n      sub\n      dup2\n      add\n      swap1\n      tag_76\n      swap2\n      swap1\n      tag_20\n      jump\t// in\n    tag_76:\n      tag_77\n      jump\t// in\n    tag_75:\n      stop\n        /* \"Campaign.sol\":2195:2502  function finalizeRequest(uint index) public restricted {... */\n    tag_21:\n        /* \"Campaign.sol\":1082:1089  manager */\n      0x01\n      0x00\n      swap1\n      sload\n      swap1\n      0x0100\n      exp\n      swap1\n      div\n      0xffffffffffffffffffffffffffffffffffffffff\n      and\n        /* \"Campaign.sol\":1068:1089  msg.sender == manager */\n      0xffffffffffffffffffffffffffffffffffffffff\n      and\n        /* \"Campaign.sol\":1068:1078  msg.sender */\n      caller\n        /* \"Campaign.sol\":1068:1089  msg.sender == manager */\n      0xffffffffffffffffffffffffffffffffffffffff\n      and\n      eq\n        /* \"Campaign.sol\":1060:1090  require(msg.sender == manager) */\n      tag_79\n      jumpi\n      0x00\n      dup1\n      revert\n    tag_79:\n        /* \"Campaign.sol\":2260:2283  Request storage request */\n      0x00\n        /* \"Campaign.sol\":2286:2294  requests */\n      dup1\n        /* \"Campaign.sol\":2295:2300  index */\n      dup3\n        /* \"Campaign.sol\":2286:2301  requests[index] */\n      dup2\n      sload\n      dup2\n      lt\n      tag_81\n      jumpi\n      tag_82\n      tag_83\n      jump\t// in\n    tag_82:\n    tag_81:\n      swap1\n      0x00\n      mstore\n      keccak256(0x00, 0x20)\n      swap1\n      0x05\n      mul\n      add\n        /* \"Campaign.sol\":2260:2301  Request storage request = requests[index] */\n      swap1\n      pop\n        /* \"Campaign.sol\":2362:2363  2 */\n      0x02\n        /* \"Campaign.sol\":2345:2359  approversCount */\n      sload(0x06)\n        /* \"Campaign.sol\":2345:2363  approversCount / 2 */\n      tag_85\n      swap2\n      swap1\n      tag_86\n      jump\t// in\n    tag_85:\n        /* \"Campaign.sol\":2320:2327  request */\n      dup2\n        /* \"Campaign.sol\":2320:2341  request.approvalCount */\n      0x03\n      add\n      sload\n        /* \"Campaign.sol\":2320:2364  request.approvalCount > (approversCount / 2) */\n      gt\n        /* \"Campaign.sol\":2312:2365  require(request.approvalCount > (approversCount / 2)) */\n      tag_87\n      jumpi\n      0x00\n      dup1\n      revert\n    tag_87:\n        /* \"Campaign.sol\":2384:2391  request */\n      dup1\n        /* \"Campaign.sol\":2384:2400  request.complete */\n      0x02\n      add\n      0x14\n      swap1\n      sload\n      swap1\n      0x0100\n      exp\n      swap1\n      div\n      0xff\n      and\n        /* \"Campaign.sol\":2383:2400  !request.complete */\n      iszero\n        /* \"Campaign.sol\":2375:2401  require(!request.complete) */\n      tag_88\n      jumpi\n      0x00\n      dup1\n      revert\n    tag_88:\n        /* \"Campaign.sol\":2420:2427  request */\n      dup1\n        /* \"Campaign.sol\":2420:2437  request.recipient */\n      0x02\n      add\n      0x00\n      swap1\n      sload\n      swap1\n      0x0100\n      exp\n      swap1\n      div\n      0xffffffffffffffffffffffffffffffffffffffff\n      and\n        /* \"Campaign.sol\":2412:2447  payable(request.recipient).transfer */\n      0xffffffffffffffffffffffffffffffffffffffff\n      and\n        /* \"Campaign.sol\":2412:2462  payable(request.recipient).transfer(request.value) */\n      0x08fc\n        /* \"Campaign.sol\":2448:2455  request */\n      dup3\n        /* \"Campaign.sol\":2448:2461  request.value */\n      0x01\n      add\n      sload\n        /* \"Campaign.sol\":2412:2462  payable(request.recipient).transfer(request.value) */\n      swap1\n      dup2\n      iszero\n      mul\n      swap1\n      mload(0x40)\n      0x00\n      mload(0x40)\n      dup1\n      dup4\n      sub\n      dup2\n      dup6\n      dup9\n      dup9\n      call\n      swap4\n      pop\n      pop\n      pop\n      pop\n      iszero\n      dup1\n      iszero\n      tag_90\n      jumpi\n      returndatasize\n      0x00\n      dup1\n      returndatacopy\n      revert(0x00, returndatasize)\n    tag_90:\n      pop\n        /* \"Campaign.sol\":2491:2495  true */\n      0x01\n        /* \"Campaign.sol\":2472:2479  request */\n      dup2\n        /* \"Campaign.sol\":2472:2488  request.complete */\n      0x02\n      add\n      0x14\n        /* \"Campaign.sol\":2472:2495  request.complete = true */\n      0x0100\n      exp\n      dup2\n      sload\n      dup2\n      0xff\n      mul\n      not\n      and\n      swap1\n      dup4\n      iszero\n      iszero\n      mul\n      or\n      swap1\n      sstore\n      pop\n        /* \"Campaign.sol\":2250:2502  {... */\n      pop\n        /* \"Campaign.sol\":2195:2502  function finalizeRequest(uint index) public restricted {... */\n      pop\n      jump\t// out\n        /* \"Campaign.sol\":948:989  mapping(address => bool) public approvers */\n    tag_26:\n      mstore(0x20, 0x05)\n      dup1\n      0x00\n      mstore\n      keccak256(0x00, 0x40)\n      0x00\n      swap2\n      pop\n      sload\n      swap1\n      0x0100\n      exp\n      swap1\n      div\n      0xff\n      and\n      dup2\n      jump\t// out\n        /* \"Campaign.sol\":2864:2958  function getRequestsCount() public view returns (uint) {... */\n    tag_31:\n        /* \"Campaign.sol\":2913:2917  uint */\n      0x00\n        /* \"Campaign.sol\":2936:2944  requests */\n      dup1\n        /* \"Campaign.sol\":2936:2951  requests.length */\n      dup1\n      sload\n      swap1\n      pop\n        /* \"Campaign.sol\":2929:2951  return requests.length */\n      swap1\n      pop\n        /* \"Campaign.sol\":2864:2958  function getRequestsCount() public view returns (uint) {... */\n      swap1\n      jump\t// out\n        /* \"Campaign.sol\":2508:2858  function getSummary()... */\n    tag_36:\n        /* \"Campaign.sol\":2575:2579  uint */\n      0x00\n        /* \"Campaign.sol\":2581:2585  uint */\n      dup1\n        /* \"Campaign.sol\":2587:2591  uint */\n      0x00\n        /* \"Campaign.sol\":2593:2597  uint */\n      dup1\n        /* \"Campaign.sol\":2599:2606  address */\n      0x00\n        /* \"Campaign.sol\":2608:2621  string memory */\n      0x60\n        /* \"Campaign.sol\":2623:2636  string memory */\n      dup1\n        /* \"Campaign.sol\":2673:2692  minimumContribution */\n      sload(0x04)\n        /* \"Campaign.sol\":2706:2727  address(this).balance */\n      selfbalance\n        /* \"Campaign.sol\":2741:2749  requests */\n      0x00\n        /* \"Campaign.sol\":2741:2756  requests.length */\n      dup1\n      sload\n      swap1\n      pop\n        /* \"Campaign.sol\":2770:2784  approversCount */\n      sload(0x06)\n        /* \"Campaign.sol\":2798:2805  manager */\n      0x01\n      0x00\n      swap1\n      sload\n      swap1\n      0x0100\n      exp\n      swap1\n      div\n      0xffffffffffffffffffffffffffffffffffffffff\n      and\n        /* \"Campaign.sol\":2819:2824  title */\n      0x02\n        /* \"Campaign.sol\":2838:2841  url */\n      0x03\n        /* \"Campaign.sol\":2652:2851  return (... */\n      dup2\n      dup1\n      sload\n      tag_93\n      swap1\n      tag_94\n      jump\t// in\n    tag_93:\n      dup1\n      0x1f\n      add\n      0x20\n      dup1\n      swap2\n      div\n      mul\n      0x20\n      add\n      mload(0x40)\n      swap1\n      dup2\n      add\n      0x40\n      mstore\n      dup1\n      swap3\n      swap2\n      swap1\n      dup2\n      dup2\n      mstore\n      0x20\n      add\n      dup3\n      dup1\n      sload\n      tag_95\n      swap1\n      tag_94\n      jump\t// in\n    tag_95:\n      dup1\n      iszero\n      tag_96\n      jumpi\n      dup1\n      0x1f\n      lt\n      tag_97\n      jumpi\n      0x0100\n      dup1\n      dup4\n      sload\n      div\n      mul\n      dup4\n      mstore\n      swap2\n      0x20\n      add\n      swap2\n      jump(tag_96)\n    tag_97:\n      dup3\n      add\n      swap2\n      swap1\n      0x00\n      mstore\n      keccak256(0x00, 0x20)\n      swap1\n    tag_98:\n      dup2\n      sload\n      dup2\n      mstore\n      swap1\n      0x01\n      add\n      swap1\n      0x20\n      add\n      dup1\n      dup4\n      gt\n      tag_98\n      jumpi\n      dup3\n      swap1\n      sub\n      0x1f\n      and\n      dup3\n      add\n      swap2\n    tag_96:\n      pop\n      pop\n      pop\n      pop\n      pop\n      swap2\n      pop\n      dup1\n      dup1\n      sload\n      tag_99\n      swap1\n      tag_94\n      jump\t// in\n    tag_99:\n      dup1\n      0x1f\n      add\n      0x20\n      dup1\n      swap2\n      div\n      mul\n      0x20\n      add\n      mload(0x40)\n      swap1\n      dup2\n      add\n      0x40\n      mstore\n      dup1\n      swap3\n      swap2\n      swap1\n      dup2\n      dup2\n      mstore\n      0x20\n      add\n      dup3\n      dup1\n      sload\n      tag_100\n      swap1\n      tag_94\n      jump\t// in\n    tag_100:\n      dup1\n      iszero\n      tag_101\n      jumpi\n      dup1\n      0x1f\n      lt\n      tag_102\n      jumpi\n      0x0100\n      dup1\n      dup4\n      sload\n      div\n      mul\n      dup4\n      mstore\n      swap2\n      0x20\n      add\n      swap2\n      jump(tag_101)\n    tag_102:\n      dup3\n      add\n      swap2\n      swap1\n      0x00\n      mstore\n      keccak256(0x00, 0x20)\n      swap1\n    tag_103:\n      dup2\n      sload\n      dup2\n      mstore\n      swap1\n      0x01\n      add\n      swap1\n      0x20\n      add\n      dup1\n      dup4\n      gt\n      tag_103\n      jumpi\n      dup3\n      swap1\n      sub\n      0x1f\n      and\n      dup3\n      add\n      swap2\n    tag_101:\n      pop\n      pop\n      pop\n      pop\n      pop\n      swap1\n      pop\n      swap7\n      pop\n      swap7\n      pop\n      swap7\n      pop\n      swap7\n      pop\n      swap7\n      pop\n      swap7\n      pop\n      swap7\n      pop\n        /* \"Campaign.sol\":2508:2858  function getSummary()... */\n      swap1\n      swap2\n      swap3\n      swap4\n      swap5\n      swap6\n      swap7\n      jump\t// out\n        /* \"Campaign.sol\":835:857  address public manager */\n    tag_41:\n      0x01\n      0x00\n      swap1\n      sload\n      swap1\n      0x0100\n      exp\n      swap1\n      div\n      0xffffffffffffffffffffffffffffffffffffffff\n      and\n      dup2\n      jump\t// out\n        /* \"Campaign.sol\":863:882  string public title */\n    tag_46:\n      0x02\n      dup1\n      sload\n      tag_104\n      swap1\n      tag_94\n      jump\t// in\n    tag_104:\n      dup1\n      0x1f\n      add\n      0x20\n      dup1\n      swap2\n      div\n      mul\n      0x20\n      add\n      mload(0x40)\n      swap1\n      dup2\n      add\n      0x40\n      mstore\n      dup1\n      swap3\n      swap2\n      swap1\n      dup2\n      dup2\n      mstore\n      0x20\n      add\n      dup3\n      dup1\n      sload\n      tag_105\n      swap1\n      tag_94\n      jump\t// in\n    tag_105:\n      dup1\n      iszero\n      tag_106\n      jumpi\n      dup1\n      0x1f\n      lt\n      tag_107\n      jumpi\n      0x0100\n      dup1\n      dup4\n      sload\n      div\n      mul\n      dup4\n      mstore\n      swap2\n      0x20\n      add\n      swap2\n      jump(tag_106)\n    tag_107:\n      dup3\n      add\n      swap2\n      swap1\n      0x00\n      mstore\n      keccak256(0x00, 0x20)\n      swap1\n    tag_108:\n      dup2\n      sload\n      dup2\n      mstore\n      swap1\n      0x01\n      add\n      swap1\n      0x20\n      add\n      dup1\n      dup4\n      gt\n      tag_108\n      jumpi\n      dup3\n      swap1\n      sub\n      0x1f\n      and\n      dup3\n      add\n      swap2\n    tag_106:\n      pop\n      pop\n      pop\n      pop\n      pop\n      dup2\n      jump\t// out\n        /* \"Campaign.sol\":888:905  string public url */\n    tag_51:\n      0x03\n      dup1\n      sload\n      tag_109\n      swap1\n      tag_94\n      jump\t// in\n    tag_109:\n      dup1\n      0x1f\n      add\n      0x20\n      dup1\n      swap2\n      div\n      mul\n      0x20\n      add\n      mload(0x40)\n      swap1\n      dup2\n      add\n      0x40\n      mstore\n      dup1\n      swap3\n      swap2\n      swap1\n      dup2\n      dup2\n      mstore\n      0x20\n      add\n      dup3\n      dup1\n      sload\n      tag_110\n      swap1\n      tag_94\n      jump\t// in\n    tag_110:\n      dup1\n      iszero\n      tag_111\n      jumpi\n      dup1\n      0x1f\n      lt\n      tag_112\n      jumpi\n      0x0100\n      dup1\n      dup4\n      sload\n      div\n      mul\n      dup4\n      mstore\n      swap2\n      0x20\n      add\n      swap2\n      jump(tag_111)\n    tag_112:\n      dup3\n      add\n      swap2\n      swap1\n      0x00\n      mstore\n      keccak256(0x00, 0x20)\n      swap1\n    tag_113:\n      dup2\n      sload\n      dup2\n      mstore\n      swap1\n      0x01\n      add\n      swap1\n      0x20\n      add\n      dup1\n      dup4\n      gt\n      tag_113\n      jumpi\n      dup3\n      swap1\n      sub\n      0x1f\n      and\n      dup3\n      add\n      swap2\n    tag_111:\n      pop\n      pop\n      pop\n      pop\n      pop\n      dup2\n      jump\t// out\n        /* \"Campaign.sol\":804:829  Request[] public requests */\n    tag_56:\n      0x00\n      dup2\n      dup2\n      sload\n      dup2\n      lt\n      tag_114\n      jumpi\n      0x00\n      dup1\n      revert\n    tag_114:\n      swap1\n      0x00\n      mstore\n      keccak256(0x00, 0x20)\n      swap1\n      0x05\n      mul\n      add\n      0x00\n      swap2\n      pop\n      swap1\n      pop\n      dup1\n      0x00\n      add\n      dup1\n      sload\n      tag_116\n      swap1\n      tag_94\n      jump\t// in\n    tag_116:\n      dup1\n      0x1f\n      add\n      0x20\n      dup1\n      swap2\n      div\n      mul\n      0x20\n      add\n      mload(0x40)\n      swap1\n      dup2\n      add\n      0x40\n      mstore\n      dup1\n      swap3\n      swap2\n      swap1\n      dup2\n      dup2\n      mstore\n      0x20\n      add\n      dup3\n      dup1\n      sload\n      tag_117\n      swap1\n      tag_94\n      jump\t// in\n    tag_117:\n      dup1\n      iszero\n      tag_118\n      jumpi\n      dup1\n      0x1f\n      lt\n      tag_119\n      jumpi\n      0x0100\n      dup1\n      dup4\n      sload\n      div\n      mul\n      dup4\n      mstore\n      swap2\n      0x20\n      add\n      swap2\n      jump(tag_118)\n    tag_119:\n      dup3\n      add\n      swap2\n      swap1\n      0x00\n      mstore\n      keccak256(0x00, 0x20)\n      swap1\n    tag_120:\n      dup2\n      sload\n      dup2\n      mstore\n      swap1\n      0x01\n      add\n      swap1\n      0x20\n      add\n      dup1\n      dup4\n      gt\n      tag_120\n      jumpi\n      dup3\n      swap1\n      sub\n      0x1f\n      and\n      dup3\n      add\n      swap2\n    tag_118:\n      pop\n      pop\n      pop\n      pop\n      pop\n      swap1\n      dup1\n      0x01\n      add\n      sload\n      swap1\n      dup1\n      0x02\n      add\n      0x00\n      swap1\n      sload\n      swap1\n      0x0100\n      exp\n      swap1\n      div\n      0xffffffffffffffffffffffffffffffffffffffff\n      and\n      swap1\n      dup1\n      0x02\n      add\n      0x14\n      swap1\n      sload\n      swap1\n      0x0100\n      exp\n      swap1\n      div\n      0xff\n      and\n      swap1\n      dup1\n      0x03\n      add\n      sload\n      swap1\n      pop\n      dup6\n      jump\t// out\n        /* \"Campaign.sol\":995:1021  uint public approversCount */\n    tag_61:\n      sload(0x06)\n      dup2\n      jump\t// out\n        /* \"Campaign.sol\":1525:1912  function createRequest(... */\n    tag_67:\n        /* \"Campaign.sol\":1082:1089  manager */\n      0x01\n      0x00\n      swap1\n      sload\n      swap1\n      0x0100\n      exp\n      swap1\n      div\n      0xffffffffffffffffffffffffffffffffffffffff\n      and\n        /* \"Campaign.sol\":1068:1089  msg.sender == manager */\n      0xffffffffffffffffffffffffffffffffffffffff\n      and\n        /* \"Campaign.sol\":1068:1078  msg.sender */\n      caller\n        /* \"Campaign.sol\":1068:1089  msg.sender == manager */\n      0xffffffffffffffffffffffffffffffffffffffff\n      and\n      eq\n        /* \"Campaign.sol\":1060:1090  require(msg.sender == manager) */\n      tag_122\n      jumpi\n      0x00\n      dup1\n      revert\n    tag_122:\n        /* \"Campaign.sol\":1664:1690  Request storage newRequest */\n      0x00\n        /* \"Campaign.sol\":1693:1701  requests */\n      dup1\n        /* \"Campaign.sol\":1693:1708  requests.push() */\n      0x01\n      dup2\n      0x01\n      dup2\n      sload\n      add\n      dup1\n      dup3\n      sstore\n      dup1\n      swap2\n      pop\n      pop\n      sub\n      swap1\n      0x00\n      mstore\n      keccak256(0x00, 0x20)\n      swap1\n      0x05\n      mul\n      add\n        /* \"Campaign.sol\":1664:1708  Request storage newRequest = requests.push() */\n      swap1\n      pop\n        /* \"Campaign.sol\":1743:1754  description */\n      dup4\n        /* \"Campaign.sol\":1718:1728  newRequest */\n      dup2\n        /* \"Campaign.sol\":1718:1740  newRequest.description */\n      0x00\n      add\n        /* \"Campaign.sol\":1718:1754  newRequest.description = description */\n      swap1\n      dup2\n      tag_125\n      swap2\n      swap1\n      tag_126\n      jump\t// in\n    tag_125:\n      pop\n        /* \"Campaign.sol\":1783:1788  value */\n      dup3\n        /* \"Campaign.sol\":1764:1774  newRequest */\n      dup2\n        /* \"Campaign.sol\":1764:1780  newRequest.value */\n      0x01\n      add\n        /* \"Campaign.sol\":1764:1788  newRequest.value = value */\n      dup2\n      swap1\n      sstore\n      pop\n        /* \"Campaign.sol\":1821:1830  recipient */\n      dup2\n        /* \"Campaign.sol\":1798:1808  newRequest */\n      dup2\n        /* \"Campaign.sol\":1798:1818  newRequest.recipient */\n      0x02\n      add\n      0x00\n        /* \"Campaign.sol\":1798:1830  newRequest.recipient = recipient */\n      0x0100\n      exp\n      dup2\n      sload\n      dup2\n      0xffffffffffffffffffffffffffffffffffffffff\n      mul\n      not\n      and\n      swap1\n      dup4\n      0xffffffffffffffffffffffffffffffffffffffff\n      and\n      mul\n      or\n      swap1\n      sstore\n      pop\n        /* \"Campaign.sol\":1862:1867  false */\n      0x00\n        /* \"Campaign.sol\":1840:1850  newRequest */\n      dup2\n        /* \"Campaign.sol\":1840:1859  newRequest.complete */\n      0x02\n      add\n      0x14\n        /* \"Campaign.sol\":1840:1867  newRequest.complete = false */\n      0x0100\n      exp\n      dup2\n      sload\n      dup2\n      0xff\n      mul\n      not\n      and\n      swap1\n      dup4\n      iszero\n      iszero\n      mul\n      or\n      swap1\n      sstore\n      pop\n        /* \"Campaign.sol\":1904:1905  0 */\n      0x00\n        /* \"Campaign.sol\":1877:1887  newRequest */\n      dup2\n        /* \"Campaign.sol\":1877:1901  newRequest.approvalCount */\n      0x03\n      add\n        /* \"Campaign.sol\":1877:1905  newRequest.approvalCount = 0 */\n      dup2\n      swap1\n      sstore\n      pop\n        /* \"Campaign.sol\":1654:1912  {... */\n      pop\n        /* \"Campaign.sol\":1525:1912  function createRequest(... */\n      pop\n      pop\n      pop\n      jump\t// out\n        /* \"Campaign.sol\":911:942  uint public minimumContribution */\n    tag_70:\n      sload(0x04)\n      dup2\n      jump\t// out\n        /* \"Campaign.sol\":1360:1519  function contribute() public payable {... */\n    tag_73:\n        /* \"Campaign.sol\":1427:1446  minimumContribution */\n      sload(0x04)\n        /* \"Campaign.sol\":1415:1424  msg.value */\n      callvalue\n        /* \"Campaign.sol\":1415:1446  msg.value > minimumContribution */\n      gt\n        /* \"Campaign.sol\":1407:1447  require(msg.value > minimumContribution) */\n      tag_128\n      jumpi\n      0x00\n      dup1\n      revert\n    tag_128:\n        /* \"Campaign.sol\":1482:1486  true */\n      0x01\n        /* \"Campaign.sol\":1458:1467  approvers */\n      0x05\n        /* \"Campaign.sol\":1458:1479  approvers[msg.sender] */\n      0x00\n        /* \"Campaign.sol\":1468:1478  msg.sender */\n      caller\n        /* \"Campaign.sol\":1458:1479  approvers[msg.sender] */\n      0xffffffffffffffffffffffffffffffffffffffff\n      and\n      0xffffffffffffffffffffffffffffffffffffffff\n      and\n      dup2\n      mstore\n      0x20\n      add\n      swap1\n      dup2\n      mstore\n      0x20\n      add\n      0x00\n      keccak256\n      0x00\n        /* \"Campaign.sol\":1458:1486  approvers[msg.sender] = true */\n      0x0100\n      exp\n      dup2\n      sload\n      dup2\n      0xff\n      mul\n      not\n      and\n      swap1\n      dup4\n      iszero\n      iszero\n      mul\n      or\n      swap1\n      sstore\n      pop\n        /* \"Campaign.sol\":1496:1510  approversCount */\n      0x06\n      0x00\n        /* \"Campaign.sol\":1496:1512  approversCount++ */\n      dup2\n      sload\n      dup1\n      swap3\n      swap2\n      swap1\n      tag_129\n      swap1\n      tag_130\n      jump\t// in\n    tag_129:\n      swap2\n      swap1\n      pop\n      sstore\n      pop\n        /* \"Campaign.sol\":1360:1519  function contribute() public payable {... */\n      jump\t// out\n        /* \"Campaign.sol\":1918:2189  function approveRequest(uint index) public {... */\n    tag_77:\n        /* \"Campaign.sol\":1971:1994  Request storage request */\n      0x00\n        /* \"Campaign.sol\":1997:2005  requests */\n      dup1\n        /* \"Campaign.sol\":2006:2011  index */\n      dup3\n        /* \"Campaign.sol\":1997:2012  requests[index] */\n      dup2\n      sload\n      dup2\n      lt\n      tag_132\n      jumpi\n      tag_133\n      tag_83\n      jump\t// in\n    tag_133:\n    tag_132:\n      swap1\n      0x00\n      mstore\n      keccak256(0x00, 0x20)\n      swap1\n      0x05\n      mul\n      add\n        /* \"Campaign.sol\":1971:2012  Request storage request = requests[index] */\n      swap1\n      pop\n        /* \"Campaign.sol\":2031:2040  approvers */\n      0x05\n        /* \"Campaign.sol\":2031:2052  approvers[msg.sender] */\n      0x00\n        /* \"Campaign.sol\":2041:2051  msg.sender */\n      caller\n        /* \"Campaign.sol\":2031:2052  approvers[msg.sender] */\n      0xffffffffffffffffffffffffffffffffffffffff\n      and\n      0xffffffffffffffffffffffffffffffffffffffff\n      and\n      dup2\n      mstore\n      0x20\n      add\n      swap1\n      dup2\n      mstore\n      0x20\n      add\n      0x00\n      keccak256\n      0x00\n      swap1\n      sload\n      swap1\n      0x0100\n      exp\n      swap1\n      div\n      0xff\n      and\n        /* \"Campaign.sol\":2023:2053  require(approvers[msg.sender]) */\n      tag_135\n      jumpi\n      0x00\n      dup1\n      revert\n    tag_135:\n        /* \"Campaign.sol\":2072:2079  request */\n      dup1\n        /* \"Campaign.sol\":2072:2089  request.approvals */\n      0x04\n      add\n        /* \"Campaign.sol\":2072:2101  request.approvals[msg.sender] */\n      0x00\n        /* \"Campaign.sol\":2090:2100  msg.sender */\n      caller\n        /* \"Campaign.sol\":2072:2101  request.approvals[msg.sender] */\n      0xffffffffffffffffffffffffffffffffffffffff\n      and\n      0xffffffffffffffffffffffffffffffffffffffff\n      and\n      dup2\n      mstore\n      0x20\n      add\n      swap1\n      dup2\n      mstore\n      0x20\n      add\n      0x00\n      keccak256\n      0x00\n      swap1\n      sload\n      swap1\n      0x0100\n      exp\n      swap1\n      div\n      0xff\n      and\n        /* \"Campaign.sol\":2071:2101  !request.approvals[msg.sender] */\n      iszero\n        /* \"Campaign.sol\":2063:2102  require(!request.approvals[msg.sender]) */\n      tag_136\n      jumpi\n      0x00\n      dup1\n      revert\n    tag_136:\n        /* \"Campaign.sol\":2145:2149  true */\n      0x01\n        /* \"Campaign.sol\":2113:2120  request */\n      dup2\n        /* \"Campaign.sol\":2113:2130  request.approvals */\n      0x04\n      add\n        /* \"Campaign.sol\":2113:2142  request.approvals[msg.sender] */\n      0x00\n        /* \"Campaign.sol\":2131:2141  msg.sender */\n      caller\n        /* \"Campaign.sol\":2113:2142  request.approvals[msg.sender] */\n      0xffffffffffffffffffffffffffffffffffffffff\n      and\n      0xffffffffffffffffffffffffffffffffffffffff\n      and\n      dup2\n      mstore\n      0x20\n      add\n      swap1\n      dup2\n      mstore\n      0x20\n      add\n      0x00\n      keccak256\n      0x00\n        /* \"Campaign.sol\":2113:2149  request.approvals[msg.sender] = true */\n      0x0100\n      exp\n      dup2\n      sload\n      dup2\n      0xff\n      mul\n      not\n      and\n      swap1\n      dup4\n      iszero\n      iszero\n      mul\n      or\n      swap1\n      sstore\n      pop\n        /* \"Campaign.sol\":2159:2166  request */\n      dup1\n        /* \"Campaign.sol\":2159:2180  request.approvalCount */\n      0x03\n      add\n      0x00\n        /* \"Campaign.sol\":2159:2182  request.approvalCount++ */\n      dup2\n      sload\n      dup1\n      swap3\n      swap2\n      swap1\n      tag_137\n      swap1\n      tag_130\n      jump\t// in\n    tag_137:\n      swap2\n      swap1\n      pop\n      sstore\n      pop\n        /* \"Campaign.sol\":1961:2189  {... */\n      pop\n        /* \"Campaign.sol\":1918:2189  function approveRequest(uint index) public {... */\n      pop\n      jump\t// out\n        /* \"#utility.yul\":7:82   */\n    tag_138:\n        /* \"#utility.yul\":40:46   */\n      0x00\n        /* \"#utility.yul\":73:75   */\n      0x40\n        /* \"#utility.yul\":67:76   */\n      mload\n        /* \"#utility.yul\":57:76   */\n      swap1\n      pop\n        /* \"#utility.yul\":7:82   */\n      swap1\n      jump\t// out\n        /* \"#utility.yul\":88:205   */\n    tag_139:\n        /* \"#utility.yul\":197:198   */\n      0x00\n        /* \"#utility.yul\":194:195   */\n      dup1\n        /* \"#utility.yul\":187:199   */\n      revert\n        /* \"#utility.yul\":211:328   */\n    tag_140:\n        /* \"#utility.yul\":320:321   */\n      0x00\n        /* \"#utility.yul\":317:318   */\n      dup1\n        /* \"#utility.yul\":310:322   */\n      revert\n        /* \"#utility.yul\":334:411   */\n    tag_141:\n        /* \"#utility.yul\":371:378   */\n      0x00\n        /* \"#utility.yul\":400:405   */\n      dup2\n        /* \"#utility.yul\":389:405   */\n      swap1\n      pop\n        /* \"#utility.yul\":334:411   */\n      swap2\n      swap1\n      pop\n      jump\t// out\n        /* \"#utility.yul\":417:539   */\n    tag_142:\n        /* \"#utility.yul\":490:514   */\n      tag_190\n        /* \"#utility.yul\":508:513   */\n      dup2\n        /* \"#utility.yul\":490:514   */\n      tag_141\n      jump\t// in\n    tag_190:\n        /* \"#utility.yul\":483:488   */\n      dup2\n        /* \"#utility.yul\":480:515   */\n      eq\n        /* \"#utility.yul\":470:533   */\n      tag_191\n      jumpi\n        /* \"#utility.yul\":529:530   */\n      0x00\n        /* \"#utility.yul\":526:527   */\n      dup1\n        /* \"#utility.yul\":519:531   */\n      revert\n        /* \"#utility.yul\":470:533   */\n    tag_191:\n        /* \"#utility.yul\":417:539   */\n      pop\n      jump\t// out\n        /* \"#utility.yul\":545:684   */\n    tag_143:\n        /* \"#utility.yul\":591:596   */\n      0x00\n        /* \"#utility.yul\":629:635   */\n      dup2\n        /* \"#utility.yul\":616:636   */\n      calldataload\n        /* \"#utility.yul\":607:636   */\n      swap1\n      pop\n        /* \"#utility.yul\":645:678   */\n      tag_193\n        /* \"#utility.yul\":672:677   */\n      dup2\n        /* \"#utility.yul\":645:678   */\n      tag_142\n      jump\t// in\n    tag_193:\n        /* \"#utility.yul\":545:684   */\n      swap3\n      swap2\n      pop\n      pop\n      jump\t// out\n        /* \"#utility.yul\":690:1019   */\n    tag_20:\n        /* \"#utility.yul\":749:755   */\n      0x00\n        /* \"#utility.yul\":798:800   */\n      0x20\n        /* \"#utility.yul\":786:795   */\n      dup3\n        /* \"#utility.yul\":777:784   */\n      dup5\n        /* \"#utility.yul\":773:796   */\n      sub\n        /* \"#utility.yul\":769:801   */\n      slt\n        /* \"#utility.yul\":766:885   */\n      iszero\n      tag_195\n      jumpi\n        /* \"#utility.yul\":804:883   */\n      tag_196\n      tag_139\n      jump\t// in\n    tag_196:\n        /* \"#utility.yul\":766:885   */\n    tag_195:\n        /* \"#utility.yul\":924:925   */\n      0x00\n        /* \"#utility.yul\":949:1002   */\n      tag_197\n        /* \"#utility.yul\":994:1001   */\n      dup5\n        /* \"#utility.yul\":985:991   */\n      dup3\n        /* \"#utility.yul\":974:983   */\n      dup6\n        /* \"#utility.yul\":970:992   */\n      add\n        /* \"#utility.yul\":949:1002   */\n      tag_143\n      jump\t// in\n    tag_197:\n        /* \"#utility.yul\":939:1002   */\n      swap2\n      pop\n        /* \"#utility.yul\":895:1012   */\n      pop\n        /* \"#utility.yul\":690:1019   */\n      swap3\n      swap2\n      pop\n      pop\n      jump\t// out\n        /* \"#utility.yul\":1025:1151   */\n    tag_144:\n        /* \"#utility.yul\":1062:1069   */\n      0x00\n        /* \"#utility.yul\":1102:1144   */\n      0xffffffffffffffffffffffffffffffffffffffff\n        /* \"#utility.yul\":1095:1100   */\n      dup3\n        /* \"#utility.yul\":1091:1145   */\n      and\n        /* \"#utility.yul\":1080:1145   */\n      swap1\n      pop\n        /* \"#utility.yul\":1025:1151   */\n      swap2\n      swap1\n      pop\n      jump\t// out\n        /* \"#utility.yul\":1157:1253   */\n    tag_145:\n        /* \"#utility.yul\":1194:1201   */\n      0x00\n        /* \"#utility.yul\":1223:1247   */\n      tag_200\n        /* \"#utility.yul\":1241:1246   */\n      dup3\n        /* \"#utility.yul\":1223:1247   */\n      tag_144\n      jump\t// in\n    tag_200:\n        /* \"#utility.yul\":1212:1247   */\n      swap1\n      pop\n        /* \"#utility.yul\":1157:1253   */\n      swap2\n      swap1\n      pop\n      jump\t// out\n        /* \"#utility.yul\":1259:1381   */\n    tag_146:\n        /* \"#utility.yul\":1332:1356   */\n      tag_202\n        /* \"#utility.yul\":1350:1355   */\n      dup2\n        /* \"#utility.yul\":1332:1356   */\n      tag_145\n      jump\t// in\n    tag_202:\n        /* \"#utility.yul\":1325:1330   */\n      dup2\n        /* \"#utility.yul\":1322:1357   */\n      eq\n        /* \"#utility.yul\":1312:1375   */\n      tag_203\n      jumpi\n        /* \"#utility.yul\":1371:1372   */\n      0x00\n        /* \"#utility.yul\":1368:1369   */\n      dup1\n        /* \"#utility.yul\":1361:1373   */\n      revert\n        /* \"#utility.yul\":1312:1375   */\n    tag_203:\n        /* \"#utility.yul\":1259:1381   */\n      pop\n      jump\t// out\n        /* \"#utility.yul\":1387:1526   */\n    tag_147:\n        /* \"#utility.yul\":1433:1438   */\n      0x00\n        /* \"#utility.yul\":1471:1477   */\n      dup2\n        /* \"#utility.yul\":1458:1478   */\n      calldataload\n        /* \"#utility.yul\":1449:1478   */\n      swap1\n      pop\n        /* \"#utility.yul\":1487:1520   */\n      tag_205\n        /* \"#utility.yul\":1514:1519   */\n      dup2\n        /* \"#utility.yul\":1487:1520   */\n      tag_146\n      jump\t// in\n    tag_205:\n        /* \"#utility.yul\":1387:1526   */\n      swap3\n      swap2\n      pop\n      pop\n      jump\t// out\n        /* \"#utility.yul\":1532:1861   */\n    tag_25:\n        /* \"#utility.yul\":1591:1597   */\n      0x00\n        /* \"#utility.yul\":1640:1642   */\n      0x20\n        /* \"#utility.yul\":1628:1637   */\n      dup3\n        /* \"#utility.yul\":1619:1626   */\n      dup5\n        /* \"#utility.yul\":1615:1638   */\n      sub\n        /* \"#utility.yul\":1611:1643   */\n      slt\n        /* \"#utility.yul\":1608:1727   */\n      iszero\n      tag_207\n      jumpi\n        /* \"#utility.yul\":1646:1725   */\n      tag_208\n      tag_139\n      jump\t// in\n    tag_208:\n        /* \"#utility.yul\":1608:1727   */\n    tag_207:\n        /* \"#utility.yul\":1766:1767   */\n      0x00\n        /* \"#utility.yul\":1791:1844   */\n      tag_209\n        /* \"#utility.yul\":1836:1843   */\n      dup5\n        /* \"#utility.yul\":1827:1833   */\n      dup3\n        /* \"#utility.yul\":1816:1825   */\n      dup6\n        /* \"#utility.yul\":1812:1834   */\n      add\n        /* \"#utility.yul\":1791:1844   */\n      tag_147\n      jump\t// in\n    tag_209:\n        /* \"#utility.yul\":1781:1844   */\n      swap2\n      pop\n        /* \"#utility.yul\":1737:1854   */\n      pop\n        /* \"#utility.yul\":1532:1861   */\n      swap3\n      swap2\n      pop\n      pop\n      jump\t// out\n        /* \"#utility.yul\":1867:1957   */\n    tag_148:\n        /* \"#utility.yul\":1901:1908   */\n      0x00\n        /* \"#utility.yul\":1944:1949   */\n      dup2\n        /* \"#utility.yul\":1937:1950   */\n      iszero\n        /* \"#utility.yul\":1930:1951   */\n      iszero\n        /* \"#utility.yul\":1919:1951   */\n      swap1\n      pop\n        /* \"#utility.yul\":1867:1957   */\n      swap2\n      swap1\n      pop\n      jump\t// out\n        /* \"#utility.yul\":1963:2072   */\n    tag_149:\n        /* \"#utility.yul\":2044:2065   */\n      tag_212\n        /* \"#utility.yul\":2059:2064   */\n      dup2\n        /* \"#utility.yul\":2044:2065   */\n      tag_148\n      jump\t// in\n    tag_212:\n        /* \"#utility.yul\":2039:2042   */\n      dup3\n        /* \"#utility.yul\":2032:2066   */\n      mstore\n        /* \"#utility.yul\":1963:2072   */\n      pop\n      pop\n      jump\t// out\n        /* \"#utility.yul\":2078:2288   */\n    tag_28:\n        /* \"#utility.yul\":2165:2169   */\n      0x00\n        /* \"#utility.yul\":2203:2205   */\n      0x20\n        /* \"#utility.yul\":2192:2201   */\n      dup3\n        /* \"#utility.yul\":2188:2206   */\n      add\n        /* \"#utility.yul\":2180:2206   */\n      swap1\n      pop\n        /* \"#utility.yul\":2216:2281   */\n      tag_214\n        /* \"#utility.yul\":2278:2279   */\n      0x00\n        /* \"#utility.yul\":2267:2276   */\n      dup4\n        /* \"#utility.yul\":2263:2280   */\n      add\n        /* \"#utility.yul\":2254:2260   */\n      dup5\n        /* \"#utility.yul\":2216:2281   */\n      tag_149\n      jump\t// in\n    tag_214:\n        /* \"#utility.yul\":2078:2288   */\n      swap3\n      swap2\n      pop\n      pop\n      jump\t// out\n        /* \"#utility.yul\":2294:2412   */\n    tag_150:\n        /* \"#utility.yul\":2381:2405   */\n      tag_216\n        /* \"#utility.yul\":2399:2404   */\n      dup2\n        /* \"#utility.yul\":2381:2405   */\n      tag_141\n      jump\t// in\n    tag_216:\n        /* \"#utility.yul\":2376:2379   */\n      dup3\n        /* \"#utility.yul\":2369:2406   */\n      mstore\n        /* \"#utility.yul\":2294:2412   */\n      pop\n      pop\n      jump\t// out\n        /* \"#utility.yul\":2418:2640   */\n    tag_33:\n        /* \"#utility.yul\":2511:2515   */\n      0x00\n        /* \"#utility.yul\":2549:2551   */\n      0x20\n        /* \"#utility.yul\":2538:2547   */\n      dup3\n        /* \"#utility.yul\":2534:2552   */\n      add\n        /* \"#utility.yul\":2526:2552   */\n      swap1\n      pop\n        /* \"#utility.yul\":2562:2633   */\n      tag_218\n        /* \"#utility.yul\":2630:2631   */\n      0x00\n        /* \"#utility.yul\":2619:2628   */\n      dup4\n        /* \"#utility.yul\":2615:2632   */\n      add\n        /* \"#utility.yul\":2606:2612   */\n      dup5\n        /* \"#utility.yul\":2562:2633   */\n      tag_150\n      jump\t// in\n    tag_218:\n        /* \"#utility.yul\":2418:2640   */\n      swap3\n      swap2\n      pop\n      pop\n      jump\t// out\n        /* \"#utility.yul\":2646:2764   */\n    tag_151:\n        /* \"#utility.yul\":2733:2757   */\n      tag_220\n        /* \"#utility.yul\":2751:2756   */\n      dup2\n        /* \"#utility.yul\":2733:2757   */\n      tag_145\n      jump\t// in\n    tag_220:\n        /* \"#utility.yul\":2728:2731   */\n      dup3\n        /* \"#utility.yul\":2721:2758   */\n      mstore\n        /* \"#utility.yul\":2646:2764   */\n      pop\n      pop\n      jump\t// out\n        /* \"#utility.yul\":2770:2869   */\n    tag_152:\n        /* \"#utility.yul\":2822:2828   */\n      0x00\n        /* \"#utility.yul\":2856:2861   */\n      dup2\n        /* \"#utility.yul\":2850:2862   */\n      mload\n        /* \"#utility.yul\":2840:2862   */\n      swap1\n      pop\n        /* \"#utility.yul\":2770:2869   */\n      swap2\n      swap1\n      pop\n      jump\t// out\n        /* \"#utility.yul\":2875:3044   */\n    tag_153:\n        /* \"#utility.yul\":2959:2970   */\n      0x00\n        /* \"#utility.yul\":2993:2999   */\n      dup3\n        /* \"#utility.yul\":2988:2991   */\n      dup3\n        /* \"#utility.yul\":2981:3000   */\n      mstore\n        /* \"#utility.yul\":3033:3037   */\n      0x20\n        /* \"#utility.yul\":3028:3031   */\n      dup3\n        /* \"#utility.yul\":3024:3038   */\n      add\n        /* \"#utility.yul\":3009:3038   */\n      swap1\n      pop\n        /* \"#utility.yul\":2875:3044   */\n      swap3\n      swap2\n      pop\n      pop\n      jump\t// out\n        /* \"#utility.yul\":3050:3357   */\n    tag_154:\n        /* \"#utility.yul\":3118:3119   */\n      0x00\n        /* \"#utility.yul\":3128:3241   */\n    tag_224:\n        /* \"#utility.yul\":3142:3148   */\n      dup4\n        /* \"#utility.yul\":3139:3140   */\n      dup2\n        /* \"#utility.yul\":3136:3149   */\n      lt\n        /* \"#utility.yul\":3128:3241   */\n      iszero\n      tag_226\n      jumpi\n        /* \"#utility.yul\":3227:3228   */\n      dup1\n        /* \"#utility.yul\":3222:3225   */\n      dup3\n        /* \"#utility.yul\":3218:3229   */\n      add\n        /* \"#utility.yul\":3212:3230   */\n      mload\n        /* \"#utility.yul\":3208:3209   */\n      dup2\n        /* \"#utility.yul\":3203:3206   */\n      dup5\n        /* \"#utility.yul\":3199:3210   */\n      add\n        /* \"#utility.yul\":3192:3231   */\n      mstore\n        /* \"#utility.yul\":3164:3166   */\n      0x20\n        /* \"#utility.yul\":3161:3162   */\n      dup2\n        /* \"#utility.yul\":3157:3167   */\n      add\n        /* \"#utility.yul\":3152:3167   */\n      swap1\n      pop\n        /* \"#utility.yul\":3128:3241   */\n      jump(tag_224)\n    tag_226:\n        /* \"#utility.yul\":3259:3265   */\n      dup4\n        /* \"#utility.yul\":3256:3257   */\n      dup2\n        /* \"#utility.yul\":3253:3266   */\n      gt\n        /* \"#utility.yul\":3250:3351   */\n      iszero\n      tag_227\n      jumpi\n        /* \"#utility.yul\":3339:3340   */\n      0x00\n        /* \"#utility.yul\":3330:3336   */\n      dup5\n        /* \"#utility.yul\":3325:3328   */\n      dup5\n        /* \"#utility.yul\":3321:3337   */\n      add\n        /* \"#utility.yul\":3314:3341   */\n      mstore\n        /* \"#utility.yul\":3250:3351   */\n    tag_227:\n        /* \"#utility.yul\":3099:3357   */\n      pop\n        /* \"#utility.yul\":3050:3357   */\n      pop\n      pop\n      pop\n      jump\t// out\n        /* \"#utility.yul\":3363:3465   */\n    tag_155:\n        /* \"#utility.yul\":3404:3410   */\n      0x00\n        /* \"#utility.yul\":3455:3457   */\n      0x1f\n        /* \"#utility.yul\":3451:3458   */\n      not\n        /* \"#utility.yul\":3446:3448   */\n      0x1f\n        /* \"#utility.yul\":3439:3444   */\n      dup4\n        /* \"#utility.yul\":3435:3449   */\n      add\n        /* \"#utility.yul\":3431:3459   */\n      and\n        /* \"#utility.yul\":3421:3459   */\n      swap1\n      pop\n        /* \"#utility.yul\":3363:3465   */\n      swap2\n      swap1\n      pop\n      jump\t// out\n        /* \"#utility.yul\":3471:3835   */\n    tag_156:\n        /* \"#utility.yul\":3559:3562   */\n      0x00\n        /* \"#utility.yul\":3587:3626   */\n      tag_230\n        /* \"#utility.yul\":3620:3625   */\n      dup3\n        /* \"#utility.yul\":3587:3626   */\n      tag_152\n      jump\t// in\n    tag_230:\n        /* \"#utility.yul\":3642:3713   */\n      tag_231\n        /* \"#utility.yul\":3706:3712   */\n      dup2\n        /* \"#utility.yul\":3701:3704   */\n      dup6\n        /* \"#utility.yul\":3642:3713   */\n      tag_153\n      jump\t// in\n    tag_231:\n        /* \"#utility.yul\":3635:3713   */\n      swap4\n      pop\n        /* \"#utility.yul\":3722:3774   */\n      tag_232\n        /* \"#utility.yul\":3767:3773   */\n      dup2\n        /* \"#utility.yul\":3762:3765   */\n      dup6\n        /* \"#utility.yul\":3755:3759   */\n      0x20\n        /* \"#utility.yul\":3748:3753   */\n      dup7\n        /* \"#utility.yul\":3744:3760   */\n      add\n        /* \"#utility.yul\":3722:3774   */\n      tag_154\n      jump\t// in\n    tag_232:\n        /* \"#utility.yul\":3799:3828   */\n      tag_233\n        /* \"#utility.yul\":3821:3827   */\n      dup2\n        /* \"#utility.yul\":3799:3828   */\n      tag_155\n      jump\t// in\n    tag_233:\n        /* \"#utility.yul\":3794:3797   */\n      dup5\n        /* \"#utility.yul\":3790:3829   */\n      add\n        /* \"#utility.yul\":3783:3829   */\n      swap2\n      pop\n        /* \"#utility.yul\":3563:3835   */\n      pop\n        /* \"#utility.yul\":3471:3835   */\n      swap3\n      swap2\n      pop\n      pop\n      jump\t// out\n        /* \"#utility.yul\":3841:4909   */\n    tag_38:\n        /* \"#utility.yul\":4142:4146   */\n      0x00\n        /* \"#utility.yul\":4180:4183   */\n      0xe0\n        /* \"#utility.yul\":4169:4178   */\n      dup3\n        /* \"#utility.yul\":4165:4184   */\n      add\n        /* \"#utility.yul\":4157:4184   */\n      swap1\n      pop\n        /* \"#utility.yul\":4194:4265   */\n      tag_235\n        /* \"#utility.yul\":4262:4263   */\n      0x00\n        /* \"#utility.yul\":4251:4260   */\n      dup4\n        /* \"#utility.yul\":4247:4264   */\n      add\n        /* \"#utility.yul\":4238:4244   */\n      dup11\n        /* \"#utility.yul\":4194:4265   */\n      tag_150\n      jump\t// in\n    tag_235:\n        /* \"#utility.yul\":4275:4347   */\n      tag_236\n        /* \"#utility.yul\":4343:4345   */\n      0x20\n        /* \"#utility.yul\":4332:4341   */\n      dup4\n        /* \"#utility.yul\":4328:4346   */\n      add\n        /* \"#utility.yul\":4319:4325   */\n      dup10\n        /* \"#utility.yul\":4275:4347   */\n      tag_150\n      jump\t// in\n    tag_236:\n        /* \"#utility.yul\":4357:4429   */\n      tag_237\n        /* \"#utility.yul\":4425:4427   */\n      0x40\n        /* \"#utility.yul\":4414:4423   */\n      dup4\n        /* \"#utility.yul\":4410:4428   */\n      add\n        /* \"#utility.yul\":4401:4407   */\n      dup9\n        /* \"#utility.yul\":4357:4429   */\n      tag_150\n      jump\t// in\n    tag_237:\n        /* \"#utility.yul\":4439:4511   */\n      tag_238\n        /* \"#utility.yul\":4507:4509   */\n      0x60\n        /* \"#utility.yul\":4496:4505   */\n      dup4\n        /* \"#utility.yul\":4492:4510   */\n      add\n        /* \"#utility.yul\":4483:4489   */\n      dup8\n        /* \"#utility.yul\":4439:4511   */\n      tag_150\n      jump\t// in\n    tag_238:\n        /* \"#utility.yul\":4521:4594   */\n      tag_239\n        /* \"#utility.yul\":4589:4592   */\n      0x80\n        /* \"#utility.yul\":4578:4587   */\n      dup4\n        /* \"#utility.yul\":4574:4593   */\n      add\n        /* \"#utility.yul\":4565:4571   */\n      dup7\n        /* \"#utility.yul\":4521:4594   */\n      tag_151\n      jump\t// in\n    tag_239:\n        /* \"#utility.yul\":4642:4651   */\n      dup2\n        /* \"#utility.yul\":4636:4640   */\n      dup2\n        /* \"#utility.yul\":4632:4652   */\n      sub\n        /* \"#utility.yul\":4626:4629   */\n      0xa0\n        /* \"#utility.yul\":4615:4624   */\n      dup4\n        /* \"#utility.yul\":4611:4630   */\n      add\n        /* \"#utility.yul\":4604:4653   */\n      mstore\n        /* \"#utility.yul\":4670:4748   */\n      tag_240\n        /* \"#utility.yul\":4743:4747   */\n      dup2\n        /* \"#utility.yul\":4734:4740   */\n      dup6\n        /* \"#utility.yul\":4670:4748   */\n      tag_156\n      jump\t// in\n    tag_240:\n        /* \"#utility.yul\":4662:4748   */\n      swap1\n      pop\n        /* \"#utility.yul\":4796:4805   */\n      dup2\n        /* \"#utility.yul\":4790:4794   */\n      dup2\n        /* \"#utility.yul\":4786:4806   */\n      sub\n        /* \"#utility.yul\":4780:4783   */\n      0xc0\n        /* \"#utility.yul\":4769:4778   */\n      dup4\n        /* \"#utility.yul\":4765:4784   */\n      add\n        /* \"#utility.yul\":4758:4807   */\n      mstore\n        /* \"#utility.yul\":4824:4902   */\n      tag_241\n        /* \"#utility.yul\":4897:4901   */\n      dup2\n        /* \"#utility.yul\":4888:4894   */\n      dup5\n        /* \"#utility.yul\":4824:4902   */\n      tag_156\n      jump\t// in\n    tag_241:\n        /* \"#utility.yul\":4816:4902   */\n      swap1\n      pop\n        /* \"#utility.yul\":3841:4909   */\n      swap9\n      swap8\n      pop\n      pop\n      pop\n      pop\n      pop\n      pop\n      pop\n      pop\n      jump\t// out\n        /* \"#utility.yul\":4915:5137   */\n    tag_43:\n        /* \"#utility.yul\":5008:5012   */\n      0x00\n        /* \"#utility.yul\":5046:5048   */\n      0x20\n        /* \"#utility.yul\":5035:5044   */\n      dup3\n        /* \"#utility.yul\":5031:5049   */\n      add\n        /* \"#utility.yul\":5023:5049   */\n      swap1\n      pop\n        /* \"#utility.yul\":5059:5130   */\n      tag_243\n        /* \"#utility.yul\":5127:5128   */\n      0x00\n        /* \"#utility.yul\":5116:5125   */\n      dup4\n        /* \"#utility.yul\":5112:5129   */\n      add\n        /* \"#utility.yul\":5103:5109   */\n      dup5\n        /* \"#utility.yul\":5059:5130   */\n      tag_151\n      jump\t// in\n    tag_243:\n        /* \"#utility.yul\":4915:5137   */\n      swap3\n      swap2\n      pop\n      pop\n      jump\t// out\n        /* \"#utility.yul\":5143:5456   */\n    tag_48:\n        /* \"#utility.yul\":5256:5260   */\n      0x00\n        /* \"#utility.yul\":5294:5296   */\n      0x20\n        /* \"#utility.yul\":5283:5292   */\n      dup3\n        /* \"#utility.yul\":5279:5297   */\n      add\n        /* \"#utility.yul\":5271:5297   */\n      swap1\n      pop\n        /* \"#utility.yul\":5343:5352   */\n      dup2\n        /* \"#utility.yul\":5337:5341   */\n      dup2\n        /* \"#utility.yul\":5333:5353   */\n      sub\n        /* \"#utility.yul\":5329:5330   */\n      0x00\n        /* \"#utility.yul\":5318:5327   */\n      dup4\n        /* \"#utility.yul\":5314:5331   */\n      add\n        /* \"#utility.yul\":5307:5354   */\n      mstore\n        /* \"#utility.yul\":5371:5449   */\n      tag_245\n        /* \"#utility.yul\":5444:5448   */\n      dup2\n        /* \"#utility.yul\":5435:5441   */\n      dup5\n        /* \"#utility.yul\":5371:5449   */\n      tag_156\n      jump\t// in\n    tag_245:\n        /* \"#utility.yul\":5363:5449   */\n      swap1\n      pop\n        /* \"#utility.yul\":5143:5456   */\n      swap3\n      swap2\n      pop\n      pop\n      jump\t// out\n        /* \"#utility.yul\":5462:6205   */\n    tag_58:\n        /* \"#utility.yul\":5681:5685   */\n      0x00\n        /* \"#utility.yul\":5719:5722   */\n      0xa0\n        /* \"#utility.yul\":5708:5717   */\n      dup3\n        /* \"#utility.yul\":5704:5723   */\n      add\n        /* \"#utility.yul\":5696:5723   */\n      swap1\n      pop\n        /* \"#utility.yul\":5769:5778   */\n      dup2\n        /* \"#utility.yul\":5763:5767   */\n      dup2\n        /* \"#utility.yul\":5759:5779   */\n      sub\n        /* \"#utility.yul\":5755:5756   */\n      0x00\n        /* \"#utility.yul\":5744:5753   */\n      dup4\n        /* \"#utility.yul\":5740:5757   */\n      add\n        /* \"#utility.yul\":5733:5780   */\n      mstore\n        /* \"#utility.yul\":5797:5875   */\n      tag_247\n        /* \"#utility.yul\":5870:5874   */\n      dup2\n        /* \"#utility.yul\":5861:5867   */\n      dup9\n        /* \"#utility.yul\":5797:5875   */\n      tag_156\n      jump\t// in\n    tag_247:\n        /* \"#utility.yul\":5789:5875   */\n      swap1\n      pop\n        /* \"#utility.yul\":5885:5957   */\n      tag_248\n        /* \"#utility.yul\":5953:5955   */\n      0x20\n        /* \"#utility.yul\":5942:5951   */\n      dup4\n        /* \"#utility.yul\":5938:5956   */\n      add\n        /* \"#utility.yul\":5929:5935   */\n      dup8\n        /* \"#utility.yul\":5885:5957   */\n      tag_150\n      jump\t// in\n    tag_248:\n        /* \"#utility.yul\":5967:6039   */\n      tag_249\n        /* \"#utility.yul\":6035:6037   */\n      0x40\n        /* \"#utility.yul\":6024:6033   */\n      dup4\n        /* \"#utility.yul\":6020:6038   */\n      add\n        /* \"#utility.yul\":6011:6017   */\n      dup7\n        /* \"#utility.yul\":5967:6039   */\n      tag_151\n      jump\t// in\n    tag_249:\n        /* \"#utility.yul\":6049:6115   */\n      tag_250\n        /* \"#utility.yul\":6111:6113   */\n      0x60\n        /* \"#utility.yul\":6100:6109   */\n      dup4\n        /* \"#utility.yul\":6096:6114   */\n      add\n        /* \"#utility.yul\":6087:6093   */\n      dup6\n        /* \"#utility.yul\":6049:6115   */\n      tag_149\n      jump\t// in\n    tag_250:\n        /* \"#utility.yul\":6125:6198   */\n      tag_251\n        /* \"#utility.yul\":6193:6196   */\n      0x80\n        /* \"#utility.yul\":6182:6191   */\n      dup4\n        /* \"#utility.yul\":6178:6197   */\n      add\n        /* \"#utility.yul\":6169:6175   */\n      dup5\n        /* \"#utility.yul\":6125:6198   */\n      tag_150\n      jump\t// in\n    tag_251:\n        /* \"#utility.yul\":5462:6205   */\n      swap7\n      swap6\n      pop\n      pop\n      pop\n      pop\n      pop\n      pop\n      jump\t// out\n        /* \"#utility.yul\":6211:6328   */\n    tag_157:\n        /* \"#utility.yul\":6320:6321   */\n      0x00\n        /* \"#utility.yul\":6317:6318   */\n      dup1\n        /* \"#utility.yul\":6310:6322   */\n      revert\n        /* \"#utility.yul\":6334:6451   */\n    tag_158:\n        /* \"#utility.yul\":6443:6444   */\n      0x00\n        /* \"#utility.yul\":6440:6441   */\n      dup1\n        /* \"#utility.yul\":6433:6445   */\n      revert\n        /* \"#utility.yul\":6457:6637   */\n    tag_159:\n        /* \"#utility.yul\":6505:6582   */\n      0x4e487b7100000000000000000000000000000000000000000000000000000000\n        /* \"#utility.yul\":6502:6503   */\n      0x00\n        /* \"#utility.yul\":6495:6583   */\n      mstore\n        /* \"#utility.yul\":6602:6606   */\n      0x41\n        /* \"#utility.yul\":6599:6600   */\n      0x04\n        /* \"#utility.yul\":6592:6607   */\n      mstore\n        /* \"#utility.yul\":6626:6630   */\n      0x24\n        /* \"#utility.yul\":6623:6624   */\n      0x00\n        /* \"#utility.yul\":6616:6631   */\n      revert\n        /* \"#utility.yul\":6643:6924   */\n    tag_160:\n        /* \"#utility.yul\":6726:6753   */\n      tag_256\n        /* \"#utility.yul\":6748:6752   */\n      dup3\n        /* \"#utility.yul\":6726:6753   */\n      tag_155\n      jump\t// in\n    tag_256:\n        /* \"#utility.yul\":6718:6724   */\n      dup2\n        /* \"#utility.yul\":6714:6754   */\n      add\n        /* \"#utility.yul\":6856:6862   */\n      dup2\n        /* \"#utility.yul\":6844:6854   */\n      dup2\n        /* \"#utility.yul\":6841:6863   */\n      lt\n        /* \"#utility.yul\":6820:6838   */\n      0xffffffffffffffff\n        /* \"#utility.yul\":6808:6818   */\n      dup3\n        /* \"#utility.yul\":6805:6839   */\n      gt\n        /* \"#utility.yul\":6802:6864   */\n      or\n        /* \"#utility.yul\":6799:6887   */\n      iszero\n      tag_257\n      jumpi\n        /* \"#utility.yul\":6867:6885   */\n      tag_258\n      tag_159\n      jump\t// in\n    tag_258:\n        /* \"#utility.yul\":6799:6887   */\n    tag_257:\n        /* \"#utility.yul\":6907:6917   */\n      dup1\n        /* \"#utility.yul\":6903:6905   */\n      0x40\n        /* \"#utility.yul\":6896:6918   */\n      mstore\n        /* \"#utility.yul\":6686:6924   */\n      pop\n        /* \"#utility.yul\":6643:6924   */\n      pop\n      pop\n      jump\t// out\n        /* \"#utility.yul\":6930:7059   */\n    tag_161:\n        /* \"#utility.yul\":6964:6970   */\n      0x00\n        /* \"#utility.yul\":6991:7011   */\n      tag_260\n      tag_138\n      jump\t// in\n    tag_260:\n        /* \"#utility.yul\":6981:7011   */\n      swap1\n      pop\n        /* \"#utility.yul\":7020:7053   */\n      tag_261\n        /* \"#utility.yul\":7048:7052   */\n      dup3\n        /* \"#utility.yul\":7040:7046   */\n      dup3\n        /* \"#utility.yul\":7020:7053   */\n      tag_160\n      jump\t// in\n    tag_261:\n        /* \"#utility.yul\":6930:7059   */\n      swap2\n      swap1\n      pop\n      jump\t// out\n        /* \"#utility.yul\":7065:7373   */\n    tag_162:\n        /* \"#utility.yul\":7127:7131   */\n      0x00\n        /* \"#utility.yul\":7217:7235   */\n      0xffffffffffffffff\n        /* \"#utility.yul\":7209:7215   */\n      dup3\n        /* \"#utility.yul\":7206:7236   */\n      gt\n        /* \"#utility.yul\":7203:7259   */\n      iszero\n      tag_263\n      jumpi\n        /* \"#utility.yul\":7239:7257   */\n      tag_264\n      tag_159\n      jump\t// in\n    tag_264:\n        /* \"#utility.yul\":7203:7259   */\n    tag_263:\n        /* \"#utility.yul\":7277:7306   */\n      tag_265\n        /* \"#utility.yul\":7299:7305   */\n      dup3\n        /* \"#utility.yul\":7277:7306   */\n      tag_155\n      jump\t// in\n    tag_265:\n        /* \"#utility.yul\":7269:7306   */\n      swap1\n      pop\n        /* \"#utility.yul\":7361:7365   */\n      0x20\n        /* \"#utility.yul\":7355:7359   */\n      dup2\n        /* \"#utility.yul\":7351:7366   */\n      add\n        /* \"#utility.yul\":7343:7366   */\n      swap1\n      pop\n        /* \"#utility.yul\":7065:7373   */\n      swap2\n      swap1\n      pop\n      jump\t// out\n        /* \"#utility.yul\":7379:7533   */\n    tag_163:\n        /* \"#utility.yul\":7463:7469   */\n      dup3\n        /* \"#utility.yul\":7458:7461   */\n      dup2\n        /* \"#utility.yul\":7453:7456   */\n      dup4\n        /* \"#utility.yul\":7440:7470   */\n      calldatacopy\n        /* \"#utility.yul\":7525:7526   */\n      0x00\n        /* \"#utility.yul\":7516:7522   */\n      dup4\n        /* \"#utility.yul\":7511:7514   */\n      dup4\n        /* \"#utility.yul\":7507:7523   */\n      add\n        /* \"#utility.yul\":7500:7527   */\n      mstore\n        /* \"#utility.yul\":7379:7533   */\n      pop\n      pop\n      pop\n      jump\t// out\n        /* \"#utility.yul\":7539:7951   */\n    tag_164:\n        /* \"#utility.yul\":7617:7622   */\n      0x00\n        /* \"#utility.yul\":7642:7708   */\n      tag_268\n        /* \"#utility.yul\":7658:7707   */\n      tag_269\n        /* \"#utility.yul\":7700:7706   */\n      dup5\n        /* \"#utility.yul\":7658:7707   */\n      tag_162\n      jump\t// in\n    tag_269:\n        /* \"#utility.yul\":7642:7708   */\n      tag_161\n      jump\t// in\n    tag_268:\n        /* \"#utility.yul\":7633:7708   */\n      swap1\n      pop\n        /* \"#utility.yul\":7731:7737   */\n      dup3\n        /* \"#utility.yul\":7724:7729   */\n      dup2\n        /* \"#utility.yul\":7717:7738   */\n      mstore\n        /* \"#utility.yul\":7769:7773   */\n      0x20\n        /* \"#utility.yul\":7762:7767   */\n      dup2\n        /* \"#utility.yul\":7758:7774   */\n      add\n        /* \"#utility.yul\":7807:7810   */\n      dup5\n        /* \"#utility.yul\":7798:7804   */\n      dup5\n        /* \"#utility.yul\":7793:7796   */\n      dup5\n        /* \"#utility.yul\":7789:7805   */\n      add\n        /* \"#utility.yul\":7786:7811   */\n      gt\n        /* \"#utility.yul\":7783:7895   */\n      iszero\n      tag_270\n      jumpi\n        /* \"#utility.yul\":7814:7893   */\n      tag_271\n      tag_158\n      jump\t// in\n    tag_271:\n        /* \"#utility.yul\":7783:7895   */\n    tag_270:\n        /* \"#utility.yul\":7904:7945   */\n      tag_272\n        /* \"#utility.yul\":7938:7944   */\n      dup5\n        /* \"#utility.yul\":7933:7936   */\n      dup3\n        /* \"#utility.yul\":7928:7931   */\n      dup6\n        /* \"#utility.yul\":7904:7945   */\n      tag_163\n      jump\t// in\n    tag_272:\n        /* \"#utility.yul\":7623:7951   */\n      pop\n        /* \"#utility.yul\":7539:7951   */\n      swap4\n      swap3\n      pop\n      pop\n      pop\n      jump\t// out\n        /* \"#utility.yul\":7971:8311   */\n    tag_165:\n        /* \"#utility.yul\":8027:8032   */\n      0x00\n        /* \"#utility.yul\":8076:8079   */\n      dup3\n        /* \"#utility.yul\":8069:8073   */\n      0x1f\n        /* \"#utility.yul\":8061:8067   */\n      dup4\n        /* \"#utility.yul\":8057:8074   */\n      add\n        /* \"#utility.yul\":8053:8080   */\n      slt\n        /* \"#utility.yul\":8043:8165   */\n      tag_274\n      jumpi\n        /* \"#utility.yul\":8084:8163   */\n      tag_275\n      tag_157\n      jump\t// in\n    tag_275:\n        /* \"#utility.yul\":8043:8165   */\n    tag_274:\n        /* \"#utility.yul\":8201:8207   */\n      dup2\n        /* \"#utility.yul\":8188:8208   */\n      calldataload\n        /* \"#utility.yul\":8226:8305   */\n      tag_276\n        /* \"#utility.yul\":8301:8304   */\n      dup5\n        /* \"#utility.yul\":8293:8299   */\n      dup3\n        /* \"#utility.yul\":8286:8290   */\n      0x20\n        /* \"#utility.yul\":8278:8284   */\n      dup7\n        /* \"#utility.yul\":8274:8291   */\n      add\n        /* \"#utility.yul\":8226:8305   */\n      tag_164\n      jump\t// in\n    tag_276:\n        /* \"#utility.yul\":8217:8305   */\n      swap2\n      pop\n        /* \"#utility.yul\":8033:8311   */\n      pop\n        /* \"#utility.yul\":7971:8311   */\n      swap3\n      swap2\n      pop\n      pop\n      jump\t// out\n        /* \"#utility.yul\":8317:9116   */\n    tag_66:\n        /* \"#utility.yul\":8404:8410   */\n      0x00\n        /* \"#utility.yul\":8412:8418   */\n      dup1\n        /* \"#utility.yul\":8420:8426   */\n      0x00\n        /* \"#utility.yul\":8469:8471   */\n      0x60\n        /* \"#utility.yul\":8457:8466   */\n      dup5\n        /* \"#utility.yul\":8448:8455   */\n      dup7\n        /* \"#utility.yul\":8444:8467   */\n      sub\n        /* \"#utility.yul\":8440:8472   */\n      slt\n        /* \"#utility.yul\":8437:8556   */\n      iszero\n      tag_278\n      jumpi\n        /* \"#utility.yul\":8475:8554   */\n      tag_279\n      tag_139\n      jump\t// in\n    tag_279:\n        /* \"#utility.yul\":8437:8556   */\n    tag_278:\n        /* \"#utility.yul\":8623:8624   */\n      0x00\n        /* \"#utility.yul\":8612:8621   */\n      dup5\n        /* \"#utility.yul\":8608:8625   */\n      add\n        /* \"#utility.yul\":8595:8626   */\n      calldataload\n        /* \"#utility.yul\":8653:8671   */\n      0xffffffffffffffff\n        /* \"#utility.yul\":8645:8651   */\n      dup2\n        /* \"#utility.yul\":8642:8672   */\n      gt\n        /* \"#utility.yul\":8639:8756   */\n      iszero\n      tag_280\n      jumpi\n        /* \"#utility.yul\":8675:8754   */\n      tag_281\n      tag_140\n      jump\t// in\n    tag_281:\n        /* \"#utility.yul\":8639:8756   */\n    tag_280:\n        /* \"#utility.yul\":8780:8843   */\n      tag_282\n        /* \"#utility.yul\":8835:8842   */\n      dup7\n        /* \"#utility.yul\":8826:8832   */\n      dup3\n        /* \"#utility.yul\":8815:8824   */\n      dup8\n        /* \"#utility.yul\":8811:8833   */\n      add\n        /* \"#utility.yul\":8780:8843   */\n      tag_165\n      jump\t// in\n    tag_282:\n        /* \"#utility.yul\":8770:8843   */\n      swap4\n      pop\n        /* \"#utility.yul\":8566:8853   */\n      pop\n        /* \"#utility.yul\":8892:8894   */\n      0x20\n        /* \"#utility.yul\":8918:8971   */\n      tag_283\n        /* \"#utility.yul\":8963:8970   */\n      dup7\n        /* \"#utility.yul\":8954:8960   */\n      dup3\n        /* \"#utility.yul\":8943:8952   */\n      dup8\n        /* \"#utility.yul\":8939:8961   */\n      add\n        /* \"#utility.yul\":8918:8971   */\n      tag_143\n      jump\t// in\n    tag_283:\n        /* \"#utility.yul\":8908:8971   */\n      swap3\n      pop\n        /* \"#utility.yul\":8863:8981   */\n      pop\n        /* \"#utility.yul\":9020:9022   */\n      0x40\n        /* \"#utility.yul\":9046:9099   */\n      tag_284\n        /* \"#utility.yul\":9091:9098   */\n      dup7\n        /* \"#utility.yul\":9082:9088   */\n      dup3\n        /* \"#utility.yul\":9071:9080   */\n      dup8\n        /* \"#utility.yul\":9067:9089   */\n      add\n        /* \"#utility.yul\":9046:9099   */\n      tag_147\n      jump\t// in\n    tag_284:\n        /* \"#utility.yul\":9036:9099   */\n      swap2\n      pop\n        /* \"#utility.yul\":8991:9109   */\n      pop\n        /* \"#utility.yul\":8317:9116   */\n      swap3\n      pop\n      swap3\n      pop\n      swap3\n      jump\t// out\n        /* \"#utility.yul\":9122:9302   */\n    tag_83:\n        /* \"#utility.yul\":9170:9247   */\n      0x4e487b7100000000000000000000000000000000000000000000000000000000\n        /* \"#utility.yul\":9167:9168   */\n      0x00\n        /* \"#utility.yul\":9160:9248   */\n      mstore\n        /* \"#utility.yul\":9267:9271   */\n      0x32\n        /* \"#utility.yul\":9264:9265   */\n      0x04\n        /* \"#utility.yul\":9257:9272   */\n      mstore\n        /* \"#utility.yul\":9291:9295   */\n      0x24\n        /* \"#utility.yul\":9288:9289   */\n      0x00\n        /* \"#utility.yul\":9281:9296   */\n      revert\n        /* \"#utility.yul\":9308:9488   */\n    tag_166:\n        /* \"#utility.yul\":9356:9433   */\n      0x4e487b7100000000000000000000000000000000000000000000000000000000\n        /* \"#utility.yul\":9353:9354   */\n      0x00\n        /* \"#utility.yul\":9346:9434   */\n      mstore\n        /* \"#utility.yul\":9453:9457   */\n      0x12\n        /* \"#utility.yul\":9450:9451   */\n      0x04\n        /* \"#utility.yul\":9443:9458   */\n      mstore\n        /* \"#utility.yul\":9477:9481   */\n      0x24\n        /* \"#utility.yul\":9474:9475   */\n      0x00\n        /* \"#utility.yul\":9467:9482   */\n      revert\n        /* \"#utility.yul\":9494:9674   */\n    tag_167:\n        /* \"#utility.yul\":9542:9619   */\n      0x4e487b7100000000000000000000000000000000000000000000000000000000\n        /* \"#utility.yul\":9539:9540   */\n      0x00\n        /* \"#utility.yul\":9532:9620   */\n      mstore\n        /* \"#utility.yul\":9639:9643   */\n      0x11\n        /* \"#utility.yul\":9636:9637   */\n      0x04\n        /* \"#utility.yul\":9629:9644   */\n      mstore\n        /* \"#utility.yul\":9663:9667   */\n      0x24\n        /* \"#utility.yul\":9660:9661   */\n      0x00\n        /* \"#utility.yul\":9653:9668   */\n      revert\n        /* \"#utility.yul\":9680:9865   */\n    tag_86:\n        /* \"#utility.yul\":9720:9721   */\n      0x00\n        /* \"#utility.yul\":9737:9757   */\n      tag_289\n        /* \"#utility.yul\":9755:9756   */\n      dup3\n        /* \"#utility.yul\":9737:9757   */\n      tag_141\n      jump\t// in\n    tag_289:\n        /* \"#utility.yul\":9732:9757   */\n      swap2\n      pop\n        /* \"#utility.yul\":9771:9791   */\n      tag_290\n        /* \"#utility.yul\":9789:9790   */\n      dup4\n        /* \"#utility.yul\":9771:9791   */\n      tag_141\n      jump\t// in\n    tag_290:\n        /* \"#utility.yul\":9766:9791   */\n      swap3\n      pop\n        /* \"#utility.yul\":9810:9811   */\n      dup3\n        /* \"#utility.yul\":9800:9835   */\n      tag_291\n      jumpi\n        /* \"#utility.yul\":9815:9833   */\n      tag_292\n      tag_166\n      jump\t// in\n    tag_292:\n        /* \"#utility.yul\":9800:9835   */\n    tag_291:\n        /* \"#utility.yul\":9857:9858   */\n      dup3\n        /* \"#utility.yul\":9854:9855   */\n      dup3\n        /* \"#utility.yul\":9850:9859   */\n      div\n        /* \"#utility.yul\":9845:9859   */\n      swap1\n      pop\n        /* \"#utility.yul\":9680:9865   */\n      swap3\n      swap2\n      pop\n      pop\n      jump\t// out\n        /* \"#utility.yul\":9871:10051   */\n    tag_168:\n        /* \"#utility.yul\":9919:9996   */\n      0x4e487b7100000000000000000000000000000000000000000000000000000000\n        /* \"#utility.yul\":9916:9917   */\n      0x00\n        /* \"#utility.yul\":9909:9997   */\n      mstore\n        /* \"#utility.yul\":10016:10020   */\n      0x22\n        /* \"#utility.yul\":10013:10014   */\n      0x04\n        /* \"#utility.yul\":10006:10021   */\n      mstore\n        /* \"#utility.yul\":10040:10044   */\n      0x24\n        /* \"#utility.yul\":10037:10038   */\n      0x00\n        /* \"#utility.yul\":10030:10045   */\n      revert\n        /* \"#utility.yul\":10057:10377   */\n    tag_94:\n        /* \"#utility.yul\":10101:10107   */\n      0x00\n        /* \"#utility.yul\":10138:10139   */\n      0x02\n        /* \"#utility.yul\":10132:10136   */\n      dup3\n        /* \"#utility.yul\":10128:10140   */\n      div\n        /* \"#utility.yul\":10118:10140   */\n      swap1\n      pop\n        /* \"#utility.yul\":10185:10186   */\n      0x01\n        /* \"#utility.yul\":10179:10183   */\n      dup3\n        /* \"#utility.yul\":10175:10187   */\n      and\n        /* \"#utility.yul\":10206:10224   */\n      dup1\n        /* \"#utility.yul\":10196:10277   */\n      tag_295\n      jumpi\n        /* \"#utility.yul\":10262:10266   */\n      0x7f\n        /* \"#utility.yul\":10254:10260   */\n      dup3\n        /* \"#utility.yul\":10250:10267   */\n      and\n        /* \"#utility.yul\":10240:10267   */\n      swap2\n      pop\n        /* \"#utility.yul\":10196:10277   */\n    tag_295:\n        /* \"#utility.yul\":10324:10326   */\n      0x20\n        /* \"#utility.yul\":10316:10322   */\n      dup3\n        /* \"#utility.yul\":10313:10327   */\n      lt\n        /* \"#utility.yul\":10293:10311   */\n      dup2\n        /* \"#utility.yul\":10290:10328   */\n      sub\n        /* \"#utility.yul\":10287:10371   */\n      tag_296\n      jumpi\n        /* \"#utility.yul\":10343:10361   */\n      tag_297\n      tag_168\n      jump\t// in\n    tag_297:\n        /* \"#utility.yul\":10287:10371   */\n    tag_296:\n        /* \"#utility.yul\":10108:10377   */\n      pop\n        /* \"#utility.yul\":10057:10377   */\n      swap2\n      swap1\n      pop\n      jump\t// out\n        /* \"#utility.yul\":10383:10524   */\n    tag_169:\n        /* \"#utility.yul\":10432:10436   */\n      0x00\n        /* \"#utility.yul\":10455:10458   */\n      dup2\n        /* \"#utility.yul\":10447:10458   */\n      swap1\n      pop\n        /* \"#utility.yul\":10478:10481   */\n      dup2\n        /* \"#utility.yul\":10475:10476   */\n      0x00\n        /* \"#utility.yul\":10468:10482   */\n      mstore\n        /* \"#utility.yul\":10512:10516   */\n      0x20\n        /* \"#utility.yul\":10509:10510   */\n      0x00\n        /* \"#utility.yul\":10499:10517   */\n      keccak256\n        /* \"#utility.yul\":10491:10517   */\n      swap1\n      pop\n        /* \"#utility.yul\":10383:10524   */\n      swap2\n      swap1\n      pop\n      jump\t// out\n        /* \"#utility.yul\":10530:10623   */\n    tag_170:\n        /* \"#utility.yul\":10567:10573   */\n      0x00\n        /* \"#utility.yul\":10614:10616   */\n      0x20\n        /* \"#utility.yul\":10609:10611   */\n      0x1f\n        /* \"#utility.yul\":10602:10607   */\n      dup4\n        /* \"#utility.yul\":10598:10612   */\n      add\n        /* \"#utility.yul\":10594:10617   */\n      div\n        /* \"#utility.yul\":10584:10617   */\n      swap1\n      pop\n        /* \"#utility.yul\":10530:10623   */\n      swap2\n      swap1\n      pop\n      jump\t// out\n        /* \"#utility.yul\":10629:10736   */\n    tag_171:\n        /* \"#utility.yul\":10673:10681   */\n      0x00\n        /* \"#utility.yul\":10723:10728   */\n      dup3\n        /* \"#utility.yul\":10717:10721   */\n      dup3\n        /* \"#utility.yul\":10713:10729   */\n      shl\n        /* \"#utility.yul\":10692:10729   */\n      swap1\n      pop\n        /* \"#utility.yul\":10629:10736   */\n      swap3\n      swap2\n      pop\n      pop\n      jump\t// out\n        /* \"#utility.yul\":10742:11135   */\n    tag_172:\n        /* \"#utility.yul\":10811:10817   */\n      0x00\n        /* \"#utility.yul\":10861:10862   */\n      0x08\n        /* \"#utility.yul\":10849:10859   */\n      dup4\n        /* \"#utility.yul\":10845:10863   */\n      mul\n        /* \"#utility.yul\":10884:10981   */\n      tag_302\n        /* \"#utility.yul\":10914:10980   */\n      0xffffffffffffffffffffffffffffffffffffffffffffffffffffffffffffffff\n        /* \"#utility.yul\":10903:10912   */\n      dup3\n        /* \"#utility.yul\":10884:10981   */\n      tag_171\n      jump\t// in\n    tag_302:\n        /* \"#utility.yul\":11002:11041   */\n      tag_303\n        /* \"#utility.yul\":11032:11040   */\n      dup7\n        /* \"#utility.yul\":11021:11030   */\n      dup4\n        /* \"#utility.yul\":11002:11041   */\n      tag_171\n      jump\t// in\n    tag_303:\n        /* \"#utility.yul\":10990:11041   */\n      swap6\n      pop\n        /* \"#utility.yul\":11074:11078   */\n      dup1\n        /* \"#utility.yul\":11070:11079   */\n      not\n        /* \"#utility.yul\":11063:11068   */\n      dup5\n        /* \"#utility.yul\":11059:11080   */\n      and\n        /* \"#utility.yul\":11050:11080   */\n      swap4\n      pop\n        /* \"#utility.yul\":11123:11127   */\n      dup1\n        /* \"#utility.yul\":11113:11121   */\n      dup7\n        /* \"#utility.yul\":11109:11128   */\n      and\n        /* \"#utility.yul\":11102:11107   */\n      dup5\n        /* \"#utility.yul\":11099:11129   */\n      or\n        /* \"#utility.yul\":11089:11129   */\n      swap3\n      pop\n        /* \"#utility.yul\":10818:11135   */\n      pop\n      pop\n        /* \"#utility.yul\":10742:11135   */\n      swap4\n      swap3\n      pop\n      pop\n      pop\n      jump\t// out\n        /* \"#utility.yul\":11141:11201   */\n    tag_173:\n        /* \"#utility.yul\":11169:11172   */\n      0x00\n        /* \"#utility.yul\":11190:11195   */\n      dup2\n        /* \"#utility.yul\":11183:11195   */\n      swap1\n      pop\n        /* \"#utility.yul\":11141:11201   */\n      swap2\n      swap1\n      pop\n      jump\t// out\n        /* \"#utility.yul\":11207:11349   */\n    tag_174:\n        /* \"#utility.yul\":11257:11266   */\n      0x00\n        /* \"#utility.yul\":11290:11343   */\n      tag_306\n        /* \"#utility.yul\":11308:11342   */\n      tag_307\n        /* \"#utility.yul\":11317:11341   */\n      tag_308\n        /* \"#utility.yul\":11335:11340   */\n      dup5\n        /* \"#utility.yul\":11317:11341   */\n      tag_141\n      jump\t// in\n    tag_308:\n        /* \"#utility.yul\":11308:11342   */\n      tag_173\n      jump\t// in\n    tag_307:\n        /* \"#utility.yul\":11290:11343   */\n      tag_141\n      jump\t// in\n    tag_306:\n        /* \"#utility.yul\":11277:11343   */\n      swap1\n      pop\n        /* \"#utility.yul\":11207:11349   */\n      swap2\n      swap1\n      pop\n      jump\t// out\n        /* \"#utility.yul\":11355:11430   */\n    tag_175:\n        /* \"#utility.yul\":11398:11401   */\n      0x00\n        /* \"#utility.yul\":11419:11424   */\n      dup2\n        /* \"#utility.yul\":11412:11424   */\n      swap1\n      pop\n        /* \"#utility.yul\":11355:11430   */\n      swap2\n      swap1\n      pop\n      jump\t// out\n        /* \"#utility.yul\":11436:11705   */\n    tag_176:\n        /* \"#utility.yul\":11546:11585   */\n      tag_311\n        /* \"#utility.yul\":11577:11584   */\n      dup4\n        /* \"#utility.yul\":11546:11585   */\n      tag_174\n      jump\t// in\n    tag_311:\n        /* \"#utility.yul\":11607:11698   */\n      tag_312\n        /* \"#utility.yul\":11656:11697   */\n      tag_313\n        /* \"#utility.yul\":11680:11696   */\n      dup3\n        /* \"#utility.yul\":11656:11697   */\n      tag_175\n      jump\t// in\n    tag_313:\n        /* \"#utility.yul\":11648:11654   */\n      dup5\n        /* \"#utility.yul\":11641:11645   */\n      dup5\n        /* \"#utility.yul\":11635:11646   */\n      sload\n        /* \"#utility.yul\":11607:11698   */\n      tag_172\n      jump\t// in\n    tag_312:\n        /* \"#utility.yul\":11601:11605   */\n      dup3\n        /* \"#utility.yul\":11594:11699   */\n      sstore\n        /* \"#utility.yul\":11512:11705   */\n      pop\n        /* \"#utility.yul\":11436:11705   */\n      pop\n      pop\n      pop\n      jump\t// out\n        /* \"#utility.yul\":11711:11784   */\n    tag_177:\n        /* \"#utility.yul\":11756:11759   */\n      0x00\n        /* \"#utility.yul\":11711:11784   */\n      swap1\n      jump\t// out\n        /* \"#utility.yul\":11790:11979   */\n    tag_178:\n        /* \"#utility.yul\":11867:11899   */\n      tag_316\n      tag_177\n      jump\t// in\n    tag_316:\n        /* \"#utility.yul\":11908:11973   */\n      tag_317\n        /* \"#utility.yul\":11966:11972   */\n      dup2\n        /* \"#utility.yul\":11958:11964   */\n      dup5\n        /* \"#utility.yul\":11952:11956   */\n      dup5\n        /* \"#utility.yul\":11908:11973   */\n      tag_176\n      jump\t// in\n    tag_317:\n        /* \"#utility.yul\":11843:11979   */\n      pop\n        /* \"#utility.yul\":11790:11979   */\n      pop\n      pop\n      jump\t// out\n        /* \"#utility.yul\":11985:12171   */\n    tag_179:\n        /* \"#utility.yul\":12045:12165   */\n    tag_319:\n        /* \"#utility.yul\":12062:12065   */\n      dup2\n        /* \"#utility.yul\":12055:12060   */\n      dup2\n        /* \"#utility.yul\":12052:12066   */\n      lt\n        /* \"#utility.yul\":12045:12165   */\n      iszero\n      tag_321\n      jumpi\n        /* \"#utility.yul\":12116:12155   */\n      tag_322\n        /* \"#utility.yul\":12153:12154   */\n      0x00\n        /* \"#utility.yul\":12146:12151   */\n      dup3\n        /* \"#utility.yul\":12116:12155   */\n      tag_178\n      jump\t// in\n    tag_322:\n        /* \"#utility.yul\":12089:12090   */\n      0x01\n        /* \"#utility.yul\":12082:12087   */\n      dup2\n        /* \"#utility.yul\":12078:12091   */\n      add\n        /* \"#utility.yul\":12069:12091   */\n      swap1\n      pop\n        /* \"#utility.yul\":12045:12165   */\n      jump(tag_319)\n    tag_321:\n        /* \"#utility.yul\":11985:12171   */\n      pop\n      pop\n      jump\t// out\n        /* \"#utility.yul\":12177:12720   */\n    tag_180:\n        /* \"#utility.yul\":12278:12280   */\n      0x1f\n        /* \"#utility.yul\":12273:12276   */\n      dup3\n        /* \"#utility.yul\":12270:12281   */\n      gt\n        /* \"#utility.yul\":12267:12713   */\n      iszero\n      tag_324\n      jumpi\n        /* \"#utility.yul\":12312:12350   */\n      tag_325\n        /* \"#utility.yul\":12344:12349   */\n      dup2\n        /* \"#utility.yul\":12312:12350   */\n      tag_169\n      jump\t// in\n    tag_325:\n        /* \"#utility.yul\":12396:12425   */\n      tag_326\n        /* \"#utility.yul\":12414:12424   */\n      dup5\n        /* \"#utility.yul\":12396:12425   */\n      tag_170\n      jump\t// in\n    tag_326:\n        /* \"#utility.yul\":12386:12394   */\n      dup2\n        /* \"#utility.yul\":12382:12426   */\n      add\n        /* \"#utility.yul\":12579:12581   */\n      0x20\n        /* \"#utility.yul\":12567:12577   */\n      dup6\n        /* \"#utility.yul\":12564:12582   */\n      lt\n        /* \"#utility.yul\":12561:12610   */\n      iszero\n      tag_327\n      jumpi\n        /* \"#utility.yul\":12600:12608   */\n      dup2\n        /* \"#utility.yul\":12585:12608   */\n      swap1\n      pop\n        /* \"#utility.yul\":12561:12610   */\n    tag_327:\n        /* \"#utility.yul\":12623:12703   */\n      tag_328\n        /* \"#utility.yul\":12679:12701   */\n      tag_329\n        /* \"#utility.yul\":12697:12700   */\n      dup6\n        /* \"#utility.yul\":12679:12701   */\n      tag_170\n      jump\t// in\n    tag_329:\n        /* \"#utility.yul\":12669:12677   */\n      dup4\n        /* \"#utility.yul\":12665:12702   */\n      add\n        /* \"#utility.yul\":12652:12663   */\n      dup3\n        /* \"#utility.yul\":12623:12703   */\n      tag_179\n      jump\t// in\n    tag_328:\n        /* \"#utility.yul\":12282:12713   */\n      pop\n      pop\n        /* \"#utility.yul\":12267:12713   */\n    tag_324:\n        /* \"#utility.yul\":12177:12720   */\n      pop\n      pop\n      pop\n      jump\t// out\n        /* \"#utility.yul\":12726:12843   */\n    tag_181:\n        /* \"#utility.yul\":12780:12788   */\n      0x00\n        /* \"#utility.yul\":12830:12835   */\n      dup3\n        /* \"#utility.yul\":12824:12828   */\n      dup3\n        /* \"#utility.yul\":12820:12836   */\n      shr\n        /* \"#utility.yul\":12799:12836   */\n      swap1\n      pop\n        /* \"#utility.yul\":12726:12843   */\n      swap3\n      swap2\n      pop\n      pop\n      jump\t// out\n        /* \"#utility.yul\":12849:13018   */\n    tag_182:\n        /* \"#utility.yul\":12893:12899   */\n      0x00\n        /* \"#utility.yul\":12926:12977   */\n      tag_332\n        /* \"#utility.yul\":12974:12975   */\n      0x00\n        /* \"#utility.yul\":12970:12976   */\n      not\n        /* \"#utility.yul\":12962:12967   */\n      dup5\n        /* \"#utility.yul\":12959:12960   */\n      0x08\n        /* \"#utility.yul\":12955:12968   */\n      mul\n        /* \"#utility.yul\":12926:12977   */\n      tag_181\n      jump\t// in\n    tag_332:\n        /* \"#utility.yul\":12922:12978   */\n      not\n        /* \"#utility.yul\":13007:13011   */\n      dup1\n        /* \"#utility.yul\":13001:13005   */\n      dup4\n        /* \"#utility.yul\":12997:13012   */\n      and\n        /* \"#utility.yul\":12987:13012   */\n      swap2\n      pop\n        /* \"#utility.yul\":12900:13018   */\n      pop\n        /* \"#utility.yul\":12849:13018   */\n      swap3\n      swap2\n      pop\n      pop\n      jump\t// out\n        /* \"#utility.yul\":13023:13318   */\n    tag_183:\n        /* \"#utility.yul\":13099:13103   */\n      0x00\n        /* \"#utility.yul\":13245:13274   */\n      tag_334\n        /* \"#utility.yul\":13270:13273   */\n      dup4\n        /* \"#utility.yul\":13264:13268   */\n      dup4\n        /* \"#utility.yul\":13245:13274   */\n      tag_182\n      jump\t// in\n    tag_334:\n        /* \"#utility.yul\":13237:13274   */\n      swap2\n      pop\n        /* \"#utility.yul\":13307:13310   */\n      dup3\n        /* \"#utility.yul\":13304:13305   */\n      0x02\n        /* \"#utility.yul\":13300:13311   */\n      mul\n        /* \"#utility.yul\":13294:13298   */\n      dup3\n        /* \"#utility.yul\":13291:13312   */\n      or\n        /* \"#utility.yul\":13283:13312   */\n      swap1\n      pop\n        /* \"#utility.yul\":13023:13318   */\n      swap3\n      swap2\n      pop\n      pop\n      jump\t// out\n        /* \"#utility.yul\":13323:14718   */\n    tag_126:\n        /* \"#utility.yul\":13440:13477   */\n      tag_336\n        /* \"#utility.yul\":13473:13476   */\n      dup3\n        /* \"#utility.yul\":13440:13477   */\n      tag_152\n      jump\t// in\n    tag_336:\n        /* \"#utility.yul\":13542:13560   */\n      0xffffffffffffffff\n        /* \"#utility.yul\":13534:13540   */\n      dup2\n        /* \"#utility.yul\":13531:13561   */\n      gt\n        /* \"#utility.yul\":13528:13584   */\n      iszero\n      tag_337\n      jumpi\n        /* \"#utility.yul\":13564:13582   */\n      tag_338\n      tag_159\n      jump\t// in\n    tag_338:\n        /* \"#utility.yul\":13528:13584   */\n    tag_337:\n        /* \"#utility.yul\":13608:13646   */\n      tag_339\n        /* \"#utility.yul\":13640:13644   */\n      dup3\n        /* \"#utility.yul\":13634:13645   */\n      sload\n        /* \"#utility.yul\":13608:13646   */\n      tag_94\n      jump\t// in\n    tag_339:\n        /* \"#utility.yul\":13693:13760   */\n      tag_340\n        /* \"#utility.yul\":13753:13759   */\n      dup3\n        /* \"#utility.yul\":13745:13751   */\n      dup3\n        /* \"#utility.yul\":13739:13743   */\n      dup6\n        /* \"#utility.yul\":13693:13760   */\n      tag_180\n      jump\t// in\n    tag_340:\n        /* \"#utility.yul\":13787:13788   */\n      0x00\n        /* \"#utility.yul\":13811:13815   */\n      0x20\n        /* \"#utility.yul\":13798:13815   */\n      swap1\n      pop\n        /* \"#utility.yul\":13843:13845   */\n      0x1f\n        /* \"#utility.yul\":13835:13841   */\n      dup4\n        /* \"#utility.yul\":13832:13846   */\n      gt\n        /* \"#utility.yul\":13860:13861   */\n      0x01\n        /* \"#utility.yul\":13855:14473   */\n      dup2\n      eq\n      tag_342\n      jumpi\n        /* \"#utility.yul\":14517:14518   */\n      0x00\n        /* \"#utility.yul\":14534:14540   */\n      dup5\n        /* \"#utility.yul\":14531:14608   */\n      iszero\n      tag_343\n      jumpi\n        /* \"#utility.yul\":14583:14592   */\n      dup3\n        /* \"#utility.yul\":14578:14581   */\n      dup8\n        /* \"#utility.yul\":14574:14593   */\n      add\n        /* \"#utility.yul\":14568:14594   */\n      mload\n        /* \"#utility.yul\":14559:14594   */\n      swap1\n      pop\n        /* \"#utility.yul\":14531:14608   */\n    tag_343:\n        /* \"#utility.yul\":14634:14701   */\n      tag_344\n        /* \"#utility.yul\":14694:14700   */\n      dup6\n        /* \"#utility.yul\":14687:14692   */\n      dup3\n        /* \"#utility.yul\":14634:14701   */\n      tag_183\n      jump\t// in\n    tag_344:\n        /* \"#utility.yul\":14628:14632   */\n      dup7\n        /* \"#utility.yul\":14621:14702   */\n      sstore\n        /* \"#utility.yul\":14490:14712   */\n      pop\n        /* \"#utility.yul\":13825:14712   */\n      jump(tag_341)\n        /* \"#utility.yul\":13855:14473   */\n    tag_342:\n        /* \"#utility.yul\":13907:13911   */\n      0x1f\n        /* \"#utility.yul\":13903:13912   */\n      not\n        /* \"#utility.yul\":13895:13901   */\n      dup5\n        /* \"#utility.yul\":13891:13913   */\n      and\n        /* \"#utility.yul\":13941:13978   */\n      tag_345\n        /* \"#utility.yul\":13973:13977   */\n      dup7\n        /* \"#utility.yul\":13941:13978   */\n      tag_169\n      jump\t// in\n    tag_345:\n        /* \"#utility.yul\":14000:14001   */\n      0x00\n        /* \"#utility.yul\":14014:14222   */\n    tag_346:\n        /* \"#utility.yul\":14028:14035   */\n      dup3\n        /* \"#utility.yul\":14025:14026   */\n      dup2\n        /* \"#utility.yul\":14022:14036   */\n      lt\n        /* \"#utility.yul\":14014:14222   */\n      iszero\n      tag_348\n      jumpi\n        /* \"#utility.yul\":14107:14116   */\n      dup5\n        /* \"#utility.yul\":14102:14105   */\n      dup10\n        /* \"#utility.yul\":14098:14117   */\n      add\n        /* \"#utility.yul\":14092:14118   */\n      mload\n        /* \"#utility.yul\":14084:14090   */\n      dup3\n        /* \"#utility.yul\":14077:14119   */\n      sstore\n        /* \"#utility.yul\":14158:14159   */\n      0x01\n        /* \"#utility.yul\":14150:14156   */\n      dup3\n        /* \"#utility.yul\":14146:14160   */\n      add\n        /* \"#utility.yul\":14136:14160   */\n      swap2\n      pop\n        /* \"#utility.yul\":14205:14207   */\n      0x20\n        /* \"#utility.yul\":14194:14203   */\n      dup6\n        /* \"#utility.yul\":14190:14208   */\n      add\n        /* \"#utility.yul\":14177:14208   */\n      swap5\n      pop\n        /* \"#utility.yul\":14051:14055   */\n      0x20\n        /* \"#utility.yul\":14048:14049   */\n      dup2\n        /* \"#utility.yul\":14044:14056   */\n      add\n        /* \"#utility.yul\":14039:14056   */\n      swap1\n      pop\n        /* \"#utility.yul\":14014:14222   */\n      jump(tag_346)\n    tag_348:\n        /* \"#utility.yul\":14250:14256   */\n      dup7\n        /* \"#utility.yul\":14241:14248   */\n      dup4\n        /* \"#utility.yul\":14238:14257   */\n      lt\n        /* \"#utility.yul\":14235:14414   */\n      iszero\n      tag_349\n      jumpi\n        /* \"#utility.yul\":14308:14317   */\n      dup5\n        /* \"#utility.yul\":14303:14306   */\n      dup10\n        /* \"#utility.yul\":14299:14318   */\n      add\n        /* \"#utility.yul\":14293:14319   */\n      mload\n        /* \"#utility.yul\":14351:14399   */\n      tag_350\n        /* \"#utility.yul\":14393:14397   */\n      0x1f\n        /* \"#utility.yul\":14385:14391   */\n      dup10\n        /* \"#utility.yul\":14381:14398   */\n      and\n        /* \"#utility.yul\":14370:14379   */\n      dup3\n        /* \"#utility.yul\":14351:14399   */\n      tag_182\n      jump\t// in\n    tag_350:\n        /* \"#utility.yul\":14343:14349   */\n      dup4\n        /* \"#utility.yul\":14336:14400   */\n      sstore\n        /* \"#utility.yul\":14258:14414   */\n      pop\n        /* \"#utility.yul\":14235:14414   */\n    tag_349:\n        /* \"#utility.yul\":14460:14461   */\n      0x01\n        /* \"#utility.yul\":14456:14457   */\n      0x02\n        /* \"#utility.yul\":14448:14454   */\n      dup9\n        /* \"#utility.yul\":14444:14458   */\n      mul\n        /* \"#utility.yul\":14440:14462   */\n      add\n        /* \"#utility.yul\":14434:14438   */\n      dup9\n        /* \"#utility.yul\":14427:14463   */\n      sstore\n        /* \"#utility.yul\":13862:14473   */\n      pop\n      pop\n      pop\n        /* \"#utility.yul\":13825:14712   */\n    tag_341:\n      pop\n        /* \"#utility.yul\":13415:14718   */\n      pop\n      pop\n      pop\n        /* \"#utility.yul\":13323:14718   */\n      pop\n      pop\n      jump\t// out\n        /* \"#utility.yul\":14724:14957   */\n    tag_130:\n        /* \"#utility.yul\":14763:14766   */\n      0x00\n        /* \"#utility.yul\":14786:14810   */\n      tag_352\n        /* \"#utility.yul\":14804:14809   */\n      dup3\n        /* \"#utility.yul\":14786:14810   */\n      tag_141\n      jump\t// in\n    tag_352:\n        /* \"#utility.yul\":14777:14810   */\n      swap2\n      pop\n        /* \"#utility.yul\":14832:14898   */\n      0xffffffffffffffffffffffffffffffffffffffffffffffffffffffffffffffff\n        /* \"#utility.yul\":14825:14830   */\n      dup3\n        /* \"#utility.yul\":14822:14899   */\n      sub\n        /* \"#utility.yul\":14819:14922   */\n      tag_353\n      jumpi\n        /* \"#utility.yul\":14902:14920   */\n      tag_354\n      tag_167\n      jump\t// in\n    tag_354:\n        /* \"#utility.yul\":14819:14922   */\n    tag_353:\n        /* \"#utility.yul\":14949:14950   */\n      0x01\n        /* \"#utility.yul\":14942:14947   */\n      dup3\n        /* \"#utility.yul\":14938:14951   */\n      add\n        /* \"#utility.yul\":14931:14951   */\n      swap1\n      pop\n        /* \"#utility.yul\":14724:14957   */\n      swap2\n      swap1\n      pop\n      jump\t// out\n\n    auxdata: 0xa2646970667358221220efd7f36c03734893c3af01c23b80a34d9ee9ac4baab683da6faab27ec92a86af64736f6c634300080f0033\n}\n","bytecode":{"linkReferences":{},"object":"60806040523480156200001157600080fd5b5060405162001aab38038062001aab8339818101604052810190620000379190620002ea565b8060039081620000489190620005db565b5081600160006101000a81548173ffffffffffffffffffffffffffffffffffffffff021916908373ffffffffffffffffffffffffffffffffffffffff16021790555083600290816200009b9190620005db565b508260048190555050505050620006c2565b6000604051905090565b600080fd5b600080fd5b600080fd5b600080fd5b6000601f19601f8301169050919050565b7f4e487b7100000000000000000000000000000000000000000000000000000000600052604160045260246000fd5b6200011682620000cb565b810181811067ffffffffffffffff82111715620001385762000137620000dc565b5b80604052505050565b60006200014d620000ad565b90506200015b82826200010b565b919050565b600067ffffffffffffffff8211156200017e576200017d620000dc565b5b6200018982620000cb565b9050602081019050919050565b60005b83811015620001b657808201518184015260208101905062000199565b83811115620001c6576000848401525b50505050565b6000620001e3620001dd8462000160565b62000141565b905082815260208101848484011115620002025762000201620000c6565b5b6200020f84828562000196565b509392505050565b600082601f8301126200022f576200022e620000c1565b5b815162000241848260208601620001cc565b91505092915050565b6000819050919050565b6200025f816200024a565b81146200026b57600080fd5b50565b6000815190506200027f8162000254565b92915050565b600073ffffffffffffffffffffffffffffffffffffffff82169050919050565b6000620002b28262000285565b9050919050565b620002c481620002a5565b8114620002d057600080fd5b50565b600081519050620002e481620002b9565b92915050565b60008060008060808587031215620003075762000306620000b7565b5b600085015167ffffffffffffffff811115620003285762000327620000bc565b5b620003368782880162000217565b945050602062000349878288016200026e565b93505060406200035c87828801620002d3565b925050606085015167ffffffffffffffff81111562000380576200037f620000bc565b5b6200038e8782880162000217565b91505092959194509250565b600081519050919050565b7f4e487b7100000000000000000000000000000000000000000000000000000000600052602260045260246000fd5b60006002820490506001821680620003ed57607f821691505b602082108103620004035762000402620003a5565b5b50919050565b60008190508160005260206000209050919050565b60006020601f8301049050919050565b600082821b905092915050565b6000600883026200046d7fffffffffffffffffffffffffffffffffffffffffffffffffffffffffffffffff826200042e565b6200047986836200042e565b95508019841693508086168417925050509392505050565b6000819050919050565b6000620004bc620004b6620004b0846200024a565b62000491565b6200024a565b9050919050565b6000819050919050565b620004d8836200049b565b620004f0620004e782620004c3565b8484546200043b565b825550505050565b600090565b62000507620004f8565b62000514818484620004cd565b505050565b5b818110156200053c5762000530600082620004fd565b6001810190506200051a565b5050565b601f8211156200058b57620005558162000409565b62000560846200041e565b8101602085101562000570578190505b620005886200057f856200041e565b83018262000519565b50505b505050565b600082821c905092915050565b6000620005b06000198460080262000590565b1980831691505092915050565b6000620005cb83836200059d565b9150826002028217905092915050565b620005e6826200039a565b67ffffffffffffffff811115620006025762000601620000dc565b5b6200060e8254620003d4565b6200061b82828562000540565b600060209050601f8311600181146200065357600084156200063e578287015190505b6200064a8582620005bd565b865550620006ba565b601f198416620006638662000409565b60005b828110156200068d5784890151825560018201915060208501945060208101905062000666565b86831015620006ad5784890151620006a9601f8916826200059d565b8355505b6001600288020188555050505b505050505050565b6113d980620006d26000396000f3fe6080604052600436106100c25760003560e01c80635600f04f1161007f5780638a9cfd55116100595780638a9cfd5514610276578063937e09b11461029f578063d7bb99ba146102ca578063d7d1bbdb146102d4576100c2565b80635600f04f146101df57806381d12c581461020a57806382fde0931461024b576100c2565b806303441006146100c75780630a144391146100f05780633410452a1461012d5780634051ddac14610158578063481c6a75146101895780634a79d50c146101b4575b600080fd5b3480156100d357600080fd5b506100ee60048036038101906100e99190610b47565b6102fd565b005b3480156100fc57600080fd5b5061011760048036038101906101129190610bd2565b610446565b6040516101249190610c1a565b60405180910390f35b34801561013957600080fd5b50610142610466565b60405161014f9190610c44565b60405180910390f35b34801561016457600080fd5b5061016d610472565b6040516101809796959493929190610d07565b60405180910390f35b34801561019557600080fd5b5061019e6105e0565b6040516101ab9190610d84565b60405180910390f35b3480156101c057600080fd5b506101c9610606565b6040516101d69190610d9f565b60405180910390f35b3480156101eb57600080fd5b506101f4610694565b6040516102019190610d9f565b60405180910390f35b34801561021657600080fd5b50610231600480360381019061022c9190610b47565b610722565b604051610242959493929190610dc1565b60405180910390f35b34801561025757600080fd5b5061026061081d565b60405161026d9190610c44565b60405180910390f35b34801561028257600080fd5b5061029d60048036038101906102989190610f50565b610823565b005b3480156102ab57600080fd5b506102b461092b565b6040516102c19190610c44565b60405180910390f35b6102d2610931565b005b3480156102e057600080fd5b506102fb60048036038101906102f69190610b47565b6109b1565b005b600160009054906101000a900473ffffffffffffffffffffffffffffffffffffffff1673ffffffffffffffffffffffffffffffffffffffff163373ffffffffffffffffffffffffffffffffffffffff161461035757600080fd5b600080828154811061036c5761036b610fbf565b5b90600052602060002090600502019050600260065461038b919061104c565b81600301541161039a57600080fd5b8060020160149054906101000a900460ff16156103b657600080fd5b8060020160009054906101000a900473ffffffffffffffffffffffffffffffffffffffff1673ffffffffffffffffffffffffffffffffffffffff166108fc82600101549081150290604051600060405180830381858888f19350505050158015610424573d6000803e3d6000fd5b5060018160020160146101000a81548160ff0219169083151502179055505050565b60056020528060005260406000206000915054906101000a900460ff1681565b60008080549050905090565b600080600080600060608060045447600080549050600654600160009054906101000a900473ffffffffffffffffffffffffffffffffffffffff16600260038180546104bd906110ac565b80601f01602080910402602001604051908101604052809291908181526020018280546104e9906110ac565b80156105365780601f1061050b57610100808354040283529160200191610536565b820191906000526020600020905b81548152906001019060200180831161051957829003601f168201915b50505050509150808054610549906110ac565b80601f0160208091040260200160405190810160405280929190818152602001828054610575906110ac565b80156105c25780601f10610597576101008083540402835291602001916105c2565b820191906000526020600020905b8154815290600101906020018083116105a557829003601f168201915b50505050509050965096509650965096509650965090919293949596565b600160009054906101000a900473ffffffffffffffffffffffffffffffffffffffff1681565b60028054610613906110ac565b80601f016020809104026020016040519081016040528092919081815260200182805461063f906110ac565b801561068c5780601f106106615761010080835404028352916020019161068c565b820191906000526020600020905b81548152906001019060200180831161066f57829003601f168201915b505050505081565b600380546106a1906110ac565b80601f01602080910402602001604051908101604052809291908181526020018280546106cd906110ac565b801561071a5780601f106106ef5761010080835404028352916020019161071a565b820191906000526020600020905b8154815290600101906020018083116106fd57829003601f168201915b505050505081565b6000818154811061073257600080fd5b9060005260206000209060050201600091509050806000018054610755906110ac565b80601f0160208091040260200160405190810160405280929190818152602001828054610781906110ac565b80156107ce5780601f106107a3576101008083540402835291602001916107ce565b820191906000526020600020905b8154815290600101906020018083116107b157829003601f168201915b5050505050908060010154908060020160009054906101000a900473ffffffffffffffffffffffffffffffffffffffff16908060020160149054906101000a900460ff16908060030154905085565b60065481565b600160009054906101000a900473ffffffffffffffffffffffffffffffffffffffff1673ffffffffffffffffffffffffffffffffffffffff163373ffffffffffffffffffffffffffffffffffffffff161461087d57600080fd5b6000806001816001815401808255809150500390600052602060002090600502019050838160000190816108b19190611289565b50828160010181905550818160020160006101000a81548173ffffffffffffffffffffffffffffffffffffffff021916908373ffffffffffffffffffffffffffffffffffffffff16021790555060008160020160146101000a81548160ff0219169083151502179055506000816003018190555050505050565b60045481565b600454341161093f57600080fd5b6001600560003373ffffffffffffffffffffffffffffffffffffffff1673ffffffffffffffffffffffffffffffffffffffff16815260200190815260200160002060006101000a81548160ff021916908315150217905550600660008154809291906109aa9061135b565b9190505550565b60008082815481106109c6576109c5610fbf565b5b90600052602060002090600502019050600560003373ffffffffffffffffffffffffffffffffffffffff1673ffffffffffffffffffffffffffffffffffffffff16815260200190815260200160002060009054906101000a900460ff16610a2c57600080fd5b8060040160003373ffffffffffffffffffffffffffffffffffffffff1673ffffffffffffffffffffffffffffffffffffffff16815260200190815260200160002060009054906101000a900460ff1615610a8557600080fd5b60018160040160003373ffffffffffffffffffffffffffffffffffffffff1673ffffffffffffffffffffffffffffffffffffffff16815260200190815260200160002060006101000a81548160ff021916908315150217905550806003016000815480929190610af49061135b565b91905055505050565b6000604051905090565b600080fd5b600080fd5b6000819050919050565b610b2481610b11565b8114610b2f57600080fd5b50565b600081359050610b4181610b1b565b92915050565b600060208284031215610b5d57610b5c610b07565b5b6000610b6b84828501610b32565b91505092915050565b600073ffffffffffffffffffffffffffffffffffffffff82169050919050565b6000610b9f82610b74565b9050919050565b610baf81610b94565b8114610bba57600080fd5b50565b600081359050610bcc81610ba6565b92915050565b600060208284031215610be857610be7610b07565b5b6000610bf684828501610bbd565b91505092915050565b60008115159050919050565b610c1481610bff565b82525050565b6000602082019050610c2f6000830184610c0b565b92915050565b610c3e81610b11565b82525050565b6000602082019050610c596000830184610c35565b92915050565b610c6881610b94565b82525050565b600081519050919050565b600082825260208201905092915050565b60005b83811015610ca8578082015181840152602081019050610c8d565b83811115610cb7576000848401525b50505050565b6000601f19601f8301169050919050565b6000610cd982610c6e565b610ce38185610c79565b9350610cf3818560208601610c8a565b610cfc81610cbd565b840191505092915050565b600060e082019050610d1c600083018a610c35565b610d296020830189610c35565b610d366040830188610c35565b610d436060830187610c35565b610d506080830186610c5f565b81810360a0830152610d628185610cce565b905081810360c0830152610d768184610cce565b905098975050505050505050565b6000602082019050610d996000830184610c5f565b92915050565b60006020820190508181036000830152610db98184610cce565b905092915050565b600060a0820190508181036000830152610ddb8188610cce565b9050610dea6020830187610c35565b610df76040830186610c5f565b610e046060830185610c0b565b610e116080830184610c35565b9695505050505050565b600080fd5b600080fd5b7f4e487b7100000000000000000000000000000000000000000000000000000000600052604160045260246000fd5b610e5d82610cbd565b810181811067ffffffffffffffff82111715610e7c57610e7b610e25565b5b80604052505050565b6000610e8f610afd565b9050610e9b8282610e54565b919050565b600067ffffffffffffffff821115610ebb57610eba610e25565b5b610ec482610cbd565b9050602081019050919050565b82818337600083830152505050565b6000610ef3610eee84610ea0565b610e85565b905082815260208101848484011115610f0f57610f0e610e20565b5b610f1a848285610ed1565b509392505050565b600082601f830112610f3757610f36610e1b565b5b8135610f47848260208601610ee0565b91505092915050565b600080600060608486031215610f6957610f68610b07565b5b600084013567ffffffffffffffff811115610f8757610f86610b0c565b5b610f9386828701610f22565b9350506020610fa486828701610b32565b9250506040610fb586828701610bbd565b9150509250925092565b7f4e487b7100000000000000000000000000000000000000000000000000000000600052603260045260246000fd5b7f4e487b7100000000000000000000000000000000000000000000000000000000600052601260045260246000fd5b7f4e487b7100000000000000000000000000000000000000000000000000000000600052601160045260246000fd5b600061105782610b11565b915061106283610b11565b92508261107257611071610fee565b5b828204905092915050565b7f4e487b7100000000000000000000000000000000000000000000000000000000600052602260045260246000fd5b600060028204905060018216806110c457607f821691505b6020821081036110d7576110d661107d565b5b50919050565b60008190508160005260206000209050919050565b60006020601f8301049050919050565b600082821b905092915050565b60006008830261113f7fffffffffffffffffffffffffffffffffffffffffffffffffffffffffffffffff82611102565b6111498683611102565b95508019841693508086168417925050509392505050565b6000819050919050565b600061118661118161117c84610b11565b611161565b610b11565b9050919050565b6000819050919050565b6111a08361116b565b6111b46111ac8261118d565b84845461110f565b825550505050565b600090565b6111c96111bc565b6111d4818484611197565b505050565b5b818110156111f8576111ed6000826111c1565b6001810190506111da565b5050565b601f82111561123d5761120e816110dd565b611217846110f2565b81016020851015611226578190505b61123a611232856110f2565b8301826111d9565b50505b505050565b600082821c905092915050565b600061126060001984600802611242565b1980831691505092915050565b6000611279838361124f565b9150826002028217905092915050565b61129282610c6e565b67ffffffffffffffff8111156112ab576112aa610e25565b5b6112b582546110ac565b6112c08282856111fc565b600060209050601f8311600181146112f357600084156112e1578287015190505b6112eb858261126d565b865550611353565b601f198416611301866110dd565b60005b8281101561132957848901518255600182019150602085019450602081019050611304565b868310156113465784890151611342601f89168261124f565b8355505b6001600288020188555050505b505050505050565b600061136682610b11565b91507fffffffffffffffffffffffffffffffffffffffffffffffffffffffffffffffff82036113985761139761101d565b5b60018201905091905056fea2646970667358221220efd7f36c03734893c3af01c23b80a34d9ee9ac4baab683da6faab27ec92a86af64736f6c634300080f0033","opcodes":"PUSH1 0x80 PUSH1 0x40 MSTORE CALLVALUE DUP1 ISZERO PUSH3 0x11 JUMPI PUSH1 0x0 DUP1 REVERT JUMPDEST POP PUSH1 0x40 MLOAD PUSH3 0x1AAB CODESIZE SUB DUP1 PUSH3 0x1AAB DUP4 CODECOPY DUP2 DUP2 ADD PUSH1 0x40 MSTORE DUP2 ADD SWAP1 PUSH3 0x37 SWAP2 SWAP1 PUSH3 0x2EA JUMP JUMPDEST DUP1 PUSH1 0x3 SWAP1 DUP2 PUSH3 0x48 SWAP2 SWAP1 PUSH3 0x5DB JUMP JUMPDEST POP DUP2 PUSH1 0x1 PUSH1 0x0 PUSH2 0x100 EXP DUP2 SLOAD DUP2 PUSH20 0xFFFFFFFFFFFFFFFFFFFFFFFFFFFFFFFFFFFFFFFF MUL NOT AND SWAP1 DUP4 PUSH20 0xFFFFFFFFFFFFFFFFFFFFFFFFFFFFFFFFFFFFFFFF AND MUL OR SWAP1 SSTORE POP DUP4 PUSH1 0x2 SWAP1 DUP2 PUSH3 0x9B SWAP2 SWAP1 PUSH3 0x5DB JUMP JUMPDEST POP DUP3 PUSH1 0x4 DUP2 SWAP1 SSTORE POP POP POP POP POP PUSH3 0x6C2 JUMP JUMPDEST PUSH1 0x0 PUSH1 0x40 MLOAD SWAP1 POP SWAP1 JUMP JUMPDEST PUSH1 0x0 DUP1 REVERT JUMPDEST PUSH1 0x0 DUP1 REVERT JUMPDEST PUSH1 0x0 DUP1 REVERT JUMPDEST PUSH1 0x0 DUP1 REVERT JUMPDEST PUSH1 0x0 PUSH1 0x1F NOT PUSH1 0x1F DUP4 ADD AND SWAP1 POP SWAP2 SWAP1 POP JUMP JUMPDEST PUSH32 0x4E487B7100000000000000000000000000000000000000000000000000000000 PUSH1 0x0 MSTORE PUSH1 0x41 PUSH1 0x4 MSTORE PUSH1 0x24 PUSH1 0x0 REVERT JUMPDEST PUSH3 0x116 DUP3 PUSH3 0xCB JUMP JUMPDEST DUP2 ADD DUP2 DUP2 LT PUSH8 0xFFFFFFFFFFFFFFFF DUP3 GT OR ISZERO PUSH3 0x138 JUMPI PUSH3 0x137 PUSH3 0xDC JUMP JUMPDEST JUMPDEST DUP1 PUSH1 0x40 MSTORE POP POP POP JUMP JUMPDEST PUSH1 0x0 PUSH3 0x14D PUSH3 0xAD JUMP JUMPDEST SWAP1 POP PUSH3 0x15B DUP3 DUP3 PUSH3 0x10B JUMP JUMPDEST SWAP2 SWAP1 POP JUMP JUMPDEST PUSH1 0x0 PUSH8 0xFFFFFFFFFFFFFFFF DUP3 GT ISZERO PUSH3 0x17E JUMPI PUSH3 0x17D PUSH3 0xDC JUMP JUMPDEST JUMPDEST PUSH3 0x189 DUP3 PUSH3 0xCB JUMP JUMPDEST SWAP1 POP PUSH1 0x20 DUP2 ADD SWAP1 POP SWAP2 SWAP1 POP JUMP JUMPDEST PUSH1 0x0 JUMPDEST DUP4 DUP2 LT ISZERO PUSH3 0x1B6 JUMPI DUP1 DUP3 ADD MLOAD DUP2 DUP5 ADD MSTORE PUSH1 0x20 DUP2 ADD SWAP1 POP PUSH3 0x199 JUMP JUMPDEST DUP4 DUP2 GT ISZERO PUSH3 0x1C6 JUMPI PUSH1 0x0 DUP5 DUP5 ADD MSTORE JUMPDEST POP POP POP POP JUMP JUMPDEST PUSH1 0x0 PUSH3 0x1E3 PUSH3 0x1DD DUP5 PUSH3 0x160 JUMP JUMPDEST PUSH3 0x141 JUMP JUMPDEST SWAP1 POP DUP3 DUP2 MSTORE PUSH1 0x20 DUP2 ADD DUP5 DUP5 DUP5 ADD GT ISZERO PUSH3 0x202 JUMPI PUSH3 0x201 PUSH3 0xC6 JUMP JUMPDEST JUMPDEST PUSH3 0x20F DUP5 DUP3 DUP6 PUSH3 0x196 JUMP JUMPDEST POP SWAP4 SWAP3 POP POP POP JUMP JUMPDEST PUSH1 0x0 DUP3 PUSH1 0x1F DUP4 ADD SLT PUSH3 0x22F JUMPI PUSH3 0x22E PUSH3 0xC1 JUMP JUMPDEST JUMPDEST DUP2 MLOAD PUSH3 0x241 DUP5 DUP3 PUSH1 0x20 DUP7 ADD PUSH3 0x1CC JUMP JUMPDEST SWAP2 POP POP SWAP3 SWAP2 POP POP JUMP JUMPDEST PUSH1 0x0 DUP2 SWAP1 POP SWAP2 SWAP1 POP JUMP JUMPDEST PUSH3 0x25F DUP2 PUSH3 0x24A JUMP JUMPDEST DUP2 EQ PUSH3 0x26B JUMPI PUSH1 0x0 DUP1 REVERT JUMPDEST POP JUMP JUMPDEST PUSH1 0x0 DUP2 MLOAD SWAP1 POP PUSH3 0x27F DUP2 PUSH3 0x254 JUMP JUMPDEST SWAP3 SWAP2 POP POP JUMP JUMPDEST PUSH1 0x0 PUSH20 0xFFFFFFFFFFFFFFFFFFFFFFFFFFFFFFFFFFFFFFFF DUP3 AND SWAP1 POP SWAP2 SWAP1 POP JUMP JUMPDEST PUSH1 0x0 PUSH3 0x2B2 DUP3 PUSH3 0x285 JUMP JUMPDEST SWAP1 POP SWAP2 SWAP1 POP JUMP JUMPDEST PUSH3 0x2C4 DUP2 PUSH3 0x2A5 JUMP JUMPDEST DUP2 EQ PUSH3 0x2D0 JUMPI PUSH1 0x0 DUP1 REVERT JUMPDEST POP JUMP JUMPDEST PUSH1 0x0 DUP2 MLOAD SWAP1 POP PUSH3 0x2E4 DUP2 PUSH3 0x2B9 JUMP JUMPDEST SWAP3 SWAP2 POP POP JUMP JUMPDEST PUSH1 0x0 DUP1 PUSH1 0x0 DUP1 PUSH1 0x80 DUP6 DUP8 SUB SLT ISZERO PUSH3 0x307 JUMPI PUSH3 0x306 PUSH3 0xB7 JUMP JUMPDEST JUMPDEST PUSH1 0x0 DUP6 ADD MLOAD PUSH8 0xFFFFFFFFFFFFFFFF DUP2 GT ISZERO PUSH3 0x328 JUMPI PUSH3 0x327 PUSH3 0xBC JUMP JUMPDEST JUMPDEST PUSH3 0x336 DUP8 DUP3 DUP9 ADD PUSH3 0x217 JUMP JUMPDEST SWAP5 POP POP PUSH1 0x20 PUSH3 0x349 DUP8 DUP3 DUP9 ADD PUSH3 0x26E JUMP JUMPDEST SWAP4 POP POP PUSH1 0x40 PUSH3 0x35C DUP8 DUP3 DUP9 ADD PUSH3 0x2D3 JUMP JUMPDEST SWAP3 POP POP PUSH1 0x60 DUP6 ADD MLOAD PUSH8 0xFFFFFFFFFFFFFFFF DUP2 GT ISZERO PUSH3 0x380 JUMPI PUSH3 0x37F PUSH3 0xBC JUMP JUMPDEST JUMPDEST PUSH3 0x38E DUP8 DUP3 DUP9 ADD PUSH3 0x217 JUMP JUMPDEST SWAP2 POP POP SWAP3 SWAP6 SWAP2 SWAP5 POP SWAP3 POP JUMP JUMPDEST PUSH1 0x0 DUP2 MLOAD SWAP1 POP SWAP2 SWAP1 POP JUMP JUMPDEST PUSH32 0x4E487B7100000000000000000000000000000000000000000000000000000000 PUSH1 0x0 MSTORE PUSH1 0x22 PUSH1 0x4 MSTORE PUSH1 0x24 PUSH1 0x0 REVERT JUMPDEST PUSH1 0x0 PUSH1 0x2 DUP3 DIV SWAP1 POP PUSH1 0x1 DUP3 AND DUP1 PUSH3 0x3ED JUMPI PUSH1 0x7F DUP3 AND SWAP2 POP JUMPDEST PUSH1 0x20 DUP3 LT DUP2 SUB PUSH3 0x403 JUMPI PUSH3 0x402 PUSH3 0x3A5 JUMP JUMPDEST JUMPDEST POP SWAP2 SWAP1 POP JUMP JUMPDEST PUSH1 0x0 DUP2 SWAP1 POP DUP2 PUSH1 0x0 MSTORE PUSH1 0x20 PUSH1 0x0 KECCAK256 SWAP1 POP SWAP2 SWAP1 POP JUMP JUMPDEST PUSH1 0x0 PUSH1 0x20 PUSH1 0x1F DUP4 ADD DIV SWAP1 POP SWAP2 SWAP1 POP JUMP JUMPDEST PUSH1 0x0 DUP3 DUP3 SHL SWAP1 POP SWAP3 SWAP2 POP POP JUMP JUMPDEST PUSH1 0x0 PUSH1 0x8 DUP4 MUL PUSH3 0x46D PUSH32 0xFFFFFFFFFFFFFFFFFFFFFFFFFFFFFFFFFFFFFFFFFFFFFFFFFFFFFFFFFFFFFFFF DUP3 PUSH3 0x42E JUMP JUMPDEST PUSH3 0x479 DUP7 DUP4 PUSH3 0x42E JUMP JUMPDEST SWAP6 POP DUP1 NOT DUP5 AND SWAP4 POP DUP1 DUP7 AND DUP5 OR SWAP3 POP POP POP SWAP4 SWAP3 POP POP POP JUMP JUMPDEST PUSH1 0x0 DUP2 SWAP1 POP SWAP2 SWAP1 POP JUMP JUMPDEST PUSH1 0x0 PUSH3 0x4BC PUSH3 0x4B6 PUSH3 0x4B0 DUP5 PUSH3 0x24A JUMP JUMPDEST PUSH3 0x491 JUMP JUMPDEST PUSH3 0x24A JUMP JUMPDEST SWAP1 POP SWAP2 SWAP1 POP JUMP JUMPDEST PUSH1 0x0 DUP2 SWAP1 POP SWAP2 SWAP1 POP JUMP JUMPDEST PUSH3 0x4D8 DUP4 PUSH3 0x49B JUMP JUMPDEST PUSH3 0x4F0 PUSH3 0x4E7 DUP3 PUSH3 0x4C3 JUMP JUMPDEST DUP5 DUP5 SLOAD PUSH3 0x43B JUMP JUMPDEST DUP3 SSTORE POP POP POP POP JUMP JUMPDEST PUSH1 0x0 SWAP1 JUMP JUMPDEST PUSH3 0x507 PUSH3 0x4F8 JUMP JUMPDEST PUSH3 0x514 DUP2 DUP5 DUP5 PUSH3 0x4CD JUMP JUMPDEST POP POP POP JUMP JUMPDEST JUMPDEST DUP2 DUP2 LT ISZERO PUSH3 0x53C JUMPI PUSH3 0x530 PUSH1 0x0 DUP3 PUSH3 0x4FD JUMP JUMPDEST PUSH1 0x1 DUP2 ADD SWAP1 POP PUSH3 0x51A JUMP JUMPDEST POP POP JUMP JUMPDEST PUSH1 0x1F DUP3 GT ISZERO PUSH3 0x58B JUMPI PUSH3 0x555 DUP2 PUSH3 0x409 JUMP JUMPDEST PUSH3 0x560 DUP5 PUSH3 0x41E JUMP JUMPDEST DUP2 ADD PUSH1 0x20 DUP6 LT ISZERO PUSH3 0x570 JUMPI DUP2 SWAP1 POP JUMPDEST PUSH3 0x588 PUSH3 0x57F DUP6 PUSH3 0x41E JUMP JUMPDEST DUP4 ADD DUP3 PUSH3 0x519 JUMP JUMPDEST POP POP JUMPDEST POP POP POP JUMP JUMPDEST PUSH1 0x0 DUP3 DUP3 SHR SWAP1 POP SWAP3 SWAP2 POP POP JUMP JUMPDEST PUSH1 0x0 PUSH3 0x5B0 PUSH1 0x0 NOT DUP5 PUSH1 0x8 MUL PUSH3 0x590 JUMP JUMPDEST NOT DUP1 DUP4 AND SWAP2 POP POP SWAP3 SWAP2 POP POP JUMP JUMPDEST PUSH1 0x0 PUSH3 0x5CB DUP4 DUP4 PUSH3 0x59D JUMP JUMPDEST SWAP2 POP DUP3 PUSH1 0x2 MUL DUP3 OR SWAP1 POP SWAP3 SWAP2 POP POP JUMP JUMPDEST PUSH3 0x5E6 DUP3 PUSH3 0x39A JUMP JUMPDEST PUSH8 0xFFFFFFFFFFFFFFFF DUP2 GT ISZERO PUSH3 0x602 JUMPI PUSH3 0x601 PUSH3 0xDC JUMP JUMPDEST JUMPDEST PUSH3 0x60E DUP3 SLOAD PUSH3 0x3D4 JUMP JUMPDEST PUSH3 0x61B DUP3 DUP3 DUP6 PUSH3 0x540 JUMP JUMPDEST PUSH1 0x0 PUSH1 0x20 SWAP1 POP PUSH1 0x1F DUP4 GT PUSH1 0x1 DUP2 EQ PUSH3 0x653 JUMPI PUSH1 0x0 DUP5 ISZERO PUSH3 0x63E JUMPI DUP3 DUP8 ADD MLOAD SWAP1 POP JUMPDEST PUSH3 0x64A DUP6 DUP3 PUSH3 0x5BD JUMP JUMPDEST DUP7 SSTORE POP PUSH3 0x6BA JUMP JUMPDEST PUSH1 0x1F NOT DUP5 AND PUSH3 0x663 DUP7 PUSH3 0x409 JUMP JUMPDEST PUSH1 0x0 JUMPDEST DUP3 DUP2 LT ISZERO PUSH3 0x68D JUMPI DUP5 DUP10 ADD MLOAD DUP3 SSTORE PUSH1 0x1 DUP3 ADD SWAP2 POP PUSH1 0x20 DUP6 ADD SWAP5 POP PUSH1 0x20 DUP2 ADD SWAP1 POP PUSH3 0x666 JUMP JUMPDEST DUP7 DUP4 LT ISZERO PUSH3 0x6AD JUMPI DUP5 DUP10 ADD MLOAD PUSH3 0x6A9 PUSH1 0x1F DUP10 AND DUP3 PUSH3 0x59D JUMP JUMPDEST DUP4 SSTORE POP JUMPDEST PUSH1 0x1 PUSH1 0x2 DUP9 MUL ADD DUP9 SSTORE POP POP POP JUMPDEST POP POP POP POP POP POP JUMP JUMPDEST PUSH2 0x13D9 DUP1 PUSH3 0x6D2 PUSH1 0x0 CODECOPY PUSH1 0x0 RETURN INVALID PUSH1 0x80 PUSH1 0x40 MSTORE PUSH1 0x4 CALLDATASIZE LT PUSH2 0xC2 JUMPI PUSH1 0x0 CALLDATALOAD PUSH1 0xE0 SHR DUP1 PUSH4 0x5600F04F GT PUSH2 0x7F JUMPI DUP1 PUSH4 0x8A9CFD55 GT PUSH2 0x59 JUMPI DUP1 PUSH4 0x8A9CFD55 EQ PUSH2 0x276 JUMPI DUP1 PUSH4 0x937E09B1 EQ PUSH2 0x29F JUMPI DUP1 PUSH4 0xD7BB99BA EQ PUSH2 0x2CA JUMPI DUP1 PUSH4 0xD7D1BBDB EQ PUSH2 0x2D4 JUMPI PUSH2 0xC2 JUMP JUMPDEST DUP1 PUSH4 0x5600F04F EQ PUSH2 0x1DF JUMPI DUP1 PUSH4 0x81D12C58 EQ PUSH2 0x20A JUMPI DUP1 PUSH4 0x82FDE093 EQ PUSH2 0x24B JUMPI PUSH2 0xC2 JUMP JUMPDEST DUP1 PUSH4 0x3441006 EQ PUSH2 0xC7 JUMPI DUP1 PUSH4 0xA144391 EQ PUSH2 0xF0 JUMPI DUP1 PUSH4 0x3410452A EQ PUSH2 0x12D JUMPI DUP1 PUSH4 0x4051DDAC EQ PUSH2 0x158 JUMPI DUP1 PUSH4 0x481C6A75 EQ PUSH2 0x189 JUMPI DUP1 PUSH4 0x4A79D50C EQ PUSH2 0x1B4 JUMPI JUMPDEST PUSH1 0x0 DUP1 REVERT JUMPDEST CALLVALUE DUP1 ISZERO PUSH2 0xD3 JUMPI PUSH1 0x0 DUP1 REVERT JUMPDEST POP PUSH2 0xEE PUSH1 0x4 DUP1 CALLDATASIZE SUB DUP2 ADD SWAP1 PUSH2 0xE9 SWAP2 SWAP1 PUSH2 0xB47 JUMP JUMPDEST PUSH2 0x2FD JUMP JUMPDEST STOP JUMPDEST CALLVALUE DUP1 ISZERO PUSH2 0xFC JUMPI PUSH1 0x0 DUP1 REVERT JUMPDEST POP PUSH2 0x117 PUSH1 0x4 DUP1 CALLDATASIZE SUB DUP2 ADD SWAP1 PUSH2 0x112 SWAP2 SWAP1 PUSH2 0xBD2 JUMP JUMPDEST PUSH2 0x446 JUMP JUMPDEST PUSH1 0x40 MLOAD PUSH2 0x124 SWAP2 SWAP1 PUSH2 0xC1A JUMP JUMPDEST PUSH1 0x40 MLOAD DUP1 SWAP2 SUB SWAP1 RETURN JUMPDEST CALLVALUE DUP1 ISZERO PUSH2 0x139 JUMPI PUSH1 0x0 DUP1 REVERT JUMPDEST POP PUSH2 0x142 PUSH2 0x466 JUMP JUMPDEST PUSH1 0x40 MLOAD PUSH2 0x14F SWAP2 SWAP1 PUSH2 0xC44 JUMP JUMPDEST PUSH1 0x40 MLOAD DUP1 SWAP2 SUB SWAP1 RETURN JUMPDEST CALLVALUE DUP1 ISZERO PUSH2 0x164 JUMPI PUSH1 0x0 DUP1 REVERT JUMPDEST POP PUSH2 0x16D PUSH2 0x472 JUMP JUMPDEST PUSH1 0x40 MLOAD PUSH2 0x180 SWAP8 SWAP7 SWAP6 SWAP5 SWAP4 SWAP3 SWAP2 SWAP1 PUSH2 0xD07 JUMP JUMPDEST PUSH1 0x40 MLOAD DUP1 SWAP2 SUB SWAP1 RETURN JUMPDEST CALLVALUE DUP1 ISZERO PUSH2 0x195 JUMPI PUSH1 0x0 DUP1 REVERT JUMPDEST POP PUSH2 0x19E PUSH2 0x5E0 JUMP JUMPDEST PUSH1 0x40 MLOAD PUSH2 0x1AB SWAP2 SWAP1 PUSH2 0xD84 JUMP JUMPDEST PUSH1 0x40 MLOAD DUP1 SWAP2 SUB SWAP1 RETURN JUMPDEST CALLVALUE DUP1 ISZERO PUSH2 0x1C0 JUMPI PUSH1 0x0 DUP1 REVERT JUMPDEST POP PUSH2 0x1C9 PUSH2 0x606 JUMP JUMPDEST PUSH1 0x40 MLOAD PUSH2 0x1D6 SWAP2 SWAP1 PUSH2 0xD9F JUMP JUMPDEST PUSH1 0x40 MLOAD DUP1 SWAP2 SUB SWAP1 RETURN JUMPDEST CALLVALUE DUP1 ISZERO PUSH2 0x1EB JUMPI PUSH1 0x0 DUP1 REVERT JUMPDEST POP PUSH2 0x1F4 PUSH2 0x694 JUMP JUMPDEST PUSH1 0x40 MLOAD PUSH2 0x201 SWAP2 SWAP1 PUSH2 0xD9F JUMP JUMPDEST PUSH1 0x40 MLOAD DUP1 SWAP2 SUB SWAP1 RETURN JUMPDEST CALLVALUE DUP1 ISZERO PUSH2 0x216 JUMPI PUSH1 0x0 DUP1 REVERT JUMPDEST POP PUSH2 0x231 PUSH1 0x4 DUP1 CALLDATASIZE SUB DUP2 ADD SWAP1 PUSH2 0x22C SWAP2 SWAP1 PUSH2 0xB47 JUMP JUMPDEST PUSH2 0x722 JUMP JUMPDEST PUSH1 0x40 MLOAD PUSH2 0x242 SWAP6 SWAP5 SWAP4 SWAP3 SWAP2 SWAP1 PUSH2 0xDC1 JUMP JUMPDEST PUSH1 0x40 MLOAD DUP1 SWAP2 SUB SWAP1 RETURN JUMPDEST CALLVALUE DUP1 ISZERO PUSH2 0x257 JUMPI PUSH1 0x0 DUP1 REVERT JUMPDEST POP PUSH2 0x260 PUSH2 0x81D JUMP JUMPDEST PUSH1 0x40 MLOAD PUSH2 0x26D SWAP2 SWAP1 PUSH2 0xC44 JUMP JUMPDEST PUSH1 0x40 MLOAD DUP1 SWAP2 SUB SWAP1 RETURN JUMPDEST CALLVALUE DUP1 ISZERO PUSH2 0x282 JUMPI PUSH1 0x0 DUP1 REVERT JUMPDEST POP PUSH2 0x29D PUSH1 0x4 DUP1 CALLDATASIZE SUB DUP2 ADD SWAP1 PUSH2 0x298 SWAP2 SWAP1 PUSH2 0xF50 JUMP JUMPDEST PUSH2 0x823 JUMP JUMPDEST STOP JUMPDEST CALLVALUE DUP1 ISZERO PUSH2 0x2AB JUMPI PUSH1 0x0 DUP1 REVERT JUMPDEST POP PUSH2 0x2B4 PUSH2 0x92B JUMP JUMPDEST PUSH1 0x40 MLOAD PUSH2 0x2C1 SWAP2 SWAP1 PUSH2 0xC44 JUMP JUMPDEST PUSH1 0x40 MLOAD DUP1 SWAP2 SUB SWAP1 RETURN JUMPDEST PUSH2 0x2D2 PUSH2 0x931 JUMP JUMPDEST STOP JUMPDEST CALLVALUE DUP1 ISZERO PUSH2 0x2E0 JUMPI PUSH1 0x0 DUP1 REVERT JUMPDEST POP PUSH2 0x2FB PUSH1 0x4 DUP1 CALLDATASIZE SUB DUP2 ADD SWAP1 PUSH2 0x2F6 SWAP2 SWAP1 PUSH2 0xB47 JUMP JUMPDEST PUSH2 0x9B1 JUMP JUMPDEST STOP JUMPDEST PUSH1 0x1 PUSH1 0x0 SWAP1 SLOAD SWAP1 PUSH2 0x100 EXP SWAP1 DIV PUSH20 0xFFFFFFFFFFFFFFFFFFFFFFFFFFFFFFFFFFFFFFFF AND PUSH20 0xFFFFFFFFFFFFFFFFFFFFFFFFFFFFFFFFFFFFFFFF AND CALLER PUSH20 0xFFFFFFFFFFFFFFFFFFFFFFFFFFFFFFFFFFFFFFFF AND EQ PUSH2 0x357 JUMPI PUSH1 0x0 DUP1 REVERT JUMPDEST PUSH1 0x0 DUP1 DUP3 DUP2 SLOAD DUP2 LT PUSH2 0x36C JUMPI PUSH2 0x36B PUSH2 0xFBF JUMP JUMPDEST JUMPDEST SWAP1 PUSH1 0x0 MSTORE PUSH1 0x20 PUSH1 0x0 KECCAK256 SWAP1 PUSH1 0x5 MUL ADD SWAP1 POP PUSH1 0x2 PUSH1 0x6 SLOAD PUSH2 0x38B SWAP2 SWAP1 PUSH2 0x104C JUMP JUMPDEST DUP2 PUSH1 0x3 ADD SLOAD GT PUSH2 0x39A JUMPI PUSH1 0x0 DUP1 REVERT JUMPDEST DUP1 PUSH1 0x2 ADD PUSH1 0x14 SWAP1 SLOAD SWAP1 PUSH2 0x100 EXP SWAP1 DIV PUSH1 0xFF AND ISZERO PUSH2 0x3B6 JUMPI PUSH1 0x0 DUP1 REVERT JUMPDEST DUP1 PUSH1 0x2 ADD PUSH1 0x0 SWAP1 SLOAD SWAP1 PUSH2 0x100 EXP SWAP1 DIV PUSH20 0xFFFFFFFFFFFFFFFFFFFFFFFFFFFFFFFFFFFFFFFF AND PUSH20 0xFFFFFFFFFFFFFFFFFFFFFFFFFFFFFFFFFFFFFFFF AND PUSH2 0x8FC DUP3 PUSH1 0x1 ADD SLOAD SWAP1 DUP2 ISZERO MUL SWAP1 PUSH1 0x40 MLOAD PUSH1 0x0 PUSH1 0x40 MLOAD DUP1 DUP4 SUB DUP2 DUP6 DUP9 DUP9 CALL SWAP4 POP POP POP POP ISZERO DUP1 ISZERO PUSH2 0x424 JUMPI RETURNDATASIZE PUSH1 0x0 DUP1 RETURNDATACOPY RETURNDATASIZE PUSH1 0x0 REVERT JUMPDEST POP PUSH1 0x1 DUP2 PUSH1 0x2 ADD PUSH1 0x14 PUSH2 0x100 EXP DUP2 SLOAD DUP2 PUSH1 0xFF MUL NOT AND SWAP1 DUP4 ISZERO ISZERO MUL OR SWAP1 SSTORE POP POP POP JUMP JUMPDEST PUSH1 0x5 PUSH1 0x20 MSTORE DUP1 PUSH1 0x0 MSTORE PUSH1 0x40 PUSH1 0x0 KECCAK256 PUSH1 0x0 SWAP2 POP SLOAD SWAP1 PUSH2 0x100 EXP SWAP1 DIV PUSH1 0xFF AND DUP2 JUMP JUMPDEST PUSH1 0x0 DUP1 DUP1 SLOAD SWAP1 POP SWAP1 POP SWAP1 JUMP JUMPDEST PUSH1 0x0 DUP1 PUSH1 0x0 DUP1 PUSH1 0x0 PUSH1 0x60 DUP1 PUSH1 0x4 SLOAD SELFBALANCE PUSH1 0x0 DUP1 SLOAD SWAP1 POP PUSH1 0x6 SLOAD PUSH1 0x1 PUSH1 0x0 SWAP1 SLOAD SWAP1 PUSH2 0x100 EXP SWAP1 DIV PUSH20 0xFFFFFFFFFFFFFFFFFFFFFFFFFFFFFFFFFFFFFFFF AND PUSH1 0x2 PUSH1 0x3 DUP2 DUP1 SLOAD PUSH2 0x4BD SWAP1 PUSH2 0x10AC JUMP JUMPDEST DUP1 PUSH1 0x1F ADD PUSH1 0x20 DUP1 SWAP2 DIV MUL PUSH1 0x20 ADD PUSH1 0x40 MLOAD SWAP1 DUP2 ADD PUSH1 0x40 MSTORE DUP1 SWAP3 SWAP2 SWAP1 DUP2 DUP2 MSTORE PUSH1 0x20 ADD DUP3 DUP1 SLOAD PUSH2 0x4E9 SWAP1 PUSH2 0x10AC JUMP JUMPDEST DUP1 ISZERO PUSH2 0x536 JUMPI DUP1 PUSH1 0x1F LT PUSH2 0x50B JUMPI PUSH2 0x100 DUP1 DUP4 SLOAD DIV MUL DUP4 MSTORE SWAP2 PUSH1 0x20 ADD SWAP2 PUSH2 0x536 JUMP JUMPDEST DUP3 ADD SWAP2 SWAP1 PUSH1 0x0 MSTORE PUSH1 0x20 PUSH1 0x0 KECCAK256 SWAP1 JUMPDEST DUP2 SLOAD DUP2 MSTORE SWAP1 PUSH1 0x1 ADD SWAP1 PUSH1 0x20 ADD DUP1 DUP4 GT PUSH2 0x519 JUMPI DUP3 SWAP1 SUB PUSH1 0x1F AND DUP3 ADD SWAP2 JUMPDEST POP POP POP POP POP SWAP2 POP DUP1 DUP1 SLOAD PUSH2 0x549 SWAP1 PUSH2 0x10AC JUMP JUMPDEST DUP1 PUSH1 0x1F ADD PUSH1 0x20 DUP1 SWAP2 DIV MUL PUSH1 0x20 ADD PUSH1 0x40 MLOAD SWAP1 DUP2 ADD PUSH1 0x40 MSTORE DUP1 SWAP3 SWAP2 SWAP1 DUP2 DUP2 MSTORE PUSH1 0x20 ADD DUP3 DUP1 SLOAD PUSH2 0x575 SWAP1 PUSH2 0x10AC JUMP JUMPDEST DUP1 ISZERO PUSH2 0x5C2 JUMPI DUP1 PUSH1 0x1F LT PUSH2 0x597 JUMPI PUSH2 0x100 DUP1 DUP4 SLOAD DIV MUL DUP4 MSTORE SWAP2 PUSH1 0x20 ADD SWAP2 PUSH2 0x5C2 JUMP JUMPDEST DUP3 ADD SWAP2 SWAP1 PUSH1 0x0 MSTORE PUSH1 0x20 PUSH1 0x0 KECCAK256 SWAP1 JUMPDEST DUP2 SLOAD DUP2 MSTORE SWAP1 PUSH1 0x1 ADD SWAP1 PUSH1 0x20 ADD DUP1 DUP4 GT PUSH2 0x5A5 JUMPI DUP3 SWAP1 SUB PUSH1 0x1F AND DUP3 ADD SWAP2 JUMPDEST POP POP POP POP POP SWAP1 POP SWAP7 POP SWAP7 POP SWAP7 POP SWAP7 POP SWAP7 POP SWAP7 POP SWAP7 POP SWAP1 SWAP2 SWAP3 SWAP4 SWAP5 SWAP6 SWAP7 JUMP JUMPDEST PUSH1 0x1 PUSH1 0x0 SWAP1 SLOAD SWAP1 PUSH2 0x100 EXP SWAP1 DIV PUSH20 0xFFFFFFFFFFFFFFFFFFFFFFFFFFFFFFFFFFFFFFFF AND DUP2 JUMP JUMPDEST PUSH1 0x2 DUP1 SLOAD PUSH2 0x613 SWAP1 PUSH2 0x10AC JUMP JUMPDEST DUP1 PUSH1 0x1F ADD PUSH1 0x20 DUP1 SWAP2 DIV MUL PUSH1 0x20 ADD PUSH1 0x40 MLOAD SWAP1 DUP2 ADD PUSH1 0x40 MSTORE DUP1 SWAP3 SWAP2 SWAP1 DUP2 DUP2 MSTORE PUSH1 0x20 ADD DUP3 DUP1 SLOAD PUSH2 0x63F SWAP1 PUSH2 0x10AC JUMP JUMPDEST DUP1 ISZERO PUSH2 0x68C JUMPI DUP1 PUSH1 0x1F LT PUSH2 0x661 JUMPI PUSH2 0x100 DUP1 DUP4 SLOAD DIV MUL DUP4 MSTORE SWAP2 PUSH1 0x20 ADD SWAP2 PUSH2 0x68C JUMP JUMPDEST DUP3 ADD SWAP2 SWAP1 PUSH1 0x0 MSTORE PUSH1 0x20 PUSH1 0x0 KECCAK256 SWAP1 JUMPDEST DUP2 SLOAD DUP2 MSTORE SWAP1 PUSH1 0x1 ADD SWAP1 PUSH1 0x20 ADD DUP1 DUP4 GT PUSH2 0x66F JUMPI DUP3 SWAP1 SUB PUSH1 0x1F AND DUP3 ADD SWAP2 JUMPDEST POP POP POP POP POP DUP2 JUMP JUMPDEST PUSH1 0x3 DUP1 SLOAD PUSH2 0x6A1 SWAP1 PUSH2 0x10AC JUMP JUMPDEST DUP1 PUSH1 0x1F ADD PUSH1 0x20 DUP1 SWAP2 DIV MUL PUSH1 0x20 ADD PUSH1 0x40 MLOAD SWAP1 DUP2 ADD PUSH1 0x40 MSTORE DUP1 SWAP3 SWAP2 SWAP1 DUP2 DUP2 MSTORE PUSH1 0x20 ADD DUP3 DUP1 SLOAD PUSH2 0x6CD SWAP1 PUSH2 0x10AC JUMP JUMPDEST DUP1 ISZERO PUSH2 0x71A JUMPI DUP1 PUSH1 0x1F LT PUSH2 0x6EF JUMPI PUSH2 0x100 DUP1 DUP4 SLOAD DIV MUL DUP4 MSTORE SWAP2 PUSH1 0x20 ADD SWAP2 PUSH2 0x71A JUMP JUMPDEST DUP3 ADD SWAP2 SWAP1 PUSH1 0x0 MSTORE PUSH1 0x20 PUSH1 0x0 KECCAK256 SWAP1 JUMPDEST DUP2 SLOAD DUP2 MSTORE SWAP1 PUSH1 0x1 ADD SWAP1 PUSH1 0x20 ADD DUP1 DUP4 GT PUSH2 0x6FD JUMPI DUP3 SWAP1 SUB PUSH1 0x1F AND DUP3 ADD SWAP2 JUMPDEST POP POP POP POP POP DUP2 JUMP JUMPDEST PUSH1 0x0 DUP2 DUP2 SLOAD DUP2 LT PUSH2 0x732 JUMPI PUSH1 0x0 DUP1 REVERT JUMPDEST SWAP1 PUSH1 0x0 MSTORE PUSH1 0x20 PUSH1 0x0 KECCAK256 SWAP1 PUSH1 0x5 MUL ADD PUSH1 0x0 SWAP2 POP SWAP1 POP DUP1 PUSH1 0x0 ADD DUP1 SLOAD PUSH2 0x755 SWAP1 PUSH2 0x10AC JUMP JUMPDEST DUP1 PUSH1 0x1F ADD PUSH1 0x20 DUP1 SWAP2 DIV MUL PUSH1 0x20 ADD PUSH1 0x40 MLOAD SWAP1 DUP2 ADD PUSH1 0x40 MSTORE DUP1 SWAP3 SWAP2 SWAP1 DUP2 DUP2 MSTORE PUSH1 0x20 ADD DUP3 DUP1 SLOAD PUSH2 0x781 SWAP1 PUSH2 0x10AC JUMP JUMPDEST DUP1 ISZERO PUSH2 0x7CE JUMPI DUP1 PUSH1 0x1F LT PUSH2 0x7A3 JUMPI PUSH2 0x100 DUP1 DUP4 SLOAD DIV MUL DUP4 MSTORE SWAP2 PUSH1 0x20 ADD SWAP2 PUSH2 0x7CE JUMP JUMPDEST DUP3 ADD SWAP2 SWAP1 PUSH1 0x0 MSTORE PUSH1 0x20 PUSH1 0x0 KECCAK256 SWAP1 JUMPDEST DUP2 SLOAD DUP2 MSTORE SWAP1 PUSH1 0x1 ADD SWAP1 PUSH1 0x20 ADD DUP1 DUP4 GT PUSH2 0x7B1 JUMPI DUP3 SWAP1 SUB PUSH1 0x1F AND DUP3 ADD SWAP2 JUMPDEST POP POP POP POP POP SWAP1 DUP1 PUSH1 0x1 ADD SLOAD SWAP1 DUP1 PUSH1 0x2 ADD PUSH1 0x0 SWAP1 SLOAD SWAP1 PUSH2 0x100 EXP SWAP1 DIV PUSH20 0xFFFFFFFFFFFFFFFFFFFFFFFFFFFFFFFFFFFFFFFF AND SWAP1 DUP1 PUSH1 0x2 ADD PUSH1 0x14 SWAP1 SLOAD SWAP1 PUSH2 0x100 EXP SWAP1 DIV PUSH1 0xFF AND SWAP1 DUP1 PUSH1 0x3 ADD SLOAD SWAP1 POP DUP6 JUMP JUMPDEST PUSH1 0x6 SLOAD DUP2 JUMP JUMPDEST PUSH1 0x1 PUSH1 0x0 SWAP1 SLOAD SWAP1 PUSH2 0x100 EXP SWAP1 DIV PUSH20 0xFFFFFFFFFFFFFFFFFFFFFFFFFFFFFFFFFFFFFFFF AND PUSH20 0xFFFFFFFFFFFFFFFFFFFFFFFFFFFFFFFFFFFFFFFF AND CALLER PUSH20 0xFFFFFFFFFFFFFFFFFFFFFFFFFFFFFFFFFFFFFFFF AND EQ PUSH2 0x87D JUMPI PUSH1 0x0 DUP1 REVERT JUMPDEST PUSH1 0x0 DUP1 PUSH1 0x1 DUP2 PUSH1 0x1 DUP2 SLOAD ADD DUP1 DUP3 SSTORE DUP1 SWAP2 POP POP SUB SWAP1 PUSH1 0x0 MSTORE PUSH1 0x20 PUSH1 0x0 KECCAK256 SWAP1 PUSH1 0x5 MUL ADD SWAP1 POP DUP4 DUP2 PUSH1 0x0 ADD SWAP1 DUP2 PUSH2 0x8B1 SWAP2 SWAP1 PUSH2 0x1289 JUMP JUMPDEST POP DUP3 DUP2 PUSH1 0x1 ADD DUP2 SWAP1 SSTORE POP DUP2 DUP2 PUSH1 0x2 ADD PUSH1 0x0 PUSH2 0x100 EXP DUP2 SLOAD DUP2 PUSH20 0xFFFFFFFFFFFFFFFFFFFFFFFFFFFFFFFFFFFFFFFF MUL NOT AND SWAP1 DUP4 PUSH20 0xFFFFFFFFFFFFFFFFFFFFFFFFFFFFFFFFFFFFFFFF AND MUL OR SWAP1 SSTORE POP PUSH1 0x0 DUP2 PUSH1 0x2 ADD PUSH1 0x14 PUSH2 0x100 EXP DUP2 SLOAD DUP2 PUSH1 0xFF MUL NOT AND SWAP1 DUP4 ISZERO ISZERO MUL OR SWAP1 SSTORE POP PUSH1 0x0 DUP2 PUSH1 0x3 ADD DUP2 SWAP1 SSTORE POP POP POP POP POP JUMP JUMPDEST PUSH1 0x4 SLOAD DUP2 JUMP JUMPDEST PUSH1 0x4 SLOAD CALLVALUE GT PUSH2 0x93F JUMPI PUSH1 0x0 DUP1 REVERT JUMPDEST PUSH1 0x1 PUSH1 0x5 PUSH1 0x0 CALLER PUSH20 0xFFFFFFFFFFFFFFFFFFFFFFFFFFFFFFFFFFFFFFFF AND PUSH20 0xFFFFFFFFFFFFFFFFFFFFFFFFFFFFFFFFFFFFFFFF AND DUP2 MSTORE PUSH1 0x20 ADD SWAP1 DUP2 MSTORE PUSH1 0x20 ADD PUSH1 0x0 KECCAK256 PUSH1 0x0 PUSH2 0x100 EXP DUP2 SLOAD DUP2 PUSH1 0xFF MUL NOT AND SWAP1 DUP4 ISZERO ISZERO MUL OR SWAP1 SSTORE POP PUSH1 0x6 PUSH1 0x0 DUP2 SLOAD DUP1 SWAP3 SWAP2 SWAP1 PUSH2 0x9AA SWAP1 PUSH2 0x135B JUMP JUMPDEST SWAP2 SWAP1 POP SSTORE POP JUMP JUMPDEST PUSH1 0x0 DUP1 DUP3 DUP2 SLOAD DUP2 LT PUSH2 0x9C6 JUMPI PUSH2 0x9C5 PUSH2 0xFBF JUMP JUMPDEST JUMPDEST SWAP1 PUSH1 0x0 MSTORE PUSH1 0x20 PUSH1 0x0 KECCAK256 SWAP1 PUSH1 0x5 MUL ADD SWAP1 POP PUSH1 0x5 PUSH1 0x0 CALLER PUSH20 0xFFFFFFFFFFFFFFFFFFFFFFFFFFFFFFFFFFFFFFFF AND PUSH20 0xFFFFFFFFFFFFFFFFFFFFFFFFFFFFFFFFFFFFFFFF AND DUP2 MSTORE PUSH1 0x20 ADD SWAP1 DUP2 MSTORE PUSH1 0x20 ADD PUSH1 0x0 KECCAK256 PUSH1 0x0 SWAP1 SLOAD SWAP1 PUSH2 0x100 EXP SWAP1 DIV PUSH1 0xFF AND PUSH2 0xA2C JUMPI PUSH1 0x0 DUP1 REVERT JUMPDEST DUP1 PUSH1 0x4 ADD PUSH1 0x0 CALLER PUSH20 0xFFFFFFFFFFFFFFFFFFFFFFFFFFFFFFFFFFFFFFFF AND PUSH20 0xFFFFFFFFFFFFFFFFFFFFFFFFFFFFFFFFFFFFFFFF AND DUP2 MSTORE PUSH1 0x20 ADD SWAP1 DUP2 MSTORE PUSH1 0x20 ADD PUSH1 0x0 KECCAK256 PUSH1 0x0 SWAP1 SLOAD SWAP1 PUSH2 0x100 EXP SWAP1 DIV PUSH1 0xFF AND ISZERO PUSH2 0xA85 JUMPI PUSH1 0x0 DUP1 REVERT JUMPDEST PUSH1 0x1 DUP2 PUSH1 0x4 ADD PUSH1 0x0 CALLER PUSH20 0xFFFFFFFFFFFFFFFFFFFFFFFFFFFFFFFFFFFFFFFF AND PUSH20 0xFFFFFFFFFFFFFFFFFFFFFFFFFFFFFFFFFFFFFFFF AND DUP2 MSTORE PUSH1 0x20 ADD SWAP1 DUP2 MSTORE PUSH1 0x20 ADD PUSH1 0x0 KECCAK256 PUSH1 0x0 PUSH2 0x100 EXP DUP2 SLOAD DUP2 PUSH1 0xFF MUL NOT AND SWAP1 DUP4 ISZERO ISZERO MUL OR SWAP1 SSTORE POP DUP1 PUSH1 0x3 ADD PUSH1 0x0 DUP2 SLOAD DUP1 SWAP3 SWAP2 SWAP1 PUSH2 0xAF4 SWAP1 PUSH2 0x135B JUMP JUMPDEST SWAP2 SWAP1 POP SSTORE POP POP POP JUMP JUMPDEST PUSH1 0x0 PUSH1 0x40 MLOAD SWAP1 POP SWAP1 JUMP JUMPDEST PUSH1 0x0 DUP1 REVERT JUMPDEST PUSH1 0x0 DUP1 REVERT JUMPDEST PUSH1 0x0 DUP2 SWAP1 POP SWAP2 SWAP1 POP JUMP JUMPDEST PUSH2 0xB24 DUP2 PUSH2 0xB11 JUMP JUMPDEST DUP2 EQ PUSH2 0xB2F JUMPI PUSH1 0x0 DUP1 REVERT JUMPDEST POP JUMP JUMPDEST PUSH1 0x0 DUP2 CALLDATALOAD SWAP1 POP PUSH2 0xB41 DUP2 PUSH2 0xB1B JUMP JUMPDEST SWAP3 SWAP2 POP POP JUMP JUMPDEST PUSH1 0x0 PUSH1 0x20 DUP3 DUP5 SUB SLT ISZERO PUSH2 0xB5D JUMPI PUSH2 0xB5C PUSH2 0xB07 JUMP JUMPDEST JUMPDEST PUSH1 0x0 PUSH2 0xB6B DUP5 DUP3 DUP6 ADD PUSH2 0xB32 JUMP JUMPDEST SWAP2 POP POP SWAP3 SWAP2 POP POP JUMP JUMPDEST PUSH1 0x0 PUSH20 0xFFFFFFFFFFFFFFFFFFFFFFFFFFFFFFFFFFFFFFFF DUP3 AND SWAP1 POP SWAP2 SWAP1 POP JUMP JUMPDEST PUSH1 0x0 PUSH2 0xB9F DUP3 PUSH2 0xB74 JUMP JUMPDEST SWAP1 POP SWAP2 SWAP1 POP JUMP JUMPDEST PUSH2 0xBAF DUP2 PUSH2 0xB94 JUMP JUMPDEST DUP2 EQ PUSH2 0xBBA JUMPI PUSH1 0x0 DUP1 REVERT JUMPDEST POP JUMP JUMPDEST PUSH1 0x0 DUP2 CALLDATALOAD SWAP1 POP PUSH2 0xBCC DUP2 PUSH2 0xBA6 JUMP JUMPDEST SWAP3 SWAP2 POP POP JUMP JUMPDEST PUSH1 0x0 PUSH1 0x20 DUP3 DUP5 SUB SLT ISZERO PUSH2 0xBE8 JUMPI PUSH2 0xBE7 PUSH2 0xB07 JUMP JUMPDEST JUMPDEST PUSH1 0x0 PUSH2 0xBF6 DUP5 DUP3 DUP6 ADD PUSH2 0xBBD JUMP JUMPDEST SWAP2 POP POP SWAP3 SWAP2 POP POP JUMP JUMPDEST PUSH1 0x0 DUP2 ISZERO ISZERO SWAP1 POP SWAP2 SWAP1 POP JUMP JUMPDEST PUSH2 0xC14 DUP2 PUSH2 0xBFF JUMP JUMPDEST DUP3 MSTORE POP POP JUMP JUMPDEST PUSH1 0x0 PUSH1 0x20 DUP3 ADD SWAP1 POP PUSH2 0xC2F PUSH1 0x0 DUP4 ADD DUP5 PUSH2 0xC0B JUMP JUMPDEST SWAP3 SWAP2 POP POP JUMP JUMPDEST PUSH2 0xC3E DUP2 PUSH2 0xB11 JUMP JUMPDEST DUP3 MSTORE POP POP JUMP JUMPDEST PUSH1 0x0 PUSH1 0x20 DUP3 ADD SWAP1 POP PUSH2 0xC59 PUSH1 0x0 DUP4 ADD DUP5 PUSH2 0xC35 JUMP JUMPDEST SWAP3 SWAP2 POP POP JUMP JUMPDEST PUSH2 0xC68 DUP2 PUSH2 0xB94 JUMP JUMPDEST DUP3 MSTORE POP POP JUMP JUMPDEST PUSH1 0x0 DUP2 MLOAD SWAP1 POP SWAP2 SWAP1 POP JUMP JUMPDEST PUSH1 0x0 DUP3 DUP3 MSTORE PUSH1 0x20 DUP3 ADD SWAP1 POP SWAP3 SWAP2 POP POP JUMP JUMPDEST PUSH1 0x0 JUMPDEST DUP4 DUP2 LT ISZERO PUSH2 0xCA8 JUMPI DUP1 DUP3 ADD MLOAD DUP2 DUP5 ADD MSTORE PUSH1 0x20 DUP2 ADD SWAP1 POP PUSH2 0xC8D JUMP JUMPDEST DUP4 DUP2 GT ISZERO PUSH2 0xCB7 JUMPI PUSH1 0x0 DUP5 DUP5 ADD MSTORE JUMPDEST POP POP POP POP JUMP JUMPDEST PUSH1 0x0 PUSH1 0x1F NOT PUSH1 0x1F DUP4 ADD AND SWAP1 POP SWAP2 SWAP1 POP JUMP JUMPDEST PUSH1 0x0 PUSH2 0xCD9 DUP3 PUSH2 0xC6E JUMP JUMPDEST PUSH2 0xCE3 DUP2 DUP6 PUSH2 0xC79 JUMP JUMPDEST SWAP4 POP PUSH2 0xCF3 DUP2 DUP6 PUSH1 0x20 DUP7 ADD PUSH2 0xC8A JUMP JUMPDEST PUSH2 0xCFC DUP2 PUSH2 0xCBD JUMP JUMPDEST DUP5 ADD SWAP2 POP POP SWAP3 SWAP2 POP POP JUMP JUMPDEST PUSH1 0x0 PUSH1 0xE0 DUP3 ADD SWAP1 POP PUSH2 0xD1C PUSH1 0x0 DUP4 ADD DUP11 PUSH2 0xC35 JUMP JUMPDEST PUSH2 0xD29 PUSH1 0x20 DUP4 ADD DUP10 PUSH2 0xC35 JUMP JUMPDEST PUSH2 0xD36 PUSH1 0x40 DUP4 ADD DUP9 PUSH2 0xC35 JUMP JUMPDEST PUSH2 0xD43 PUSH1 0x60 DUP4 ADD DUP8 PUSH2 0xC35 JUMP JUMPDEST PUSH2 0xD50 PUSH1 0x80 DUP4 ADD DUP7 PUSH2 0xC5F JUMP JUMPDEST DUP2 DUP2 SUB PUSH1 0xA0 DUP4 ADD MSTORE PUSH2 0xD62 DUP2 DUP6 PUSH2 0xCCE JUMP JUMPDEST SWAP1 POP DUP2 DUP2 SUB PUSH1 0xC0 DUP4 ADD MSTORE PUSH2 0xD76 DUP2 DUP5 PUSH2 0xCCE JUMP JUMPDEST SWAP1 POP SWAP9 SWAP8 POP POP POP POP POP POP POP POP JUMP JUMPDEST PUSH1 0x0 PUSH1 0x20 DUP3 ADD SWAP1 POP PUSH2 0xD99 PUSH1 0x0 DUP4 ADD DUP5 PUSH2 0xC5F JUMP JUMPDEST SWAP3 SWAP2 POP POP JUMP JUMPDEST PUSH1 0x0 PUSH1 0x20 DUP3 ADD SWAP1 POP DUP2 DUP2 SUB PUSH1 0x0 DUP4 ADD MSTORE PUSH2 0xDB9 DUP2 DUP5 PUSH2 0xCCE JUMP JUMPDEST SWAP1 POP SWAP3 SWAP2 POP POP JUMP JUMPDEST PUSH1 0x0 PUSH1 0xA0 DUP3 ADD SWAP1 POP DUP2 DUP2 SUB PUSH1 0x0 DUP4 ADD MSTORE PUSH2 0xDDB DUP2 DUP9 PUSH2 0xCCE JUMP JUMPDEST SWAP1 POP PUSH2 0xDEA PUSH1 0x20 DUP4 ADD DUP8 PUSH2 0xC35 JUMP JUMPDEST PUSH2 0xDF7 PUSH1 0x40 DUP4 ADD DUP7 PUSH2 0xC5F JUMP JUMPDEST PUSH2 0xE04 PUSH1 0x60 DUP4 ADD DUP6 PUSH2 0xC0B JUMP JUMPDEST PUSH2 0xE11 PUSH1 0x80 DUP4 ADD DUP5 PUSH2 0xC35 JUMP JUMPDEST SWAP7 SWAP6 POP POP POP POP POP POP JUMP JUMPDEST PUSH1 0x0 DUP1 REVERT JUMPDEST PUSH1 0x0 DUP1 REVERT JUMPDEST PUSH32 0x4E487B7100000000000000000000000000000000000000000000000000000000 PUSH1 0x0 MSTORE PUSH1 0x41 PUSH1 0x4 MSTORE PUSH1 0x24 PUSH1 0x0 REVERT JUMPDEST PUSH2 0xE5D DUP3 PUSH2 0xCBD JUMP JUMPDEST DUP2 ADD DUP2 DUP2 LT PUSH8 0xFFFFFFFFFFFFFFFF DUP3 GT OR ISZERO PUSH2 0xE7C JUMPI PUSH2 0xE7B PUSH2 0xE25 JUMP JUMPDEST JUMPDEST DUP1 PUSH1 0x40 MSTORE POP POP POP JUMP JUMPDEST PUSH1 0x0 PUSH2 0xE8F PUSH2 0xAFD JUMP JUMPDEST SWAP1 POP PUSH2 0xE9B DUP3 DUP3 PUSH2 0xE54 JUMP JUMPDEST SWAP2 SWAP1 POP JUMP JUMPDEST PUSH1 0x0 PUSH8 0xFFFFFFFFFFFFFFFF DUP3 GT ISZERO PUSH2 0xEBB JUMPI PUSH2 0xEBA PUSH2 0xE25 JUMP JUMPDEST JUMPDEST PUSH2 0xEC4 DUP3 PUSH2 0xCBD JUMP JUMPDEST SWAP1 POP PUSH1 0x20 DUP2 ADD SWAP1 POP SWAP2 SWAP1 POP JUMP JUMPDEST DUP3 DUP2 DUP4 CALLDATACOPY PUSH1 0x0 DUP4 DUP4 ADD MSTORE POP POP POP JUMP JUMPDEST PUSH1 0x0 PUSH2 0xEF3 PUSH2 0xEEE DUP5 PUSH2 0xEA0 JUMP JUMPDEST PUSH2 0xE85 JUMP JUMPDEST SWAP1 POP DUP3 DUP2 MSTORE PUSH1 0x20 DUP2 ADD DUP5 DUP5 DUP5 ADD GT ISZERO PUSH2 0xF0F JUMPI PUSH2 0xF0E PUSH2 0xE20 JUMP JUMPDEST JUMPDEST PUSH2 0xF1A DUP5 DUP3 DUP6 PUSH2 0xED1 JUMP JUMPDEST POP SWAP4 SWAP3 POP POP POP JUMP JUMPDEST PUSH1 0x0 DUP3 PUSH1 0x1F DUP4 ADD SLT PUSH2 0xF37 JUMPI PUSH2 0xF36 PUSH2 0xE1B JUMP JUMPDEST JUMPDEST DUP2 CALLDATALOAD PUSH2 0xF47 DUP5 DUP3 PUSH1 0x20 DUP7 ADD PUSH2 0xEE0 JUMP JUMPDEST SWAP2 POP POP SWAP3 SWAP2 POP POP JUMP JUMPDEST PUSH1 0x0 DUP1 PUSH1 0x0 PUSH1 0x60 DUP5 DUP7 SUB SLT ISZERO PUSH2 0xF69 JUMPI PUSH2 0xF68 PUSH2 0xB07 JUMP JUMPDEST JUMPDEST PUSH1 0x0 DUP5 ADD CALLDATALOAD PUSH8 0xFFFFFFFFFFFFFFFF DUP2 GT ISZERO PUSH2 0xF87 JUMPI PUSH2 0xF86 PUSH2 0xB0C JUMP JUMPDEST JUMPDEST PUSH2 0xF93 DUP7 DUP3 DUP8 ADD PUSH2 0xF22 JUMP JUMPDEST SWAP4 POP POP PUSH1 0x20 PUSH2 0xFA4 DUP7 DUP3 DUP8 ADD PUSH2 0xB32 JUMP JUMPDEST SWAP3 POP POP PUSH1 0x40 PUSH2 0xFB5 DUP7 DUP3 DUP8 ADD PUSH2 0xBBD JUMP JUMPDEST SWAP2 POP POP SWAP3 POP SWAP3 POP SWAP3 JUMP JUMPDEST PUSH32 0x4E487B7100000000000000000000000000000000000000000000000000000000 PUSH1 0x0 MSTORE PUSH1 0x32 PUSH1 0x4 MSTORE PUSH1 0x24 PUSH1 0x0 REVERT JUMPDEST PUSH32 0x4E487B7100000000000000000000000000000000000000000000000000000000 PUSH1 0x0 MSTORE PUSH1 0x12 PUSH1 0x4 MSTORE PUSH1 0x24 PUSH1 0x0 REVERT JUMPDEST PUSH32 0x4E487B7100000000000000000000000000000000000000000000000000000000 PUSH1 0x0 MSTORE PUSH1 0x11 PUSH1 0x4 MSTORE PUSH1 0x24 PUSH1 0x0 REVERT JUMPDEST PUSH1 0x0 PUSH2 0x1057 DUP3 PUSH2 0xB11 JUMP JUMPDEST SWAP2 POP PUSH2 0x1062 DUP4 PUSH2 0xB11 JUMP JUMPDEST SWAP3 POP DUP3 PUSH2 0x1072 JUMPI PUSH2 0x1071 PUSH2 0xFEE JUMP JUMPDEST JUMPDEST DUP3 DUP3 DIV SWAP1 POP SWAP3 SWAP2 POP POP JUMP JUMPDEST PUSH32 0x4E487B7100000000000000000000000000000000000000000000000000000000 PUSH1 0x0 MSTORE PUSH1 0x22 PUSH1 0x4 MSTORE PUSH1 0x24 PUSH1 0x0 REVERT JUMPDEST PUSH1 0x0 PUSH1 0x2 DUP3 DIV SWAP1 POP PUSH1 0x1 DUP3 AND DUP1 PUSH2 0x10C4 JUMPI PUSH1 0x7F DUP3 AND SWAP2 POP JUMPDEST PUSH1 0x20 DUP3 LT DUP2 SUB PUSH2 0x10D7 JUMPI PUSH2 0x10D6 PUSH2 0x107D JUMP JUMPDEST JUMPDEST POP SWAP2 SWAP1 POP JUMP JUMPDEST PUSH1 0x0 DUP2 SWAP1 POP DUP2 PUSH1 0x0 MSTORE PUSH1 0x20 PUSH1 0x0 KECCAK256 SWAP1 POP SWAP2 SWAP1 POP JUMP JUMPDEST PUSH1 0x0 PUSH1 0x20 PUSH1 0x1F DUP4 ADD DIV SWAP1 POP SWAP2 SWAP1 POP JUMP JUMPDEST PUSH1 0x0 DUP3 DUP3 SHL SWAP1 POP SWAP3 SWAP2 POP POP JUMP JUMPDEST PUSH1 0x0 PUSH1 0x8 DUP4 MUL PUSH2 0x113F PUSH32 0xFFFFFFFFFFFFFFFFFFFFFFFFFFFFFFFFFFFFFFFFFFFFFFFFFFFFFFFFFFFFFFFF DUP3 PUSH2 0x1102 JUMP JUMPDEST PUSH2 0x1149 DUP7 DUP4 PUSH2 0x1102 JUMP JUMPDEST SWAP6 POP DUP1 NOT DUP5 AND SWAP4 POP DUP1 DUP7 AND DUP5 OR SWAP3 POP POP POP SWAP4 SWAP3 POP POP POP JUMP JUMPDEST PUSH1 0x0 DUP2 SWAP1 POP SWAP2 SWAP1 POP JUMP JUMPDEST PUSH1 0x0 PUSH2 0x1186 PUSH2 0x1181 PUSH2 0x117C DUP5 PUSH2 0xB11 JUMP JUMPDEST PUSH2 0x1161 JUMP JUMPDEST PUSH2 0xB11 JUMP JUMPDEST SWAP1 POP SWAP2 SWAP1 POP JUMP JUMPDEST PUSH1 0x0 DUP2 SWAP1 POP SWAP2 SWAP1 POP JUMP JUMPDEST PUSH2 0x11A0 DUP4 PUSH2 0x116B JUMP JUMPDEST PUSH2 0x11B4 PUSH2 0x11AC DUP3 PUSH2 0x118D JUMP JUMPDEST DUP5 DUP5 SLOAD PUSH2 0x110F JUMP JUMPDEST DUP3 SSTORE POP POP POP POP JUMP JUMPDEST PUSH1 0x0 SWAP1 JUMP JUMPDEST PUSH2 0x11C9 PUSH2 0x11BC JUMP JUMPDEST PUSH2 0x11D4 DUP2 DUP5 DUP5 PUSH2 0x1197 JUMP JUMPDEST POP POP POP JUMP JUMPDEST JUMPDEST DUP2 DUP2 LT ISZERO PUSH2 0x11F8 JUMPI PUSH2 0x11ED PUSH1 0x0 DUP3 PUSH2 0x11C1 JUMP JUMPDEST PUSH1 0x1 DUP2 ADD SWAP1 POP PUSH2 0x11DA JUMP JUMPDEST POP POP JUMP JUMPDEST PUSH1 0x1F DUP3 GT ISZERO PUSH2 0x123D JUMPI PUSH2 0x120E DUP2 PUSH2 0x10DD JUMP JUMPDEST PUSH2 0x1217 DUP5 PUSH2 0x10F2 JUMP JUMPDEST DUP2 ADD PUSH1 0x20 DUP6 LT ISZERO PUSH2 0x1226 JUMPI DUP2 SWAP1 POP JUMPDEST PUSH2 0x123A PUSH2 0x1232 DUP6 PUSH2 0x10F2 JUMP JUMPDEST DUP4 ADD DUP3 PUSH2 0x11D9 JUMP JUMPDEST POP POP JUMPDEST POP POP POP JUMP JUMPDEST PUSH1 0x0 DUP3 DUP3 SHR SWAP1 POP SWAP3 SWAP2 POP POP JUMP JUMPDEST PUSH1 0x0 PUSH2 0x1260 PUSH1 0x0 NOT DUP5 PUSH1 0x8 MUL PUSH2 0x1242 JUMP JUMPDEST NOT DUP1 DUP4 AND SWAP2 POP POP SWAP3 SWAP2 POP POP JUMP JUMPDEST PUSH1 0x0 PUSH2 0x1279 DUP4 DUP4 PUSH2 0x124F JUMP JUMPDEST SWAP2 POP DUP3 PUSH1 0x2 MUL DUP3 OR SWAP1 POP SWAP3 SWAP2 POP POP JUMP JUMPDEST PUSH2 0x1292 DUP3 PUSH2 0xC6E JUMP JUMPDEST PUSH8 0xFFFFFFFFFFFFFFFF DUP2 GT ISZERO PUSH2 0x12AB JUMPI PUSH2 0x12AA PUSH2 0xE25 JUMP JUMPDEST JUMPDEST PUSH2 0x12B5 DUP3 SLOAD PUSH2 0x10AC JUMP JUMPDEST PUSH2 0x12C0 DUP3 DUP3 DUP6 PUSH2 0x11FC JUMP JUMPDEST PUSH1 0x0 PUSH1 0x20 SWAP1 POP PUSH1 0x1F DUP4 GT PUSH1 0x1 DUP2 EQ PUSH2 0x12F3 JUMPI PUSH1 0x0 DUP5 ISZERO PUSH2 0x12E1 JUMPI DUP3 DUP8 ADD MLOAD SWAP1 POP JUMPDEST PUSH2 0x12EB DUP6 DUP3 PUSH2 0x126D JUMP JUMPDEST DUP7 SSTORE POP PUSH2 0x1353 JUMP JUMPDEST PUSH1 0x1F NOT DUP5 AND PUSH2 0x1301 DUP7 PUSH2 0x10DD JUMP JUMPDEST PUSH1 0x0 JUMPDEST DUP3 DUP2 LT ISZERO PUSH2 0x1329 JUMPI DUP5 DUP10 ADD MLOAD DUP3 SSTORE PUSH1 0x1 DUP3 ADD SWAP2 POP PUSH1 0x20 DUP6 ADD SWAP5 POP PUSH1 0x20 DUP2 ADD SWAP1 POP PUSH2 0x1304 JUMP JUMPDEST DUP7 DUP4 LT ISZERO PUSH2 0x1346 JUMPI DUP5 DUP10 ADD MLOAD PUSH2 0x1342 PUSH1 0x1F DUP10 AND DUP3 PUSH2 0x124F JUMP JUMPDEST DUP4 SSTORE POP JUMPDEST PUSH1 0x1 PUSH1 0x2 DUP9 MUL ADD DUP9 SSTORE POP POP POP JUMPDEST POP POP POP POP POP POP JUMP JUMPDEST PUSH1 0x0 PUSH2 0x1366 DUP3 PUSH2 0xB11 JUMP JUMPDEST SWAP2 POP PUSH32 0xFFFFFFFFFFFFFFFFFFFFFFFFFFFFFFFFFFFFFFFFFFFFFFFFFFFFFFFFFFFFFFFF DUP3 SUB PUSH2 0x1398 JUMPI PUSH2 0x1397 PUSH2 0x101D JUMP JUMPDEST JUMPDEST PUSH1 0x1 DUP3 ADD SWAP1 POP SWAP2 SWAP1 POP JUMP INVALID LOG2 PUSH5 0x6970667358 0x22 SLT KECCAK256 0xEF 0xD7 RETURN PUSH13 0x3734893C3AF01C23B80A34D9E 0xE9 0xAC 0x4B 0xAA 0xB6 DUP4 0xDA PUSH16 0xAAB27EC92A86AF64736F6C634300080F STOP CALLER "},"gasEstimates":{"creation":{"codeDepositCost":"1016200","executionCost":"infinite","totalCost":"infinite"},"external":{"approveRequest(uint256)":"infinite","approvers(address)":"2868","approversCount()":"2496","contribute()":"51021","createRequest(string,uint256,address)":"infinite","finalizeRequest(uint256)":"infinite","getRequestsCount()":"2490","getSummary()":"infinite","manager()":"2603","minimumContribution()":"2473","requests(uint256)":"infinite","title()":"infinite","url()":"infinite"}},"methodIdentifiers":{"approveRequest(uint256)":"d7d1bbdb","approvers(address)":"0a144391","approversCount()":"82fde093","contribute()":"d7bb99ba","createRequest(string,uint256,address)":"8a9cfd55","finalizeRequest(uint256)":"03441006","getRequestsCount()":"3410452a","getSummary()":"4051ddac","manager()":"481c6a75","minimumContribution()":"937e09b1","requests(uint256)":"81d12c58","title()":"4a79d50c","url()":"5600f04f"}},"storageLayout":{"storage":[{"astId":67,"contract":"Campaign.sol:Campaign","label":"requests","offset":0,"slot":"0","type":"t_array(t_struct(Request)63_storage)dyn_storage"},{"astId":69,"contract":"Campaign.sol:Campaign","label":"manager","offset":0,"slot":"1","type":"t_address"},{"astId":71,"contract":"Campaign.sol:Campaign","label":"title","offset":0,"slot":"2","type":"t_string_storage"},{"astId":73,"contract":"Campaign.sol:Campaign","label":"url","offset":0,"slot":"3","type":"t_string_storage"},{"astId":75,"contract":"Campaign.sol:Campaign","label":"minimumContribution","offset":0,"slot":"4","type":"t_uint256"},{"astId":79,"contract":"Campaign.sol:Campaign","label":"approvers","offset":0,"slot":"5","type":"t_mapping(t_address,t_bool)"},{"astId":81,"contract":"Campaign.sol:Campaign","label":"approversCount","offset":0,"slot":"6","type":"t_uint256"}],"types":{"t_address":{"encoding":"inplace","label":"address","numberOfBytes":"20"},"t_array(t_struct(Request)63_storage)dyn_storage":{"base":"t_struct(Request)63_storage","encoding":"dynamic_array","label":"struct Campaign.Request[]","numberOfBytes":"32"},"t_bool":{"encoding":"inplace","label":"bool","numberOfBytes":"1"},"t_mapping(t_address,t_bool)":{"encoding":"mapping","key":"t_address","label":"mapping(address => bool)","numberOfBytes":"32","value":"t_bool"},"t_string_storage":{"encoding":"bytes","label":"string","numberOfBytes":"32"},"t_struct(Request)63_storage":{"encoding":"inplace","label":"struct Campaign.Request","members":[{"astId":50,"contract":"Campaign.sol:Campaign","label":"description","offset":0,"slot":"0","type":"t_string_storage"},{"astId":52,"contract":"Campaign.sol:Campaign","label":"value","offset":0,"slot":"1","type":"t_uint256"},{"astId":54,"contract":"Campaign.sol:Campaign","label":"recipient","offset":0,"slot":"2","type":"t_address"},{"astId":56,"contract":"Campaign.sol:Campaign","label":"complete","offset":20,"slot":"2","type":"t_bool"},{"astId":58,"contract":"Campaign.sol:Campaign","label":"approvalCount","offset":0,"slot":"3","type":"t_uint256"},{"astId":62,"contract":"Campaign.sol:Campaign","label":"approvals","offset":0,"slot":"4","type":"t_mapping(t_address,t_bool)"}],"numberOfBytes":"160"},"t_uint256":{"encoding":"inplace","label":"uint256","numberOfBytes":"32"}}},"userdoc":{"kind":"user","methods":{},"version":1}}